{
  "_format": "hh-sol-artifact-1",
  "contractName": "Cards",
  "sourceName": "contracts/src/contracts/Cards.sol",
  "abi": [
    {
      "inputs": [],
      "name": "ApprovalCallerNotOwnerNorApproved",
      "type": "error"
    },
    {
      "inputs": [],
      "name": "ApprovalQueryForNonexistentToken",
      "type": "error"
    },
    {
      "inputs": [],
      "name": "ApproveToCaller",
      "type": "error"
    },
    {
      "inputs": [],
      "name": "BalanceQueryForZeroAddress",
      "type": "error"
    },
    {
      "inputs": [],
      "name": "InvalidQueryRange",
      "type": "error"
    },
    {
      "inputs": [],
      "name": "MintERC2309QuantityExceedsLimit",
      "type": "error"
    },
    {
      "inputs": [],
      "name": "MintToZeroAddress",
      "type": "error"
    },
    {
      "inputs": [],
      "name": "MintZeroQuantity",
      "type": "error"
    },
    {
      "inputs": [
        {
          "internalType": "address",
          "name": "operator",
          "type": "address"
        }
      ],
      "name": "OperatorNotAllowed",
      "type": "error"
    },
    {
      "inputs": [],
      "name": "OwnerQueryForNonexistentToken",
      "type": "error"
    },
    {
      "inputs": [],
      "name": "OwnershipNotInitializedForExtraData",
      "type": "error"
    },
    {
      "inputs": [],
      "name": "TransferCallerNotOwnerNorApproved",
      "type": "error"
    },
    {
      "inputs": [],
      "name": "TransferFromIncorrectOwner",
      "type": "error"
    },
    {
      "inputs": [],
      "name": "TransferToNonERC721ReceiverImplementer",
      "type": "error"
    },
    {
      "inputs": [],
      "name": "TransferToZeroAddress",
      "type": "error"
    },
    {
      "inputs": [],
      "name": "URIQueryForNonexistentToken",
      "type": "error"
    },
    {
      "anonymous": false,
      "inputs": [
        {
          "indexed": true,
          "internalType": "address",
          "name": "owner",
          "type": "address"
        },
        {
          "indexed": true,
          "internalType": "address",
          "name": "approved",
          "type": "address"
        },
        {
          "indexed": true,
          "internalType": "uint256",
          "name": "tokenId",
          "type": "uint256"
        }
      ],
      "name": "Approval",
      "type": "event"
    },
    {
      "anonymous": false,
      "inputs": [
        {
          "indexed": true,
          "internalType": "address",
          "name": "owner",
          "type": "address"
        },
        {
          "indexed": true,
          "internalType": "address",
          "name": "operator",
          "type": "address"
        },
        {
          "indexed": false,
          "internalType": "bool",
          "name": "approved",
          "type": "bool"
        }
      ],
      "name": "ApprovalForAll",
      "type": "event"
    },
    {
      "anonymous": false,
      "inputs": [
        {
          "indexed": true,
          "internalType": "uint256",
          "name": "fromTokenId",
          "type": "uint256"
        },
        {
          "indexed": false,
          "internalType": "uint256",
          "name": "toTokenId",
          "type": "uint256"
        },
        {
          "indexed": true,
          "internalType": "address",
          "name": "from",
          "type": "address"
        },
        {
          "indexed": true,
          "internalType": "address",
          "name": "to",
          "type": "address"
        }
      ],
      "name": "ConsecutiveTransfer",
      "type": "event"
    },
    {
      "anonymous": false,
      "inputs": [
        {
          "indexed": true,
          "internalType": "contract IERC20Upgradeable",
          "name": "token",
          "type": "address"
        },
        {
          "indexed": false,
          "internalType": "address",
          "name": "to",
          "type": "address"
        },
        {
          "indexed": false,
          "internalType": "uint256",
          "name": "amount",
          "type": "uint256"
        }
      ],
      "name": "ERC20PaymentReleased",
      "type": "event"
    },
    {
      "anonymous": false,
      "inputs": [
        {
          "indexed": false,
          "internalType": "uint8",
          "name": "version",
          "type": "uint8"
        }
      ],
      "name": "Initialized",
      "type": "event"
    },
    {
      "anonymous": false,
      "inputs": [
        {
          "indexed": true,
          "internalType": "address",
          "name": "previousOwner",
          "type": "address"
        },
        {
          "indexed": true,
          "internalType": "address",
          "name": "newOwner",
          "type": "address"
        }
      ],
      "name": "OwnershipTransferred",
      "type": "event"
    },
    {
      "anonymous": false,
      "inputs": [
        {
          "indexed": false,
          "internalType": "address",
          "name": "account",
          "type": "address"
        },
        {
          "indexed": false,
          "internalType": "uint256",
          "name": "shares",
          "type": "uint256"
        }
      ],
      "name": "PayeeAdded",
      "type": "event"
    },
    {
      "anonymous": false,
      "inputs": [
        {
          "indexed": false,
          "internalType": "address",
          "name": "from",
          "type": "address"
        },
        {
          "indexed": false,
          "internalType": "uint256",
          "name": "amount",
          "type": "uint256"
        }
      ],
      "name": "PaymentReceived",
      "type": "event"
    },
    {
      "anonymous": false,
      "inputs": [
        {
          "indexed": false,
          "internalType": "address",
          "name": "to",
          "type": "address"
        },
        {
          "indexed": false,
          "internalType": "uint256",
          "name": "amount",
          "type": "uint256"
        }
      ],
      "name": "PaymentReleased",
      "type": "event"
    },
    {
      "anonymous": false,
      "inputs": [
        {
          "indexed": false,
          "internalType": "address",
          "name": "recipient",
          "type": "address"
        },
        {
          "indexed": false,
          "internalType": "uint256",
          "name": "amount",
          "type": "uint256"
        }
      ],
      "name": "RoyaltiesSet",
      "type": "event"
    },
    {
      "anonymous": false,
      "inputs": [
        {
          "indexed": true,
          "internalType": "address",
          "name": "from",
          "type": "address"
        },
        {
          "indexed": true,
          "internalType": "address",
          "name": "to",
          "type": "address"
        },
        {
          "indexed": true,
          "internalType": "uint256",
          "name": "tokenId",
          "type": "uint256"
        }
      ],
      "name": "Transfer",
      "type": "event"
    },
    {
      "inputs": [
        {
          "internalType": "uint8",
          "name": "stageId_",
          "type": "uint8"
        },
        {
          "internalType": "address[]",
          "name": "accounts_",
          "type": "address[]"
        }
      ],
      "name": "addToWhitelist",
      "outputs": [],
      "stateMutability": "nonpayable",
      "type": "function"
    },
    {
      "inputs": [
        {
          "internalType": "address[]",
          "name": "accounts_",
          "type": "address[]"
        },
        {
          "internalType": "uint256[]",
          "name": "amounts_",
          "type": "uint256[]"
        }
      ],
      "name": "adminMint",
      "outputs": [],
      "stateMutability": "nonpayable",
      "type": "function"
    },
    {
      "inputs": [
        {
          "internalType": "address",
          "name": "operator",
          "type": "address"
        },
        {
          "internalType": "uint256",
          "name": "tokenId",
          "type": "uint256"
        }
      ],
      "name": "approve",
      "outputs": [],
      "stateMutability": "nonpayable",
      "type": "function"
    },
    {
      "inputs": [
        {
          "internalType": "uint8",
          "name": "stageId_",
          "type": "uint8"
        }
      ],
      "name": "balanceLimit",
      "outputs": [
        {
          "internalType": "uint256",
          "name": "",
          "type": "uint256"
        }
      ],
      "stateMutability": "view",
      "type": "function"
    },
    {
      "inputs": [
        {
          "internalType": "address",
          "name": "owner",
          "type": "address"
        }
      ],
      "name": "balanceOf",
      "outputs": [
        {
          "internalType": "uint256",
          "name": "",
          "type": "uint256"
        }
      ],
      "stateMutability": "view",
      "type": "function"
    },
    {
      "inputs": [
        {
          "internalType": "uint8",
          "name": "stageId_",
          "type": "uint8"
        },
        {
          "internalType": "address",
          "name": "account_",
          "type": "address"
        }
      ],
      "name": "currentBalance",
      "outputs": [
        {
          "internalType": "uint256",
          "name": "",
          "type": "uint256"
        }
      ],
      "stateMutability": "view",
      "type": "function"
    },
    {
      "inputs": [
        {
          "internalType": "uint256",
          "name": "tokenId",
          "type": "uint256"
        }
      ],
      "name": "explicitOwnershipOf",
      "outputs": [
        {
          "components": [
            {
              "internalType": "address",
              "name": "addr",
              "type": "address"
            },
            {
              "internalType": "uint64",
              "name": "startTimestamp",
              "type": "uint64"
            },
            {
              "internalType": "bool",
              "name": "burned",
              "type": "bool"
            },
            {
              "internalType": "uint24",
              "name": "extraData",
              "type": "uint24"
            }
          ],
          "internalType": "struct IERC721AUpgradeable.TokenOwnership",
          "name": "",
          "type": "tuple"
        }
      ],
      "stateMutability": "view",
      "type": "function"
    },
    {
      "inputs": [
        {
          "internalType": "uint256[]",
          "name": "tokenIds",
          "type": "uint256[]"
        }
      ],
      "name": "explicitOwnershipsOf",
      "outputs": [
        {
          "components": [
            {
              "internalType": "address",
              "name": "addr",
              "type": "address"
            },
            {
              "internalType": "uint64",
              "name": "startTimestamp",
              "type": "uint64"
            },
            {
              "internalType": "bool",
              "name": "burned",
              "type": "bool"
            },
            {
              "internalType": "uint24",
              "name": "extraData",
              "type": "uint24"
            }
          ],
          "internalType": "struct IERC721AUpgradeable.TokenOwnership[]",
          "name": "",
          "type": "tuple[]"
        }
      ],
      "stateMutability": "view",
      "type": "function"
    },
    {
      "inputs": [
        {
          "internalType": "uint256",
          "name": "tokenId",
          "type": "uint256"
        }
      ],
      "name": "getApproved",
      "outputs": [
        {
          "internalType": "address",
          "name": "",
          "type": "address"
        }
      ],
      "stateMutability": "view",
      "type": "function"
    },
    {
      "inputs": [
        {
          "components": [
            {
              "internalType": "address[]",
              "name": "payees",
              "type": "address[]"
            },
            {
              "internalType": "uint256[]",
              "name": "shares",
              "type": "uint256[]"
            },
            {
              "internalType": "address",
              "name": "royaltiesRecipient",
              "type": "address"
            },
            {
              "internalType": "uint96",
              "name": "royaltyValue",
              "type": "uint96"
            },
            {
              "components": [
                {
                  "internalType": "uint256",
                  "name": "limit",
                  "type": "uint256"
                },
                {
                  "internalType": "uint256",
                  "name": "price",
                  "type": "uint256"
                },
                {
                  "internalType": "bytes32",
                  "name": "merkleTreeRoot",
                  "type": "bytes32"
                }
              ],
              "internalType": "struct IBase.StageConfig[]",
              "name": "stages",
              "type": "tuple[]"
            },
            {
              "components": [
                {
                  "internalType": "string",
                  "name": "name",
                  "type": "string"
                },
                {
                  "internalType": "string",
                  "name": "symbol",
                  "type": "string"
                },
                {
                  "internalType": "uint256",
                  "name": "supply",
                  "type": "uint256"
                },
                {
                  "internalType": "string",
                  "name": "prefix",
                  "type": "string"
                },
                {
                  "internalType": "string",
                  "name": "suffix",
                  "type": "string"
                }
              ],
              "internalType": "struct IBase.TokenConfig",
              "name": "tokenConfig",
              "type": "tuple"
            }
          ],
          "internalType": "struct IBase.Args",
          "name": "args",
          "type": "tuple"
        },
        {
          "internalType": "address",
          "name": "_packets",
          "type": "address"
        }
      ],
      "name": "initialize",
      "outputs": [],
      "stateMutability": "nonpayable",
      "type": "function"
    },
    {
      "inputs": [
        {
          "internalType": "address",
          "name": "account_",
          "type": "address"
        }
      ],
      "name": "isAdmin",
      "outputs": [
        {
          "internalType": "bool",
          "name": "",
          "type": "bool"
        }
      ],
      "stateMutability": "view",
      "type": "function"
    },
    {
      "inputs": [
        {
          "internalType": "address",
          "name": "owner",
          "type": "address"
        },
        {
          "internalType": "address",
          "name": "operator",
          "type": "address"
        }
      ],
      "name": "isApprovedForAll",
      "outputs": [
        {
          "internalType": "bool",
          "name": "",
          "type": "bool"
        }
      ],
      "stateMutability": "view",
      "type": "function"
    },
    {
      "inputs": [
        {
          "internalType": "uint8",
          "name": "stageId_",
          "type": "uint8"
        },
        {
          "internalType": "address",
          "name": "account_",
          "type": "address"
        },
        {
          "internalType": "bytes32[]",
          "name": "proof_",
          "type": "bytes32[]"
        }
      ],
      "name": "isWhitelisted",
      "outputs": [
        {
          "internalType": "bool",
          "name": "",
          "type": "bool"
        }
      ],
      "stateMutability": "view",
      "type": "function"
    },
    {
      "inputs": [],
      "name": "maxSupply",
      "outputs": [
        {
          "internalType": "uint256",
          "name": "",
          "type": "uint256"
        }
      ],
      "stateMutability": "view",
      "type": "function"
    },
    {
      "inputs": [
        {
          "internalType": "uint8",
          "name": "stageId_",
          "type": "uint8"
        }
      ],
      "name": "merkleTreeRoot",
      "outputs": [
        {
          "internalType": "bytes32",
          "name": "",
          "type": "bytes32"
        }
      ],
      "stateMutability": "view",
      "type": "function"
    },
    {
      "inputs": [
        {
          "internalType": "address",
          "name": "account_",
          "type": "address"
        },
        {
          "internalType": "uint256",
          "name": "amount_",
          "type": "uint256"
        }
      ],
      "name": "mint",
      "outputs": [],
      "stateMutability": "nonpayable",
      "type": "function"
    },
    {
      "inputs": [],
      "name": "name",
      "outputs": [
        {
          "internalType": "string",
          "name": "",
          "type": "string"
        }
      ],
      "stateMutability": "view",
      "type": "function"
    },
    {
      "inputs": [],
      "name": "owner",
      "outputs": [
        {
          "internalType": "address",
          "name": "",
          "type": "address"
        }
      ],
      "stateMutability": "view",
      "type": "function"
    },
    {
      "inputs": [
        {
          "internalType": "uint256",
          "name": "tokenId",
          "type": "uint256"
        }
      ],
      "name": "ownerOf",
      "outputs": [
        {
          "internalType": "address",
          "name": "",
          "type": "address"
        }
      ],
      "stateMutability": "view",
      "type": "function"
    },
    {
      "inputs": [],
      "name": "packets",
      "outputs": [
        {
          "internalType": "address",
          "name": "",
          "type": "address"
        }
      ],
      "stateMutability": "view",
      "type": "function"
    },
    {
      "inputs": [
        {
          "internalType": "uint256",
          "name": "index",
          "type": "uint256"
        }
      ],
      "name": "payee",
      "outputs": [
        {
          "internalType": "address",
          "name": "",
          "type": "address"
        }
      ],
      "stateMutability": "view",
      "type": "function"
    },
    {
      "inputs": [],
      "name": "payeesLength",
      "outputs": [
        {
          "internalType": "uint256",
          "name": "",
          "type": "uint256"
        }
      ],
      "stateMutability": "view",
      "type": "function"
    },
    {
      "inputs": [],
      "name": "prefix",
      "outputs": [
        {
          "internalType": "string",
          "name": "",
          "type": "string"
        }
      ],
      "stateMutability": "view",
      "type": "function"
    },
    {
      "inputs": [
        {
          "internalType": "uint8",
          "name": "stage_",
          "type": "uint8"
        }
      ],
      "name": "price",
      "outputs": [
        {
          "internalType": "uint256",
          "name": "",
          "type": "uint256"
        }
      ],
      "stateMutability": "view",
      "type": "function"
    },
    {
      "inputs": [
        {
          "internalType": "address",
          "name": "account",
          "type": "address"
        }
      ],
      "name": "releasable",
      "outputs": [
        {
          "internalType": "uint256",
          "name": "",
          "type": "uint256"
        }
      ],
      "stateMutability": "view",
      "type": "function"
    },
    {
      "inputs": [
        {
          "internalType": "contract IERC20Upgradeable",
          "name": "token",
          "type": "address"
        },
        {
          "internalType": "address",
          "name": "account",
          "type": "address"
        }
      ],
      "name": "releasable",
      "outputs": [
        {
          "internalType": "uint256",
          "name": "",
          "type": "uint256"
        }
      ],
      "stateMutability": "view",
      "type": "function"
    },
    {
      "inputs": [
        {
          "internalType": "address payable",
          "name": "account",
          "type": "address"
        }
      ],
      "name": "release",
      "outputs": [],
      "stateMutability": "nonpayable",
      "type": "function"
    },
    {
      "inputs": [
        {
          "internalType": "contract IERC20Upgradeable",
          "name": "token",
          "type": "address"
        },
        {
          "internalType": "address",
          "name": "account",
          "type": "address"
        }
      ],
      "name": "release",
      "outputs": [],
      "stateMutability": "nonpayable",
      "type": "function"
    },
    {
      "inputs": [
        {
          "internalType": "contract IERC20Upgradeable",
          "name": "token",
          "type": "address"
        }
      ],
      "name": "releaseAll",
      "outputs": [],
      "stateMutability": "nonpayable",
      "type": "function"
    },
    {
      "inputs": [],
      "name": "releaseAll",
      "outputs": [],
      "stateMutability": "nonpayable",
      "type": "function"
    },
    {
      "inputs": [
        {
          "internalType": "contract IERC20Upgradeable",
          "name": "token",
          "type": "address"
        },
        {
          "internalType": "address",
          "name": "account",
          "type": "address"
        }
      ],
      "name": "released",
      "outputs": [
        {
          "internalType": "uint256",
          "name": "",
          "type": "uint256"
        }
      ],
      "stateMutability": "view",
      "type": "function"
    },
    {
      "inputs": [
        {
          "internalType": "address",
          "name": "account",
          "type": "address"
        }
      ],
      "name": "released",
      "outputs": [
        {
          "internalType": "uint256",
          "name": "",
          "type": "uint256"
        }
      ],
      "stateMutability": "view",
      "type": "function"
    },
    {
      "inputs": [
        {
          "internalType": "uint8",
          "name": "stageId_",
          "type": "uint8"
        },
        {
          "internalType": "address",
          "name": "account_",
          "type": "address"
        }
      ],
      "name": "remainingBalance",
      "outputs": [
        {
          "internalType": "uint256",
          "name": "",
          "type": "uint256"
        }
      ],
      "stateMutability": "view",
      "type": "function"
    },
    {
      "inputs": [
        {
          "internalType": "uint8",
          "name": "stageId_",
          "type": "uint8"
        },
        {
          "internalType": "address[]",
          "name": "accounts_",
          "type": "address[]"
        }
      ],
      "name": "removeFromWhitelist",
      "outputs": [],
      "stateMutability": "nonpayable",
      "type": "function"
    },
    {
      "inputs": [],
      "name": "renounceOwnership",
      "outputs": [],
      "stateMutability": "nonpayable",
      "type": "function"
    },
    {
      "inputs": [
        {
          "internalType": "uint256",
          "name": "",
          "type": "uint256"
        },
        {
          "internalType": "uint256",
          "name": "value_",
          "type": "uint256"
        }
      ],
      "name": "royaltyInfo",
      "outputs": [
        {
          "internalType": "address",
          "name": "receiver",
          "type": "address"
        },
        {
          "internalType": "uint256",
          "name": "royaltyAmount",
          "type": "uint256"
        }
      ],
      "stateMutability": "view",
      "type": "function"
    },
    {
      "inputs": [
        {
          "internalType": "address",
          "name": "from",
          "type": "address"
        },
        {
          "internalType": "address",
          "name": "to",
          "type": "address"
        },
        {
          "internalType": "uint256",
          "name": "tokenId",
          "type": "uint256"
        }
      ],
      "name": "safeTransferFrom",
      "outputs": [],
      "stateMutability": "nonpayable",
      "type": "function"
    },
    {
      "inputs": [
        {
          "internalType": "address",
          "name": "from",
          "type": "address"
        },
        {
          "internalType": "address",
          "name": "to",
          "type": "address"
        },
        {
          "internalType": "uint256",
          "name": "tokenId",
          "type": "uint256"
        },
        {
          "internalType": "bytes",
          "name": "data",
          "type": "bytes"
        }
      ],
      "name": "safeTransferFrom",
      "outputs": [],
      "stateMutability": "nonpayable",
      "type": "function"
    },
    {
      "inputs": [
        {
          "internalType": "address",
          "name": "account_",
          "type": "address"
        },
        {
          "internalType": "bool",
          "name": "enable_",
          "type": "bool"
        }
      ],
      "name": "setAdminPermissions",
      "outputs": [],
      "stateMutability": "nonpayable",
      "type": "function"
    },
    {
      "inputs": [
        {
          "internalType": "address",
          "name": "operator",
          "type": "address"
        },
        {
          "internalType": "bool",
          "name": "approved",
          "type": "bool"
        }
      ],
      "name": "setApprovalForAll",
      "outputs": [],
      "stateMutability": "nonpayable",
      "type": "function"
    },
    {
      "inputs": [
        {
          "internalType": "uint256",
          "name": "maxSupply_",
          "type": "uint256"
        }
      ],
      "name": "setMaxSupply",
      "outputs": [],
      "stateMutability": "nonpayable",
      "type": "function"
    },
    {
      "inputs": [
        {
          "internalType": "address",
          "name": "_packets",
          "type": "address"
        }
      ],
      "name": "setPackets",
      "outputs": [],
      "stateMutability": "nonpayable",
      "type": "function"
    },
    {
      "inputs": [
        {
          "internalType": "string",
          "name": "prefix_",
          "type": "string"
        }
      ],
      "name": "setPrefix",
      "outputs": [],
      "stateMutability": "nonpayable",
      "type": "function"
    },
    {
      "inputs": [
        {
          "internalType": "uint8",
          "name": "stage_",
          "type": "uint8"
        },
        {
          "internalType": "uint256",
          "name": "value_",
          "type": "uint256"
        }
      ],
      "name": "setPrice",
      "outputs": [],
      "stateMutability": "nonpayable",
      "type": "function"
    },
    {
      "inputs": [
        {
          "internalType": "address",
          "name": "recipient_",
          "type": "address"
        },
        {
          "internalType": "uint256",
          "name": "amount_",
          "type": "uint256"
        }
      ],
      "name": "setRoyalties",
      "outputs": [],
      "stateMutability": "nonpayable",
      "type": "function"
    },
    {
      "inputs": [
        {
          "internalType": "uint8",
          "name": "stage_",
          "type": "uint8"
        }
      ],
      "name": "setStage",
      "outputs": [],
      "stateMutability": "nonpayable",
      "type": "function"
    },
    {
      "inputs": [
        {
          "internalType": "string",
          "name": "suffix_",
          "type": "string"
        }
      ],
      "name": "setSuffix",
      "outputs": [],
      "stateMutability": "nonpayable",
      "type": "function"
    },
    {
      "inputs": [
        {
          "internalType": "address",
          "name": "account",
          "type": "address"
        }
      ],
      "name": "shares",
      "outputs": [
        {
          "internalType": "uint256",
          "name": "",
          "type": "uint256"
        }
      ],
      "stateMutability": "view",
      "type": "function"
    },
    {
      "inputs": [],
      "name": "stage",
      "outputs": [
        {
          "internalType": "uint8",
          "name": "",
          "type": "uint8"
        }
      ],
      "stateMutability": "view",
      "type": "function"
    },
    {
      "inputs": [],
      "name": "suffix",
      "outputs": [
        {
          "internalType": "string",
          "name": "",
          "type": "string"
        }
      ],
      "stateMutability": "view",
      "type": "function"
    },
    {
      "inputs": [
        {
          "internalType": "bytes4",
          "name": "interfaceId",
          "type": "bytes4"
        }
      ],
      "name": "supportsInterface",
      "outputs": [
        {
          "internalType": "bool",
          "name": "",
          "type": "bool"
        }
      ],
      "stateMutability": "view",
      "type": "function"
    },
    {
      "inputs": [],
      "name": "symbol",
      "outputs": [
        {
          "internalType": "string",
          "name": "",
          "type": "string"
        }
      ],
      "stateMutability": "view",
      "type": "function"
    },
    {
      "inputs": [
        {
          "internalType": "uint256",
          "name": "tokenId",
          "type": "uint256"
        }
      ],
      "name": "tokenURI",
      "outputs": [
        {
          "internalType": "string",
          "name": "",
          "type": "string"
        }
      ],
      "stateMutability": "view",
      "type": "function"
    },
    {
      "inputs": [
        {
          "internalType": "address",
          "name": "owner",
          "type": "address"
        }
      ],
      "name": "tokensOfOwner",
      "outputs": [
        {
          "internalType": "uint256[]",
          "name": "",
          "type": "uint256[]"
        }
      ],
      "stateMutability": "view",
      "type": "function"
    },
    {
      "inputs": [
        {
          "internalType": "address",
          "name": "owner",
          "type": "address"
        },
        {
          "internalType": "uint256",
          "name": "start",
          "type": "uint256"
        },
        {
          "internalType": "uint256",
          "name": "stop",
          "type": "uint256"
        }
      ],
      "name": "tokensOfOwnerIn",
      "outputs": [
        {
          "internalType": "uint256[]",
          "name": "",
          "type": "uint256[]"
        }
      ],
      "stateMutability": "view",
      "type": "function"
    },
    {
      "inputs": [
        {
          "internalType": "contract IERC20Upgradeable",
          "name": "token",
          "type": "address"
        }
      ],
      "name": "totalReleased",
      "outputs": [
        {
          "internalType": "uint256",
          "name": "",
          "type": "uint256"
        }
      ],
      "stateMutability": "view",
      "type": "function"
    },
    {
      "inputs": [],
      "name": "totalReleased",
      "outputs": [
        {
          "internalType": "uint256",
          "name": "",
          "type": "uint256"
        }
      ],
      "stateMutability": "view",
      "type": "function"
    },
    {
      "inputs": [],
      "name": "totalShares",
      "outputs": [
        {
          "internalType": "uint256",
          "name": "",
          "type": "uint256"
        }
      ],
      "stateMutability": "view",
      "type": "function"
    },
    {
      "inputs": [],
      "name": "totalSupply",
      "outputs": [
        {
          "internalType": "uint256",
          "name": "",
          "type": "uint256"
        }
      ],
      "stateMutability": "view",
      "type": "function"
    },
    {
      "inputs": [
        {
          "internalType": "address",
          "name": "from",
          "type": "address"
        },
        {
          "internalType": "address",
          "name": "to",
          "type": "address"
        },
        {
          "internalType": "uint256",
          "name": "tokenId",
          "type": "uint256"
        }
      ],
      "name": "transferFrom",
      "outputs": [],
      "stateMutability": "nonpayable",
      "type": "function"
    },
    {
      "inputs": [
        {
          "internalType": "address",
          "name": "newOwner",
          "type": "address"
        }
      ],
      "name": "transferOwnership",
      "outputs": [],
      "stateMutability": "nonpayable",
      "type": "function"
    },
    {
      "inputs": [
        {
          "internalType": "uint8",
          "name": "stageId_",
          "type": "uint8"
        },
        {
          "internalType": "uint256",
          "name": "limit_",
          "type": "uint256"
        }
      ],
      "name": "updateBalanceLimit",
      "outputs": [],
      "stateMutability": "nonpayable",
      "type": "function"
    },
    {
      "inputs": [
        {
          "internalType": "uint8",
          "name": "stageId_",
          "type": "uint8"
        },
        {
          "internalType": "bytes32",
          "name": "merkleTreeRoot_",
          "type": "bytes32"
        }
      ],
      "name": "updateMerkleTreeRoot",
      "outputs": [],
      "stateMutability": "nonpayable",
      "type": "function"
    },
    {
      "stateMutability": "payable",
      "type": "receive"
    }
  ],
  "bytecode": "0x608060405234801561001057600080fd5b50614c17806100206000396000f3fe6080604052600436106103bc5760003560e01c80638462151c116101f2578063c23dc68f1161010d578063d626898f116100a0578063e919ecad1161006f578063e919ecad14610c75578063e985e9c514610c8c578063f2fde38b14610cac578063f7073c3a14610ccc57600080fd5b8063d626898f14610bb6578063d79779b214610bdc578063e33b7de314610c13578063e4ab4bb914610c2957600080fd5b8063cb3afdb6116100dc578063cb3afdb614610b2a578063ce3cd99714610b4a578063ce7c2ac214610b6a578063d5abeb0114610ba157600080fd5b8063c23dc68f14610a9d578063c45ac05014610aca578063c519cd1c14610aea578063c87b56dd14610b0a57600080fd5b8063a22cb46511610185578063b1ba72d611610154578063b1ba72d6146109ee578063b7fafcd714610a1f578063b88d4fde14610a50578063c040e6b814610a7057600080fd5b8063a22cb4651461095d578063a3f8eace1461097d578063a49340cc1461099d578063ad0127f0146109bd57600080fd5b80638da5cb5b116101c15780638da5cb5b146108d357806395d89b41146108f15780639852595c1461090657806399a2557a1461093d57600080fd5b80638462151c1461084657806385cb593b146108735780638b83209b146108935780638c7ea24b146108b357600080fd5b806340c10f19116102e25780636a00670b11610275578063715018a611610244578063715018a6146107dc57806375d5ae9f146107f157806375dadb321461081157806378db71bd1461082657600080fd5b80636a00670b1461075c5780636dba11631461077c5780636f8b44b01461079c57806370a08231146107bc57600080fd5b80635bbb2177116102b15780635bbb2177146106da5780635be7fde8146107075780635ee54e231461071c5780636352211e1461073c57600080fd5b806340c10f191461065a57806342842e0e1461067a57806348b750441461069a578063580fc80a146106ba57600080fd5b806321a588de1161035a5780632a55205a116103295780632a55205a1461059e5780632f59f741146105dd5780633a98ef39146105fd578063406072a91461061357600080fd5b806321a588de1461051e57806323b872dd1461053e578063240ff27f1461055e57806324d7806c1461057e57600080fd5b8063095ea7b311610396578063095ea7b31461049957806312e3c98b146104bb57806318160ddd146104db57806319165587146104fe57600080fd5b806301ffc9a71461040a57806306fdde031461043f578063081812fc1461046157600080fd5b36610405577f6ef95f06320e7a25a04a175ca677b7052bdd97131872c2192525a629f51be77033604080516001600160a01b0390921682523460208301520160405180910390a1005b600080fd5b34801561041657600080fd5b5061042a610425366004613bc1565b610ce1565b60405190151581526020015b60405180910390f35b34801561044b57600080fd5b50610454610d01565b6040516104369190613c2e565b34801561046d57600080fd5b5061048161047c366004613c41565b610d9c565b6040516001600160a01b039091168152602001610436565b3480156104a557600080fd5b506104b96104b4366004613c7f565b610de9565b005b3480156104c757600080fd5b506104b96104d6366004613cab565b610e02565b3480156104e757600080fd5b506104f0610e59565b604051908152602001610436565b34801561050a57600080fd5b506104b9610519366004613cab565b610e79565b34801561052a57600080fd5b506104b9610539366004613d24565b610f64565b34801561054a57600080fd5b506104b9610559366004613d76565b611015565b34801561056a57600080fd5b506104b9610579366004613dc5565b61103a565b34801561058a57600080fd5b5061042a610599366004613cab565b61108a565b3480156105aa57600080fd5b506105be6105b9366004613dfe565b6110a8565b604080516001600160a01b039093168352602083019190915201610436565b3480156105e957600080fd5b506104b96105f8366004613d24565b6110fe565b34801561060957600080fd5b506101f5546104f0565b34801561061f57600080fd5b506104f061062e366004613e20565b6001600160a01b0391821660009081526101fb6020908152604080832093909416825291909152205490565b34801561066657600080fd5b506104b9610675366004613c7f565b61119f565b34801561068657600080fd5b506104b9610695366004613d76565b6111fc565b3480156106a657600080fd5b506104b96106b5366004613e20565b611221565b3480156106c657600080fd5b506104b96106d5366004613cab565b611335565b3480156106e657600080fd5b506106fa6106f5366004613e4e565b611363565b6040516104369190613ecb565b34801561071357600080fd5b506104b961142e565b34801561072857600080fd5b506104b9610737366004613f0d565b61145e565b34801561074857600080fd5b50610481610757366004613c41565b61149a565b34801561076857600080fd5b506104b9610777366004613f0d565b6114a5565b34801561078857600080fd5b506104f0610797366004613f29565b6114e1565b3480156107a857600080fd5b506104b96107b7366004613c41565b611526565b3480156107c857600080fd5b506104f06107d7366004613cab565b611550565b3480156107e857600080fd5b506104b96115b8565b3480156107fd57600080fd5b506104b961080c366004613f45565b6115cc565b34801561081d57600080fd5b506104546115ff565b34801561083257600080fd5b506104b9610841366004614343565b61160f565b34801561085257600080fd5b50610866610861366004613cab565b6116fc565b604051610436919061444f565b34801561087f57600080fd5b506104b961088e366004613f45565b611804565b34801561089f57600080fd5b506104816108ae366004613c41565b611837565b3480156108bf57600080fd5b506104b96108ce366004613c7f565b611868565b3480156108df57600080fd5b506033546001600160a01b0316610481565b3480156108fd57600080fd5b50610454611897565b34801561091257600080fd5b506104f0610921366004613cab565b6001600160a01b031660009081526101f8602052604090205490565b34801561094957600080fd5b50610866610958366004614487565b6118af565b34801561096957600080fd5b506104b9610978366004613dc5565b611a33565b34801561098957600080fd5b506104f0610998366004613cab565b611a47565b3480156109a957600080fd5b506104b96109b83660046144bc565b611a8a565b3480156109c957600080fd5b506104f06109d8366004614527565b60ff16600090815261012d602052604090205490565b3480156109fa57600080fd5b506104f0610a09366004614527565b60ff16600090815261015e602052604090205490565b348015610a2b57600080fd5b506104f0610a3a366004614527565b60ff1660009081526101c3602052604090205490565b348015610a5c57600080fd5b506104b9610a6b366004614542565b611b6c565b348015610a7c57600080fd5b5061025954610a8b9060ff1681565b60405160ff9091168152602001610436565b348015610aa957600080fd5b50610abd610ab8366004613c41565b611b99565b60405161043691906145c1565b348015610ad657600080fd5b506104f0610ae5366004613e20565b611c26565b348015610af657600080fd5b506104b9610b05366004613f0d565b611cf3565b348015610b1657600080fd5b50610454610b25366004613c41565b611d2f565b348015610b3657600080fd5b5061042a610b453660046145cf565b611d60565b348015610b5657600080fd5b506104b9610b65366004614527565b611d88565b348015610b7657600080fd5b506104f0610b85366004613cab565b6001600160a01b031660009081526101f7602052604090205490565b348015610bad57600080fd5b5060c9546104f0565b348015610bc257600080fd5b50610259546104819061010090046001600160a01b031681565b348015610be857600080fd5b506104f0610bf7366004613cab565b6001600160a01b031660009081526101fa602052604090205490565b348015610c1f57600080fd5b506101f6546104f0565b348015610c3557600080fd5b506104f0610c44366004613f29565b60ff8216600090815261015e602090815260408083206001600160a01b038516845260010190915290205492915050565b348015610c8157600080fd5b506104f06102275481565b348015610c9857600080fd5b5061042a610ca7366004613e20565b611dc4565b348015610cb857600080fd5b506104b9610cc7366004613cab565b611e01565b348015610cd857600080fd5b50610454611e77565b6000610cec82611e87565b80610cfb5750610cfb82611ebc565b92915050565b6060610d0b611f0a565b6002018054610d1990614625565b80601f0160208091040260200160405190810160405280929190818152602001828054610d4590614625565b8015610d925780601f10610d6757610100808354040283529160200191610d92565b820191906000526020600020905b815481529060010190602001808311610d7557829003601f168201915b5050505050905090565b6000610da782611f2e565b610dc4576040516333d1c03960e21b815260040160405180910390fd5b610dcc611f0a565b60009283526006016020525060409020546001600160a01b031690565b81610df381611f77565b610dfd8383612030565b505050565b610e0b3361108a565b610e305760405162461bcd60e51b8152600401610e279061465f565b60405180910390fd5b61025980546001600160a01b0390921661010002610100600160a81b0319909216919091179055565b60006001610e65611f0a565b60010154610e71611f0a565b540303919050565b6001600160a01b03811660009081526101f76020526040902054610eaf5760405162461bcd60e51b8152600401610e2790614685565b6000610eba82611a47565b905080600003610edc5760405162461bcd60e51b8152600401610e27906146cb565b806101f66000828254610eef919061472c565b90915550506001600160a01b03821660009081526101f860205260409020805482019055610f1d82826120de565b604080516001600160a01b0384168152602081018390527fdf20fd1e76bc69d672e4814fafb2c449bba3a5369d8359adf9e05e6fde87b05691015b60405180910390a15050565b610f6d3361108a565b610f895760405162461bcd60e51b8152600401610e279061465f565b60005b8181101561100f5760ff8416600090815261012d6020526040812060019190820190858585818110610fc057610fc061473f565b9050602002016020810190610fd59190613cab565b6001600160a01b031681526020810191909152604001600020805460ff19169115159190911790558061100781614755565b915050610f8c565b50505050565b826001600160a01b038116331461102f5761102f33611f77565b61100f8484846121f7565b6110433361108a565b61105f5760405162461bcd60e51b8152600401610e279061465f565b6001600160a01b03919091166000908152609760205260409020805460ff1916911515919091179055565b6001600160a01b031660009081526097602052604090205460ff1690565b60408051808201909152610191546001600160a01b038116808352600160a01b90910462ffffff16602083018190529091600091612710906110ea908661476e565b6110f49190614785565b9150509250929050565b6111073361108a565b6111235760405162461bcd60e51b8152600401610e279061465f565b60005b8181101561100f5760ff8416600090815261012d60205260408120600101908484848181106111575761115761473f565b905060200201602081019061116c9190613cab565b6001600160a01b031681526020810191909152604001600020805460ff191690558061119781614755565b915050611126565b6102595461010090046001600160a01b031633146111ee5760405162461bcd60e51b815260206004820152600c60248201526b155b985d5d1a1bdc9a5e995960a21b6044820152606401610e27565b6111f882826123ea565b5050565b826001600160a01b03811633146112165761121633611f77565b61100f848484612404565b6001600160a01b03811660009081526101f760205260409020546112575760405162461bcd60e51b8152600401610e2790614685565b60006112638383611c26565b9050806000036112855760405162461bcd60e51b8152600401610e27906146cb565b6001600160a01b03831660009081526101fa6020526040812080548392906112ae90849061472c565b90915550506001600160a01b0380841660009081526101fb602090815260408083209386168352929052208054820190556112ea83838361241f565b604080516001600160a01b038481168252602082018490528516917f3be5b7a71e84ed12875d241991c70855ac5817d847039e17a9d895c1ceb0f18a910160405180910390a2505050565b60005b610227548110156111f857600061134e82611837565b905061135a8382611221565b50600101611338565b6060816000816001600160401b0381111561138057611380613fb6565b6040519080825280602002602001820160405280156113d257816020015b60408051608081018252600080825260208083018290529282018190526060820152825260001990920191018161139e5790505b50905060005b828114611425576114008686838181106113f4576113f461473f565b90506020020135611b99565b8282815181106114125761141261473f565b60209081029190910101526001016113d8565b50949350505050565b60005b6102275481101561145b57600061144782611837565b905061145281610e79565b50600101611431565b50565b6114673361108a565b6114835760405162461bcd60e51b8152600401610e279061465f565b60ff909116600090815261012d6020526040902055565b6000610cfb82612471565b6114ae3361108a565b6114ca5760405162461bcd60e51b8152600401610e279061465f565b60ff90911660009081526101c36020526040902055565b60ff8216600081815261015e602081815260408084206001600160a01b03871685526001810183529084205494845291905254909161151f916147a7565b9392505050565b61152f3361108a565b61154b5760405162461bcd60e51b8152600401610e279061465f565b60c955565b60006001600160a01b038216611579576040516323d3ad8160e21b815260040160405180910390fd5b6001600160401b03611589611f0a565b6005016000846001600160a01b03166001600160a01b0316815260200190815260200160002054169050919050565b6115c0612505565b6115ca600061255f565b565b6115d53361108a565b6115f15760405162461bcd60e51b8152600401610e279061465f565b610160610dfd828483614800565b606061015f8054610d1990614625565b600054610100900460ff161580801561162f5750600054600160ff909116105b806116495750303b158015611649575060005460ff166001145b6116655760405162461bcd60e51b8152600401610e27906148bf565b6000805460ff191660011790558015611688576000805461ff0019166101001790555b611691836125b1565b6102598054610100600160a81b0319166101006001600160a01b038516021790558015610dfd576000805461ff0019169055604051600181527f7f26b83ff96e1f2b6a682f133852f6798a09c465da95921460cefb38474024989060200160405180910390a1505050565b6060600080600061170c85611550565b90506000816001600160401b0381111561172857611728613fb6565b604051908082528060200260200182016040528015611751578160200160208202803683370190505b50905061177e60408051608081018252600080825260208201819052918101829052606081019190915290565b60015b8386146117f857611791816128b6565b915081604001516117f05781516001600160a01b0316156117b157815194505b876001600160a01b0316856001600160a01b0316036117f057808387806001019850815181106117e3576117e361473f565b6020026020010181815250505b600101611781565b50909695505050505050565b61180d3361108a565b6118295760405162461bcd60e51b8152600401610e279061465f565b61015f610dfd828483614800565b60006101f9828154811061184d5761184d61473f565b6000918252602090912001546001600160a01b031692915050565b6118713361108a565b61188d5760405162461bcd60e51b8152600401610e279061465f565b6111f882826128fd565b60606118a1611f0a565b6003018054610d1990614625565b60608183106118d157604051631960ccad60e11b815260040160405180910390fd5b6000806118dc6129c5565b905060018510156118ec57600194505b808411156118f8578093505b600061190387611550565b905084861015611922578585038181101561191c578091505b50611926565b5060005b6000816001600160401b0381111561194057611940613fb6565b604051908082528060200260200182016040528015611969578160200160208202803683370190505b5090508160000361197f57935061151f92505050565b600061198a88611b99565b90506000816040015161199b575080515b885b8881141580156119ad5750848714155b15611a22576119bb816128b6565b92508260400151611a1a5782516001600160a01b0316156119db57825191505b8a6001600160a01b0316826001600160a01b031603611a1a5780848880600101995081518110611a0d57611a0d61473f565b6020026020010181815250505b60010161199d565b505050928352509095945050505050565b81611a3d81611f77565b610dfd83836129d5565b600080611a546101f65490565b611a5e904761472c565b905061151f8382611a85866001600160a01b031660009081526101f8602052604090205490565b612a7b565b611a933361108a565b611aaf5760405162461bcd60e51b8152600401610e279061465f565b82818114611aff5760405162461bcd60e51b815260206004820152601760248201527f41646d696e206d696e743a2062616420726571756573740000000000000000006044820152606401610e27565b60005b81811015611b6457611b52868683818110611b1f57611b1f61473f565b9050602002016020810190611b349190613cab565b858584818110611b4657611b4661473f565b90506020020135612abb565b80611b5c81614755565b915050611b02565b505050505050565b836001600160a01b0381163314611b8657611b8633611f77565b611b9285858585612ac5565b5050505050565b6040805160808101825260008082526020820181905291810182905260608101919091526040805160808101825260008082526020820181905291810182905260608101919091526001831080611bf75750611bf36129c5565b8310155b15611c025792915050565b611c0b836128b6565b9050806040015115611c1d5792915050565b61151f83612b09565b6001600160a01b03821660009081526101fa602052604081205481906040516370a0823160e01b81523060048201526001600160a01b038616906370a0823190602401602060405180830381865afa158015611c86573d6000803e3d6000fd5b505050506040513d601f19601f82011682018060405250810190611caa919061490d565b611cb4919061472c565b6001600160a01b0380861660009081526101fb6020908152604080832093881683529290522054909150611ceb9084908390612a7b565b949350505050565b611cfc3361108a565b611d185760405162461bcd60e51b8152600401610e279061465f565b60ff909116600090815261015e6020526040902055565b6060611d3a82611f2e565b611d5757604051630a14c4b560e41b815260040160405180910390fd5b610cfb82612b3e565b60ff8416600090815261012d60205260408120611d7f90858585612b77565b95945050505050565b611d913361108a565b611dad5760405162461bcd60e51b8152600401610e279061465f565b610259805460ff191660ff92909216919091179055565b6000611dce611f0a565b6001600160a01b039384166000908152600791909101602090815260408083209490951682529290925250205460ff1690565b611e09612505565b6001600160a01b038116611e6e5760405162461bcd60e51b815260206004820152602660248201527f4f776e61626c653a206e6577206f776e657220697320746865207a65726f206160448201526564647265737360d01b6064820152608401610e27565b61145b8161255f565b60606101608054610d1990614625565b60006001600160e01b0319821663152a902d60e11b1480610cfb57506301ffc9a760e01b6001600160e01b0319831614610cfb565b60006301ffc9a760e01b6001600160e01b031983161480611eed57506380ac58cd60e01b6001600160e01b03198316145b80610cfb5750506001600160e01b031916635b5e139f60e01b1490565b7f2569078dfb4b0305704d3008e7403993ae9601b85f7ae5e742de3de8f8011c4090565b600081600111158015611f485750611f44611f0a565b5482105b8015610cfb5750600160e01b611f5c611f0a565b60008481526004919091016020526040902054161592915050565b6daaeb6d7670e522a718067333cd4e3b1561145b57604051633185c44d60e21b81523060048201526001600160a01b03821660248201526daaeb6d7670e522a718067333cd4e9063c617113490604401602060405180830381865afa158015611fe4573d6000803e3d6000fd5b505050506040513d601f19601f820116820180604052508101906120089190614926565b61145b57604051633b79c77360e21b81526001600160a01b0382166004820152602401610e27565b600061203b8261149a565b9050336001600160a01b03821614612074576120578133611dc4565b612074576040516367d9dca160e11b815260040160405180910390fd5b8261207d611f0a565b6000848152600691909101602052604080822080546001600160a01b0319166001600160a01b0394851617905551849286811692908516917f8c5be1e5ebec7d5bd14f71427d1e84f3dd0314c0f7b2291e5b200ac8c7c3b9259190a4505050565b8047101561212e5760405162461bcd60e51b815260206004820152601d60248201527f416464726573733a20696e73756666696369656e742062616c616e63650000006044820152606401610e27565b6000826001600160a01b03168260405160006040518083038185875af1925050503d806000811461217b576040519150601f19603f3d011682016040523d82523d6000602084013e612180565b606091505b5050905080610dfd5760405162461bcd60e51b815260206004820152603a60248201527f416464726573733a20756e61626c6520746f2073656e642076616c75652c207260448201527f6563697069656e74206d617920686176652072657665727465640000000000006064820152608401610e27565b600061220282612471565b9050836001600160a01b0316816001600160a01b0316146122355760405162a1148160e81b815260040160405180910390fd5b60008061224184612c22565b9150915061226681876122513390565b6001600160a01b039081169116811491141790565b612291576122748633611dc4565b61229157604051632ce44b5f60e11b815260040160405180910390fd5b6001600160a01b0385166122b857604051633a954ecd60e21b815260040160405180910390fd5b80156122c357600082555b6122cb611f0a565b6001600160a01b03871660009081526005919091016020526040902080546000190190556122f7611f0a565b6001600160a01b03861660008181526005929092016020526040909120805460010190554260a01b17600160e11b1761232e611f0a565b60008681526004919091016020526040812091909155600160e11b841690036123a4576001840161235d611f0a565b6000828152600491909101602052604081205490036123a25761237e611f0a565b5481146123a2578361238e611f0a565b600083815260049190910160205260409020555b505b83856001600160a01b0316876001600160a01b03167fddf252ad1be2c89b69c2b068fc378daa952ba7f163c4a11628f55a4df523b3ef60405160405180910390a4611b64565b6111f8828260405180602001604052806000815250612c4a565b610dfd83838360405180602001604052806000815250611b6c565b604080516001600160a01b038416602482015260448082018490528251808303909101815260649091019091526020810180516001600160e01b031663a9059cbb60e01b179052610dfd908490612cc0565b600081806001116124ec57612484611f0a565b548110156124ec576000612496611f0a565b600083815260049190910160205260408120549150600160e01b821690036124ea575b8060000361151f576124c9611f0a565b600019909201600081815260049390930160205260409092205490506124b9565b505b604051636f96cda160e11b815260040160405180910390fd5b6033546001600160a01b031633146115ca5760405162461bcd60e51b815260206004820181905260248201527f4f776e61626c653a2063616c6c6572206973206e6f7420746865206f776e65726044820152606401610e27565b603380546001600160a01b038381166001600160a01b0319831681179093556040519116919082907f8be0079c531659141344cd1fd0a4f28419497f9722a3daafe3b4186f6b6457e090600090a35050565b600054610100900460ff16158080156125d15750600054600160ff909116105b806125eb5750303b1580156125eb575060005460ff166001145b6126075760405162461bcd60e51b8152600401610e27906148bf565b6000805460ff19166001179055801561262a576000805461ff0019166101001790555b600080516020614bc283398151915254610100900460ff1661265f57600080516020614bc28339815191525460ff1615612663565b303b155b6126d55760405162461bcd60e51b815260206004820152603760248201527f455243373231415f5f496e697469616c697a61626c653a20636f6e747261637460448201527f20697320616c726561647920696e697469616c697a65640000000000000000006064820152608401610e27565b600080516020614bc283398151915254610100900460ff1615801561271157600080516020614bc2833981519152805461ffff19166101011790555b60a083015180516020909101516127289190612d95565b612730612dd3565b612738612e19565b612740612e48565b6127518360a0015160400151612e8b565b612759612eb2565b612761612eb2565b612769612eb2565b6127838360a00151606001518460a0015160800151612ed9565b61279583600001518460200151612f1b565b6127b5836040015184606001516bffffffffffffffffffffffff16612f54565b60005b836080015151811015612853576000846080015182815181106127dd576127dd61473f565b6020026020010151905060008260016127f69190614943565b602083015190915015612811576128118183602001516114a5565b81511561282657612826818360000151611cf3565b60408201511561283e5761283e81836040015161145e565b5050808061284b90614755565b9150506127b8565b50801561287357600080516020614bc2833981519152805461ff00191690555b5080156111f8576000805461ff0019169055604051600181527f7f26b83ff96e1f2b6a682f133852f6798a09c465da95921460cefb384740249890602001610f58565b604080516080810182526000808252602082018190529181018290526060810191909152610cfb6128e5611f0a565b60008481526004919091016020526040902054612f7b565b61271081111561294f5760405162461bcd60e51b815260206004820152601c60248201527f526f79616c746965733a2076616c756520697320746f6f2068696768000000006044820152606401610e27565b6040805180820182526001600160a01b03841680825262ffffff8416602092830181905261019180546001600160b81b0319168317600160a01b90920291909117905582519081529081018390527f908669f35f6fb3977a956ba70597841fe541d1e8491ca3c025161e258d3bfdb69101610f58565b60006129cf611f0a565b54919050565b336001600160a01b038316036129fe5760405163b06307db60e01b815260040160405180910390fd5b80612a07611f0a565b336000818152600792909201602090815260408084206001600160a01b03881680865290835293819020805460ff19169515159590951790945592518415158152919290917f17307eab39ab6107e8899845ad3d59bd9653f200f220920489ca2b5937696c31910160405180910390a35050565b6101f5546001600160a01b03841660009081526101f7602052604081205490918391612aa7908661476e565b612ab19190614785565b611ceb91906147a7565b6111f88282612fc2565b612ad0848484611015565b6001600160a01b0383163b1561100f57612aec8484848461305b565b61100f576040516368d2bf6b60e11b815260040160405180910390fd5b604080516080810182526000808252602082018190529181018290526060810191909152610cfb612b3983612471565b612f7b565b606061015f612b4c83613143565b610160604051602001612b61939291906149cf565b6040516020818303038152906040529050919050565b6040516bffffffffffffffffffffffff19606085901b1660208201526000908190603401604051602081830303815290604052805190602001209050612bf384848080602002602001604051908101604052809392919081815260200183836020028082843760009201919091525050895491508490506131d5565b80612c1857506001600160a01b038516600090815260018701602052604090205460ff165b9695505050505050565b6000806000612c2f611f0a565b60009485526006016020525050604090912080549092909150565b612c5483836131eb565b6001600160a01b0383163b15610dfd576000612c6e611f0a565b5490508281035b612c88600086838060010194508661305b565b612ca5576040516368d2bf6b60e11b815260040160405180910390fd5b818110612c755781612cb5611f0a565b5414611b9257600080fd5b6000612d15826040518060400160405280602081526020017f5361666545524332303a206c6f772d6c6576656c2063616c6c206661696c6564815250856001600160a01b03166133269092919063ffffffff16565b9050805160001480612d36575080806020019051810190612d369190614926565b610dfd5760405162461bcd60e51b815260206004820152602a60248201527f5361666545524332303a204552433230206f7065726174696f6e20646964206e6044820152691bdd081cdd58d8d9595960b21b6064820152608401610e27565b600080516020614bc283398151915254610100900460ff16612dc95760405162461bcd60e51b8152600401610e27906149f7565b6111f88282613335565b600054610100900460ff16612dfa5760405162461bcd60e51b8152600401610e2790614a4b565b6115ca733cc6cdda760b79bafa08df41ecfa224f810dceb660016133a8565b600054610100900460ff16612e405760405162461bcd60e51b8152600401610e2790614a4b565b6115ca613547565b600054610100900460ff16612e6f5760405162461bcd60e51b8152600401610e2790614a4b565b336000908152609760205260409020805460ff19166001179055565b600054610100900460ff1661154b5760405162461bcd60e51b8152600401610e2790614a4b565b600054610100900460ff166115ca5760405162461bcd60e51b8152600401610e2790614a4b565b600054610100900460ff16612f005760405162461bcd60e51b8152600401610e2790614a4b565b61015f612f0d8382614a96565b50610160610dfd8282614a96565b600054610100900460ff16612f425760405162461bcd60e51b8152600401610e2790614a4b565b612f4c8282613577565b505161022755565b600054610100900460ff1661188d5760405162461bcd60e51b8152600401610e2790614a4b565b604080516080810182526001600160a01b038316815260a083901c6001600160401b03166020820152600160e01b831615159181019190915260e89190911c606082015290565b8060c95481612fcf6135a8565b612fd9919061472c565b11156130185760405162461bcd60e51b815260206004820152600e60248201526d4578636565647320737570706c7960901b6044820152606401610e27565b3233146130515760405162461bcd60e51b81526020600482015260076024820152664e6f20626f747360c81b6044820152606401610e27565b610dfd83836123ea565b604051630a85bd0160e11b81526000906001600160a01b0385169063150b7a0290613090903390899088908890600401614b55565b6020604051808303816000875af19250505080156130cb575060408051601f3d908101601f191682019092526130c891810190614b88565b60015b613129573d8080156130f9576040519150601f19603f3d011682016040523d82523d6000602084013e6130fe565b606091505b508051600003613121576040516368d2bf6b60e11b815260040160405180910390fd5b805181602001fd5b6001600160e01b031916630a85bd0160e11b149050611ceb565b60606000613150836135b7565b60010190506000816001600160401b0381111561316f5761316f613fb6565b6040519080825280601f01601f191660200182016040528015613199576020820181803683370190505b5090508181016020015b600019016f181899199a1a9b1b9c1cb0b131b232b360811b600a86061a8153600a85049450846131a357509392505050565b6000826131e2858461368f565b14949350505050565b60006131f5611f0a565b549050600082900361321a5760405163b562e8dd60e01b815260040160405180910390fd5b68010000000000000001820261322e611f0a565b6001600160a01b038516600081815260059290920160205260409091208054929092019091554260a01b6001841460e11b1717613269611f0a565b600083815260049190910160205260408120919091556001600160a01b0384169083830190839083907fddf252ad1be2c89b69c2b068fc378daa952ba7f163c4a11628f55a4df523b3ef8180a4600183015b8181146132f357808360007fddf252ad1be2c89b69c2b068fc378daa952ba7f163c4a11628f55a4df523b3ef600080a46001016132bb565b508160000361331457604051622e076360e81b815260040160405180910390fd5b8061331d611f0a565b5550610dfd9050565b6060611ceb84846000856136dc565b600080516020614bc283398151915254610100900460ff166133695760405162461bcd60e51b8152600401610e27906149f7565b81613372611f0a565b600201906133809082614a96565b508061338a611f0a565b600301906133989082614a96565b5060016133a3611f0a565b555050565b600054610100900460ff166133cf5760405162461bcd60e51b8152600401610e2790614a4b565b6daaeb6d7670e522a718067333cd4e3b156111f85760405163c3c5a54760e01b81523060048201526daaeb6d7670e522a718067333cd4e9063c3c5a547906024016020604051808303816000875af115801561342f573d6000803e3d6000fd5b505050506040513d601f19601f820116820180604052508101906134539190614926565b6111f85780156134c757604051633e9f1edf60e11b81523060048201526001600160a01b03831660248201526daaeb6d7670e522a718067333cd4e90637d3e3dbe906044015b600060405180830381600087803b1580156134b357600080fd5b505af1158015611b64573d6000803e3d6000fd5b6001600160a01b038216156135165760405163a0af290360e01b81523060048201526001600160a01b03831660248201526daaeb6d7670e522a718067333cd4e9063a0af290390604401613499565b604051632210724360e11b81523060048201526daaeb6d7670e522a718067333cd4e90634420e48690602401613499565b600054610100900460ff1661356e5760405162461bcd60e51b8152600401610e2790614a4b565b6115ca3361255f565b600054610100900460ff1661359e5760405162461bcd60e51b8152600401610e2790614a4b565b6111f882826137b7565b60006135b2610e59565b905090565b60008072184f03e93ff9f4daa797ed6e38ed64bf6a1f0160401b83106135f65772184f03e93ff9f4daa797ed6e38ed64bf6a1f0160401b830492506040015b6d04ee2d6d415b85acef81000000008310613622576d04ee2d6d415b85acef8100000000830492506020015b662386f26fc10000831061364057662386f26fc10000830492506010015b6305f5e1008310613658576305f5e100830492506008015b612710831061366c57612710830492506004015b6064831061367e576064830492506002015b600a8310610cfb5760010192915050565b600081815b84518110156136d4576136c0828683815181106136b3576136b361473f565b60200260200101516138f5565b9150806136cc81614755565b915050613694565b509392505050565b60608247101561373d5760405162461bcd60e51b815260206004820152602660248201527f416464726573733a20696e73756666696369656e742062616c616e636520666f6044820152651c8818d85b1b60d21b6064820152608401610e27565b600080866001600160a01b031685876040516137599190614ba5565b60006040518083038185875af1925050503d8060008114613796576040519150601f19603f3d011682016040523d82523d6000602084013e61379b565b606091505b50915091506137ac87838387613924565b979650505050505050565b600054610100900460ff166137de5760405162461bcd60e51b8152600401610e2790614a4b565b805182511461384a5760405162461bcd60e51b815260206004820152603260248201527f5061796d656e7453706c69747465723a2070617965657320616e6420736861726044820152710cae640d8cadccee8d040dad2e6dac2e8c6d60731b6064820152608401610e27565b600082511161389b5760405162461bcd60e51b815260206004820152601a60248201527f5061796d656e7453706c69747465723a206e6f207061796565730000000000006044820152606401610e27565b60005b8251811015610dfd576138e38382815181106138bc576138bc61473f565b60200260200101518383815181106138d6576138d661473f565b602002602001015161399d565b806138ed81614755565b91505061389e565b600081831061391157600082815260208490526040902061151f565b600083815260208390526040902061151f565b6060831561399357825160000361398c576001600160a01b0385163b61398c5760405162461bcd60e51b815260206004820152601d60248201527f416464726573733a2063616c6c20746f206e6f6e2d636f6e74726163740000006044820152606401610e27565b5081611ceb565b611ceb8383613b81565b6001600160a01b038216613a085760405162461bcd60e51b815260206004820152602c60248201527f5061796d656e7453706c69747465723a206163636f756e74206973207468652060448201526b7a65726f206164647265737360a01b6064820152608401610e27565b60008111613a585760405162461bcd60e51b815260206004820152601d60248201527f5061796d656e7453706c69747465723a207368617265732061726520300000006044820152606401610e27565b6001600160a01b03821660009081526101f7602052604090205415613ad35760405162461bcd60e51b815260206004820152602b60248201527f5061796d656e7453706c69747465723a206163636f756e7420616c726561647960448201526a206861732073686172657360a81b6064820152608401610e27565b6101f98054600181019091557f29eba5f30ca2030a69ed2d7f74871c83bbc526b071320256f127653c7dfff4e90180546001600160a01b0319166001600160a01b03841690811790915560009081526101f7602052604090208190556101f554613b3e90829061472c565b6101f555604080516001600160a01b0384168152602081018390527f40c340f65e17194d14ddddb073d3c9f888e3cb52b5aae0c6c7706b4fbc905fac9101610f58565b815115613b915781518083602001fd5b8060405162461bcd60e51b8152600401610e279190613c2e565b6001600160e01b03198116811461145b57600080fd5b600060208284031215613bd357600080fd5b813561151f81613bab565b60005b83811015613bf9578181015183820152602001613be1565b50506000910152565b60008151808452613c1a816020860160208601613bde565b601f01601f19169290920160200192915050565b60208152600061151f6020830184613c02565b600060208284031215613c5357600080fd5b5035919050565b6001600160a01b038116811461145b57600080fd5b8035613c7a81613c5a565b919050565b60008060408385031215613c9257600080fd5b8235613c9d81613c5a565b946020939093013593505050565b600060208284031215613cbd57600080fd5b813561151f81613c5a565b803560ff81168114613c7a57600080fd5b60008083601f840112613ceb57600080fd5b5081356001600160401b03811115613d0257600080fd5b6020830191508360208260051b8501011115613d1d57600080fd5b9250929050565b600080600060408486031215613d3957600080fd5b613d4284613cc8565b925060208401356001600160401b03811115613d5d57600080fd5b613d6986828701613cd9565b9497909650939450505050565b600080600060608486031215613d8b57600080fd5b8335613d9681613c5a565b92506020840135613da681613c5a565b929592945050506040919091013590565b801515811461145b57600080fd5b60008060408385031215613dd857600080fd5b8235613de381613c5a565b91506020830135613df381613db7565b809150509250929050565b60008060408385031215613e1157600080fd5b50508035926020909101359150565b60008060408385031215613e3357600080fd5b8235613e3e81613c5a565b91506020830135613df381613c5a565b60008060208385031215613e6157600080fd5b82356001600160401b03811115613e7757600080fd5b613e8385828601613cd9565b90969095509350505050565b80516001600160a01b031682526020808201516001600160401b03169083015260408082015115159083015260609081015162ffffff16910152565b6020808252825182820181905260009190848201906040850190845b818110156117f857613efa838551613e8f565b9284019260809290920191600101613ee7565b60008060408385031215613f2057600080fd5b613c9d83613cc8565b60008060408385031215613f3c57600080fd5b613e3e83613cc8565b60008060208385031215613f5857600080fd5b82356001600160401b0380821115613f6f57600080fd5b818501915085601f830112613f8357600080fd5b813581811115613f9257600080fd5b866020828501011115613fa457600080fd5b60209290920196919550909350505050565b634e487b7160e01b600052604160045260246000fd5b604051606081016001600160401b0381118282101715613fee57613fee613fb6565b60405290565b60405160a081016001600160401b0381118282101715613fee57613fee613fb6565b60405160c081016001600160401b0381118282101715613fee57613fee613fb6565b604051601f8201601f191681016001600160401b038111828210171561406057614060613fb6565b604052919050565b60006001600160401b0382111561408157614081613fb6565b5060051b60200190565b600082601f83011261409c57600080fd5b813560206140b16140ac83614068565b614038565b82815260059290921b840181019181810190868411156140d057600080fd5b8286015b848110156140f45780356140e781613c5a565b83529183019183016140d4565b509695505050505050565b600082601f83011261411057600080fd5b813560206141206140ac83614068565b82815260059290921b8401810191818101908684111561413f57600080fd5b8286015b848110156140f45780358352918301918301614143565b80356bffffffffffffffffffffffff81168114613c7a57600080fd5b600082601f83011261418757600080fd5b813560206141976140ac83614068565b828152606092830285018201928282019190878511156141b657600080fd5b8387015b858110156141fd5781818a0312156141d25760008081fd5b6141da613fcc565b8135815285820135868201526040808301359082015284529284019281016141ba565b5090979650505050505050565b60006001600160401b0383111561422357614223613fb6565b614236601f8401601f1916602001614038565b905082815283838301111561424a57600080fd5b828260208301376000602084830101529392505050565b600082601f83011261427257600080fd5b61151f8383356020850161420a565b600060a0828403121561429357600080fd5b61429b613ff4565b905081356001600160401b03808211156142b457600080fd5b6142c085838601614261565b835260208401359150808211156142d657600080fd5b6142e285838601614261565b602084015260408401356040840152606084013591508082111561430557600080fd5b61431185838601614261565b6060840152608084013591508082111561432a57600080fd5b5061433784828501614261565b60808301525092915050565b6000806040838503121561435657600080fd5b82356001600160401b038082111561436d57600080fd5b9084019060c0828703121561438157600080fd5b614389614016565b82358281111561439857600080fd5b6143a48882860161408b565b8252506020830135828111156143b957600080fd5b6143c5888286016140ff565b6020830152506143d760408401613c6f565b60408201526143e86060840161415a565b60608201526080830135828111156143ff57600080fd5b61440b88828601614176565b60808301525060a08301358281111561442357600080fd5b61442f88828601614281565b60a083015250935061444691505060208401613c6f565b90509250929050565b6020808252825182820181905260009190848201906040850190845b818110156117f85783518352928401929184019160010161446b565b60008060006060848603121561449c57600080fd5b83356144a781613c5a565b95602085013595506040909401359392505050565b600080600080604085870312156144d257600080fd5b84356001600160401b03808211156144e957600080fd5b6144f588838901613cd9565b9096509450602087013591508082111561450e57600080fd5b5061451b87828801613cd9565b95989497509550505050565b60006020828403121561453957600080fd5b61151f82613cc8565b6000806000806080858703121561455857600080fd5b843561456381613c5a565b9350602085013561457381613c5a565b92506040850135915060608501356001600160401b0381111561459557600080fd5b8501601f810187136145a657600080fd5b6145b58782356020840161420a565b91505092959194509250565b60808101610cfb8284613e8f565b600080600080606085870312156145e557600080fd5b6145ee85613cc8565b935060208501356145fe81613c5a565b925060408501356001600160401b0381111561461957600080fd5b61451b87828801613cd9565b600181811c9082168061463957607f821691505b60208210810361465957634e487b7160e01b600052602260045260246000fd5b50919050565b6020808252600c908201526b2737ba1030b71030b236b4b760a11b604082015260600190565b60208082526026908201527f5061796d656e7453706c69747465723a206163636f756e7420686173206e6f2060408201526573686172657360d01b606082015260800190565b6020808252602b908201527f5061796d656e7453706c69747465723a206163636f756e74206973206e6f742060408201526a191d59481c185e5b595b9d60aa1b606082015260800190565b634e487b7160e01b600052601160045260246000fd5b80820180821115610cfb57610cfb614716565b634e487b7160e01b600052603260045260246000fd5b60006001820161476757614767614716565b5060010190565b8082028115828204841417610cfb57610cfb614716565b6000826147a257634e487b7160e01b600052601260045260246000fd5b500490565b81810381811115610cfb57610cfb614716565b601f821115610dfd57600081815260208120601f850160051c810160208610156147e15750805b601f850160051c820191505b81811015611b64578281556001016147ed565b6001600160401b0383111561481757614817613fb6565b61482b836148258354614625565b836147ba565b6000601f84116001811461485f57600085156148475750838201355b600019600387901b1c1916600186901b178355611b92565b600083815260209020601f19861690835b828110156148905786850135825560209485019460019092019101614870565b50868210156148ad5760001960f88860031b161c19848701351681555b505060018560011b0183555050505050565b6020808252602e908201527f496e697469616c697a61626c653a20636f6e747261637420697320616c72656160408201526d191e481a5b9a5d1a585b1a5e995960921b606082015260800190565b60006020828403121561491f57600080fd5b5051919050565b60006020828403121561493857600080fd5b815161151f81613db7565b60ff8181168382160190811115610cfb57610cfb614716565b6000815461496981614625565b600182811680156149815760018114614996576149c5565b60ff19841687528215158302870194506149c5565b8560005260208060002060005b858110156149bc5781548a8201529084019082016149a3565b50505082870194505b5050505092915050565b60006149db828661495c565b84516149eb818360208901613bde565b6137ac8183018661495c565b60208082526034908201527f455243373231415f5f496e697469616c697a61626c653a20636f6e7472616374604082015273206973206e6f7420696e697469616c697a696e6760601b606082015260800190565b6020808252602b908201527f496e697469616c697a61626c653a20636f6e7472616374206973206e6f74206960408201526a6e697469616c697a696e6760a81b606082015260800190565b81516001600160401b03811115614aaf57614aaf613fb6565b614ac381614abd8454614625565b846147ba565b602080601f831160018114614af85760008415614ae05750858301515b600019600386901b1c1916600185901b178555611b64565b600085815260208120601f198616915b82811015614b2757888601518255948401946001909101908401614b08565b5085821015614b455787850151600019600388901b60f8161c191681555b5050505050600190811b01905550565b6001600160a01b0385811682528416602082015260408101839052608060608201819052600090612c1890830184613c02565b600060208284031215614b9a57600080fd5b815161151f81613bab565b60008251614bb7818460208701613bde565b919091019291505056feee151c8401928dc223602bb187aff91b9a56c7cae5476ef1b3287b085a16c85fa2646970667358221220d460b9c9838b05c55f90403a95882d5361753f17f4b70f2ea2d45f5360eec8a464736f6c63430008110033",
  "linkReferences": {},
  "deployedLinkReferences": {}
}