{
  "_format": "hh-sol-artifact-1",
  "contractName": "WhitelistUpgradable",
  "sourceName": "@chocolate-factory/contracts/whitelist/WhitelistUpgradable.sol",
  "abi": [
    {
      "anonymous": false,
      "inputs": [
        {
          "indexed": false,
          "internalType": "uint8",
          "name": "version",
          "type": "uint8"
        }
      ],
      "name": "Initialized",
      "type": "event"
    },
    {
      "inputs": [
        {
          "internalType": "uint8",
          "name": "stageId_",
          "type": "uint8"
        },
        {
          "internalType": "address[]",
          "name": "accounts_",
          "type": "address[]"
        }
      ],
      "name": "addToWhitelist",
      "outputs": [],
      "stateMutability": "nonpayable",
      "type": "function"
    },
    {
      "inputs": [
        {
          "internalType": "address",
          "name": "account_",
          "type": "address"
        }
      ],
      "name": "isAdmin",
      "outputs": [
        {
          "internalType": "bool",
          "name": "",
          "type": "bool"
        }
      ],
      "stateMutability": "view",
      "type": "function"
    },
    {
      "inputs": [
        {
          "internalType": "uint8",
          "name": "stageId_",
          "type": "uint8"
        },
        {
          "internalType": "address",
          "name": "account_",
          "type": "address"
        },
        {
          "internalType": "bytes32[]",
          "name": "proof_",
          "type": "bytes32[]"
        }
      ],
      "name": "isWhitelisted",
      "outputs": [
        {
          "internalType": "bool",
          "name": "",
          "type": "bool"
        }
      ],
      "stateMutability": "view",
      "type": "function"
    },
    {
      "inputs": [
        {
          "internalType": "uint8",
          "name": "stageId_",
          "type": "uint8"
        }
      ],
      "name": "merkleTreeRoot",
      "outputs": [
        {
          "internalType": "bytes32",
          "name": "",
          "type": "bytes32"
        }
      ],
      "stateMutability": "view",
      "type": "function"
    },
    {
      "inputs": [
        {
          "internalType": "uint8",
          "name": "stageId_",
          "type": "uint8"
        },
        {
          "internalType": "address[]",
          "name": "accounts_",
          "type": "address[]"
        }
      ],
      "name": "removeFromWhitelist",
      "outputs": [],
      "stateMutability": "nonpayable",
      "type": "function"
    },
    {
      "inputs": [
        {
          "internalType": "address",
          "name": "account_",
          "type": "address"
        },
        {
          "internalType": "bool",
          "name": "enable_",
          "type": "bool"
        }
      ],
      "name": "setAdminPermissions",
      "outputs": [],
      "stateMutability": "nonpayable",
      "type": "function"
    },
    {
      "inputs": [
        {
          "internalType": "uint8",
          "name": "stageId_",
          "type": "uint8"
        },
        {
          "internalType": "bytes32",
          "name": "merkleTreeRoot_",
          "type": "bytes32"
        }
      ],
      "name": "updateMerkleTreeRoot",
      "outputs": [],
      "stateMutability": "nonpayable",
      "type": "function"
    }
  ],
  "bytecode": "0x608060405234801561001057600080fd5b50610707806100206000396000f3fe608060405234801561001057600080fd5b506004361061007d5760003560e01c80632f59f7411161005b5780632f59f741146100d25780635ee54e23146100e5578063ad0127f0146100f8578063cb3afdb61461012957600080fd5b806321a588de14610082578063240ff27f1461009757806324d7806c146100aa575b600080fd5b610095610090366004610507565b61013c565b005b6100956100a5366004610571565b6101f5565b6100bd6100b83660046105ad565b610245565b60405190151581526020015b60405180910390f35b6100956100e0366004610507565b610263565b6100956100f33660046105c8565b610303565b61011b6101063660046105f2565b60ff1660009081526033602052604090205490565b6040519081526020016100c9565b6100bd61013736600461060d565b61033e565b61014533610245565b61016a5760405162461bcd60e51b81526004016101619061066e565b60405180910390fd5b60005b818110156101ef5760ff84166000908152603360205260408120600191908201908585858181106101a0576101a0610694565b90506020020160208101906101b591906105ad565b6001600160a01b031681526020810191909152604001600020805460ff1916911515919091179055806101e7816106aa565b91505061016d565b50505050565b6101fe33610245565b61021a5760405162461bcd60e51b81526004016101619061066e565b6001600160a01b03919091166000908152600160205260409020805460ff1916911515919091179055565b6001600160a01b031660009081526001602052604090205460ff1690565b61026c33610245565b6102885760405162461bcd60e51b81526004016101619061066e565b60005b818110156101ef5760ff84166000908152603360205260408120600101908484848181106102bb576102bb610694565b90506020020160208101906102d091906105ad565b6001600160a01b031681526020810191909152604001600020805460ff19169055806102fb816106aa565b91505061028b565b61030c33610245565b6103285760405162461bcd60e51b81526004016101619061066e565b60ff909116600090815260336020526040902055565b60ff8416600090815260336020526040812061035c90858585610365565b95945050505050565b6040516bffffffffffffffffffffffff19606085901b16602082015260009081906034016040516020818303038152906040528051906020012090506103e18484808060200260200160405190810160405280939291908181526020018383602002808284376000920191909152505089549150849050610410565b8061040657506001600160a01b038516600090815260018701602052604090205460ff165b9695505050505050565b60008261041d8584610426565b14949350505050565b600081815b845181101561046b576104578286838151811061044a5761044a610694565b6020026020010151610473565b915080610463816106aa565b91505061042b565b509392505050565b600081831061048f57600082815260208490526040902061049e565b60008381526020839052604090205b9392505050565b803560ff811681146104b657600080fd5b919050565b60008083601f8401126104cd57600080fd5b50813567ffffffffffffffff8111156104e557600080fd5b6020830191508360208260051b850101111561050057600080fd5b9250929050565b60008060006040848603121561051c57600080fd5b610525846104a5565b9250602084013567ffffffffffffffff81111561054157600080fd5b61054d868287016104bb565b9497909650939450505050565b80356001600160a01b03811681146104b657600080fd5b6000806040838503121561058457600080fd5b61058d8361055a565b9150602083013580151581146105a257600080fd5b809150509250929050565b6000602082840312156105bf57600080fd5b61049e8261055a565b600080604083850312156105db57600080fd5b6105e4836104a5565b946020939093013593505050565b60006020828403121561060457600080fd5b61049e826104a5565b6000806000806060858703121561062357600080fd5b61062c856104a5565b935061063a6020860161055a565b9250604085013567ffffffffffffffff81111561065657600080fd5b610662878288016104bb565b95989497509550505050565b6020808252600c908201526b2737ba1030b71030b236b4b760a11b604082015260600190565b634e487b7160e01b600052603260045260246000fd5b6000600182016106ca57634e487b7160e01b600052601160045260246000fd5b506001019056fea2646970667358221220f35fbb9b235ecdc9c663fc656afc8674652a1207bbb58c30fa893157adb28ebb64736f6c63430008110033",
  "linkReferences": {},
  "deployedLinkReferences": {}
}