{
  "_format": "hh-sol-artifact-1",
  "contractName": "BalanceLimit",
  "sourceName": "@chocolate-factory/contracts/balance-limit/BalanceLimit.sol",
  "abi": [
    {
      "inputs": [
        {
          "internalType": "uint8",
          "name": "stageId_",
          "type": "uint8"
        }
      ],
      "name": "balanceLimit",
      "outputs": [
        {
          "internalType": "uint256",
          "name": "",
          "type": "uint256"
        }
      ],
      "stateMutability": "view",
      "type": "function"
    },
    {
      "inputs": [
        {
          "internalType": "uint8",
          "name": "stageId_",
          "type": "uint8"
        },
        {
          "internalType": "address",
          "name": "account_",
          "type": "address"
        }
      ],
      "name": "currentBalance",
      "outputs": [
        {
          "internalType": "uint256",
          "name": "",
          "type": "uint256"
        }
      ],
      "stateMutability": "view",
      "type": "function"
    },
    {
      "inputs": [
        {
          "internalType": "address",
          "name": "account_",
          "type": "address"
        }
      ],
      "name": "isAdmin",
      "outputs": [
        {
          "internalType": "bool",
          "name": "",
          "type": "bool"
        }
      ],
      "stateMutability": "view",
      "type": "function"
    },
    {
      "inputs": [
        {
          "internalType": "uint8",
          "name": "stageId_",
          "type": "uint8"
        },
        {
          "internalType": "address",
          "name": "account_",
          "type": "address"
        }
      ],
      "name": "remainingBalance",
      "outputs": [
        {
          "internalType": "uint256",
          "name": "",
          "type": "uint256"
        }
      ],
      "stateMutability": "view",
      "type": "function"
    },
    {
      "inputs": [
        {
          "internalType": "address",
          "name": "account_",
          "type": "address"
        },
        {
          "internalType": "bool",
          "name": "enable_",
          "type": "bool"
        }
      ],
      "name": "setAdminPermissions",
      "outputs": [],
      "stateMutability": "nonpayable",
      "type": "function"
    },
    {
      "inputs": [
        {
          "internalType": "uint8",
          "name": "stageId_",
          "type": "uint8"
        },
        {
          "internalType": "uint256",
          "name": "limit_",
          "type": "uint256"
        }
      ],
      "name": "updateBalanceLimit",
      "outputs": [],
      "stateMutability": "nonpayable",
      "type": "function"
    }
  ],
  "bytecode": "0x608060405234801561001057600080fd5b50336000908152602081905260408082208054600160ff19918216811790925530845291832080549092161790556103cb90819061004e90396000f3fe608060405234801561001057600080fd5b50600436106100625760003560e01c8063240ff27f1461006757806324d7806c1461007c5780636dba1163146100bd578063b1ba72d6146100de578063c519cd1c14610101578063e4ab4bb914610114575b600080fd5b61007a610075366004610294565b610151565b005b6100a861008a3660046102d0565b6001600160a01b031660009081526020819052604090205460ff1690565b60405190151581526020015b60405180910390f35b6100d06100cb3660046102fc565b6101cf565b6040519081526020016100b4565b6100d06100ec36600461032f565b60ff1660009081526001602052604090205490565b61007a61010f36600461034a565b610214565b6100d06101223660046102fc565b60ff821660009081526001602081815260408084206001600160a01b0386168552909201905290205492915050565b3360009081526020819052604090205460ff166101a45760405162461bcd60e51b815260206004820152600c60248201526b2737ba1030b71030b236b4b760a11b60448201526064015b60405180910390fd5b6001600160a01b03919091166000908152602081905260409020805460ff1916911515919091179055565b60ff821660008181526001602081815260408084206001600160a01b038716855280840183529084205494845291905254909161020b91610374565b90505b92915050565b3360009081526020819052604090205460ff166102625760405162461bcd60e51b815260206004820152600c60248201526b2737ba1030b71030b236b4b760a11b604482015260640161019b565b60ff909116600090815260016020526040902055565b80356001600160a01b038116811461028f57600080fd5b919050565b600080604083850312156102a757600080fd5b6102b083610278565b9150602083013580151581146102c557600080fd5b809150509250929050565b6000602082840312156102e257600080fd5b61020b82610278565b803560ff8116811461028f57600080fd5b6000806040838503121561030f57600080fd5b610318836102eb565b915061032660208401610278565b90509250929050565b60006020828403121561034157600080fd5b61020b826102eb565b6000806040838503121561035d57600080fd5b610366836102eb565b946020939093013593505050565b8181038181111561020e57634e487b7160e01b600052601160045260246000fdfea2646970667358221220438501b3eb414d9e2370d7b90beebe2e0f7dfac93b10e7fcb58e47bee4cce26264736f6c63430008110033",
  "linkReferences": {},
  "deployedLinkReferences": {}
}