{
  "_format": "hh-sol-artifact-1",
  "contractName": "TwoStage",
  "sourceName": "@chocolate-factory/contracts/token/ERC721/presets/TwoStage.sol",
  "abi": [
    {
      "inputs": [],
      "name": "ApprovalCallerNotOwnerNorApproved",
      "type": "error"
    },
    {
      "inputs": [],
      "name": "ApprovalQueryForNonexistentToken",
      "type": "error"
    },
    {
      "inputs": [],
      "name": "ApproveToCaller",
      "type": "error"
    },
    {
      "inputs": [],
      "name": "BalanceQueryForZeroAddress",
      "type": "error"
    },
    {
      "inputs": [],
      "name": "InvalidQueryRange",
      "type": "error"
    },
    {
      "inputs": [],
      "name": "MintERC2309QuantityExceedsLimit",
      "type": "error"
    },
    {
      "inputs": [],
      "name": "MintToZeroAddress",
      "type": "error"
    },
    {
      "inputs": [],
      "name": "MintZeroQuantity",
      "type": "error"
    },
    {
      "inputs": [
        {
          "internalType": "address",
          "name": "operator",
          "type": "address"
        }
      ],
      "name": "OperatorNotAllowed",
      "type": "error"
    },
    {
      "inputs": [],
      "name": "OwnerQueryForNonexistentToken",
      "type": "error"
    },
    {
      "inputs": [],
      "name": "OwnershipNotInitializedForExtraData",
      "type": "error"
    },
    {
      "inputs": [],
      "name": "TransferCallerNotOwnerNorApproved",
      "type": "error"
    },
    {
      "inputs": [],
      "name": "TransferFromIncorrectOwner",
      "type": "error"
    },
    {
      "inputs": [],
      "name": "TransferToNonERC721ReceiverImplementer",
      "type": "error"
    },
    {
      "inputs": [],
      "name": "TransferToZeroAddress",
      "type": "error"
    },
    {
      "inputs": [],
      "name": "URIQueryForNonexistentToken",
      "type": "error"
    },
    {
      "anonymous": false,
      "inputs": [
        {
          "indexed": true,
          "internalType": "address",
          "name": "owner",
          "type": "address"
        },
        {
          "indexed": true,
          "internalType": "address",
          "name": "approved",
          "type": "address"
        },
        {
          "indexed": true,
          "internalType": "uint256",
          "name": "tokenId",
          "type": "uint256"
        }
      ],
      "name": "Approval",
      "type": "event"
    },
    {
      "anonymous": false,
      "inputs": [
        {
          "indexed": true,
          "internalType": "address",
          "name": "owner",
          "type": "address"
        },
        {
          "indexed": true,
          "internalType": "address",
          "name": "operator",
          "type": "address"
        },
        {
          "indexed": false,
          "internalType": "bool",
          "name": "approved",
          "type": "bool"
        }
      ],
      "name": "ApprovalForAll",
      "type": "event"
    },
    {
      "anonymous": false,
      "inputs": [
        {
          "indexed": true,
          "internalType": "uint256",
          "name": "fromTokenId",
          "type": "uint256"
        },
        {
          "indexed": false,
          "internalType": "uint256",
          "name": "toTokenId",
          "type": "uint256"
        },
        {
          "indexed": true,
          "internalType": "address",
          "name": "from",
          "type": "address"
        },
        {
          "indexed": true,
          "internalType": "address",
          "name": "to",
          "type": "address"
        }
      ],
      "name": "ConsecutiveTransfer",
      "type": "event"
    },
    {
      "anonymous": false,
      "inputs": [
        {
          "indexed": true,
          "internalType": "contract IERC20Upgradeable",
          "name": "token",
          "type": "address"
        },
        {
          "indexed": false,
          "internalType": "address",
          "name": "to",
          "type": "address"
        },
        {
          "indexed": false,
          "internalType": "uint256",
          "name": "amount",
          "type": "uint256"
        }
      ],
      "name": "ERC20PaymentReleased",
      "type": "event"
    },
    {
      "anonymous": false,
      "inputs": [
        {
          "indexed": false,
          "internalType": "uint8",
          "name": "version",
          "type": "uint8"
        }
      ],
      "name": "Initialized",
      "type": "event"
    },
    {
      "anonymous": false,
      "inputs": [
        {
          "indexed": true,
          "internalType": "address",
          "name": "previousOwner",
          "type": "address"
        },
        {
          "indexed": true,
          "internalType": "address",
          "name": "newOwner",
          "type": "address"
        }
      ],
      "name": "OwnershipTransferred",
      "type": "event"
    },
    {
      "anonymous": false,
      "inputs": [
        {
          "indexed": false,
          "internalType": "address",
          "name": "account",
          "type": "address"
        },
        {
          "indexed": false,
          "internalType": "uint256",
          "name": "shares",
          "type": "uint256"
        }
      ],
      "name": "PayeeAdded",
      "type": "event"
    },
    {
      "anonymous": false,
      "inputs": [
        {
          "indexed": false,
          "internalType": "address",
          "name": "from",
          "type": "address"
        },
        {
          "indexed": false,
          "internalType": "uint256",
          "name": "amount",
          "type": "uint256"
        }
      ],
      "name": "PaymentReceived",
      "type": "event"
    },
    {
      "anonymous": false,
      "inputs": [
        {
          "indexed": false,
          "internalType": "address",
          "name": "to",
          "type": "address"
        },
        {
          "indexed": false,
          "internalType": "uint256",
          "name": "amount",
          "type": "uint256"
        }
      ],
      "name": "PaymentReleased",
      "type": "event"
    },
    {
      "anonymous": false,
      "inputs": [
        {
          "indexed": false,
          "internalType": "address",
          "name": "recipient",
          "type": "address"
        },
        {
          "indexed": false,
          "internalType": "uint256",
          "name": "amount",
          "type": "uint256"
        }
      ],
      "name": "RoyaltiesSet",
      "type": "event"
    },
    {
      "anonymous": false,
      "inputs": [
        {
          "indexed": true,
          "internalType": "address",
          "name": "from",
          "type": "address"
        },
        {
          "indexed": true,
          "internalType": "address",
          "name": "to",
          "type": "address"
        },
        {
          "indexed": true,
          "internalType": "uint256",
          "name": "tokenId",
          "type": "uint256"
        }
      ],
      "name": "Transfer",
      "type": "event"
    },
    {
      "inputs": [
        {
          "internalType": "uint8",
          "name": "stageId_",
          "type": "uint8"
        },
        {
          "internalType": "address[]",
          "name": "accounts_",
          "type": "address[]"
        }
      ],
      "name": "addToWhitelist",
      "outputs": [],
      "stateMutability": "nonpayable",
      "type": "function"
    },
    {
      "inputs": [
        {
          "internalType": "address[]",
          "name": "accounts_",
          "type": "address[]"
        },
        {
          "internalType": "uint256[]",
          "name": "amounts_",
          "type": "uint256[]"
        }
      ],
      "name": "adminMint",
      "outputs": [],
      "stateMutability": "nonpayable",
      "type": "function"
    },
    {
      "inputs": [
        {
          "internalType": "address",
          "name": "operator",
          "type": "address"
        },
        {
          "internalType": "uint256",
          "name": "tokenId",
          "type": "uint256"
        }
      ],
      "name": "approve",
      "outputs": [],
      "stateMutability": "nonpayable",
      "type": "function"
    },
    {
      "inputs": [
        {
          "internalType": "uint8",
          "name": "stageId_",
          "type": "uint8"
        }
      ],
      "name": "balanceLimit",
      "outputs": [
        {
          "internalType": "uint256",
          "name": "",
          "type": "uint256"
        }
      ],
      "stateMutability": "view",
      "type": "function"
    },
    {
      "inputs": [
        {
          "internalType": "address",
          "name": "owner",
          "type": "address"
        }
      ],
      "name": "balanceOf",
      "outputs": [
        {
          "internalType": "uint256",
          "name": "",
          "type": "uint256"
        }
      ],
      "stateMutability": "view",
      "type": "function"
    },
    {
      "inputs": [
        {
          "internalType": "uint8",
          "name": "stageId_",
          "type": "uint8"
        },
        {
          "internalType": "address",
          "name": "account_",
          "type": "address"
        }
      ],
      "name": "currentBalance",
      "outputs": [
        {
          "internalType": "uint256",
          "name": "",
          "type": "uint256"
        }
      ],
      "stateMutability": "view",
      "type": "function"
    },
    {
      "inputs": [
        {
          "internalType": "uint256",
          "name": "tokenId",
          "type": "uint256"
        }
      ],
      "name": "explicitOwnershipOf",
      "outputs": [
        {
          "components": [
            {
              "internalType": "address",
              "name": "addr",
              "type": "address"
            },
            {
              "internalType": "uint64",
              "name": "startTimestamp",
              "type": "uint64"
            },
            {
              "internalType": "bool",
              "name": "burned",
              "type": "bool"
            },
            {
              "internalType": "uint24",
              "name": "extraData",
              "type": "uint24"
            }
          ],
          "internalType": "struct IERC721AUpgradeable.TokenOwnership",
          "name": "",
          "type": "tuple"
        }
      ],
      "stateMutability": "view",
      "type": "function"
    },
    {
      "inputs": [
        {
          "internalType": "uint256[]",
          "name": "tokenIds",
          "type": "uint256[]"
        }
      ],
      "name": "explicitOwnershipsOf",
      "outputs": [
        {
          "components": [
            {
              "internalType": "address",
              "name": "addr",
              "type": "address"
            },
            {
              "internalType": "uint64",
              "name": "startTimestamp",
              "type": "uint64"
            },
            {
              "internalType": "bool",
              "name": "burned",
              "type": "bool"
            },
            {
              "internalType": "uint24",
              "name": "extraData",
              "type": "uint24"
            }
          ],
          "internalType": "struct IERC721AUpgradeable.TokenOwnership[]",
          "name": "",
          "type": "tuple[]"
        }
      ],
      "stateMutability": "view",
      "type": "function"
    },
    {
      "inputs": [
        {
          "internalType": "uint256",
          "name": "tokenId",
          "type": "uint256"
        }
      ],
      "name": "getApproved",
      "outputs": [
        {
          "internalType": "address",
          "name": "",
          "type": "address"
        }
      ],
      "stateMutability": "view",
      "type": "function"
    },
    {
      "inputs": [
        {
          "internalType": "address",
          "name": "account_",
          "type": "address"
        }
      ],
      "name": "isAdmin",
      "outputs": [
        {
          "internalType": "bool",
          "name": "",
          "type": "bool"
        }
      ],
      "stateMutability": "view",
      "type": "function"
    },
    {
      "inputs": [
        {
          "internalType": "address",
          "name": "owner",
          "type": "address"
        },
        {
          "internalType": "address",
          "name": "operator",
          "type": "address"
        }
      ],
      "name": "isApprovedForAll",
      "outputs": [
        {
          "internalType": "bool",
          "name": "",
          "type": "bool"
        }
      ],
      "stateMutability": "view",
      "type": "function"
    },
    {
      "inputs": [
        {
          "internalType": "uint8",
          "name": "stageId_",
          "type": "uint8"
        },
        {
          "internalType": "address",
          "name": "account_",
          "type": "address"
        },
        {
          "internalType": "bytes32[]",
          "name": "proof_",
          "type": "bytes32[]"
        }
      ],
      "name": "isWhitelisted",
      "outputs": [
        {
          "internalType": "bool",
          "name": "",
          "type": "bool"
        }
      ],
      "stateMutability": "view",
      "type": "function"
    },
    {
      "inputs": [],
      "name": "maxSupply",
      "outputs": [
        {
          "internalType": "uint256",
          "name": "",
          "type": "uint256"
        }
      ],
      "stateMutability": "view",
      "type": "function"
    },
    {
      "inputs": [
        {
          "internalType": "uint8",
          "name": "stageId_",
          "type": "uint8"
        }
      ],
      "name": "merkleTreeRoot",
      "outputs": [
        {
          "internalType": "bytes32",
          "name": "",
          "type": "bytes32"
        }
      ],
      "stateMutability": "view",
      "type": "function"
    },
    {
      "inputs": [],
      "name": "name",
      "outputs": [
        {
          "internalType": "string",
          "name": "",
          "type": "string"
        }
      ],
      "stateMutability": "view",
      "type": "function"
    },
    {
      "inputs": [],
      "name": "owner",
      "outputs": [
        {
          "internalType": "address",
          "name": "",
          "type": "address"
        }
      ],
      "stateMutability": "view",
      "type": "function"
    },
    {
      "inputs": [
        {
          "internalType": "uint256",
          "name": "tokenId",
          "type": "uint256"
        }
      ],
      "name": "ownerOf",
      "outputs": [
        {
          "internalType": "address",
          "name": "",
          "type": "address"
        }
      ],
      "stateMutability": "view",
      "type": "function"
    },
    {
      "inputs": [
        {
          "internalType": "uint256",
          "name": "index",
          "type": "uint256"
        }
      ],
      "name": "payee",
      "outputs": [
        {
          "internalType": "address",
          "name": "",
          "type": "address"
        }
      ],
      "stateMutability": "view",
      "type": "function"
    },
    {
      "inputs": [],
      "name": "payeesLength",
      "outputs": [
        {
          "internalType": "uint256",
          "name": "",
          "type": "uint256"
        }
      ],
      "stateMutability": "view",
      "type": "function"
    },
    {
      "inputs": [],
      "name": "prefix",
      "outputs": [
        {
          "internalType": "string",
          "name": "",
          "type": "string"
        }
      ],
      "stateMutability": "view",
      "type": "function"
    },
    {
      "inputs": [
        {
          "internalType": "uint8",
          "name": "stage_",
          "type": "uint8"
        }
      ],
      "name": "price",
      "outputs": [
        {
          "internalType": "uint256",
          "name": "",
          "type": "uint256"
        }
      ],
      "stateMutability": "view",
      "type": "function"
    },
    {
      "inputs": [
        {
          "internalType": "uint256",
          "name": "amount_",
          "type": "uint256"
        }
      ],
      "name": "publicMint",
      "outputs": [],
      "stateMutability": "payable",
      "type": "function"
    },
    {
      "inputs": [
        {
          "internalType": "address",
          "name": "account",
          "type": "address"
        }
      ],
      "name": "releasable",
      "outputs": [
        {
          "internalType": "uint256",
          "name": "",
          "type": "uint256"
        }
      ],
      "stateMutability": "view",
      "type": "function"
    },
    {
      "inputs": [
        {
          "internalType": "contract IERC20Upgradeable",
          "name": "token",
          "type": "address"
        },
        {
          "internalType": "address",
          "name": "account",
          "type": "address"
        }
      ],
      "name": "releasable",
      "outputs": [
        {
          "internalType": "uint256",
          "name": "",
          "type": "uint256"
        }
      ],
      "stateMutability": "view",
      "type": "function"
    },
    {
      "inputs": [
        {
          "internalType": "address payable",
          "name": "account",
          "type": "address"
        }
      ],
      "name": "release",
      "outputs": [],
      "stateMutability": "nonpayable",
      "type": "function"
    },
    {
      "inputs": [
        {
          "internalType": "contract IERC20Upgradeable",
          "name": "token",
          "type": "address"
        },
        {
          "internalType": "address",
          "name": "account",
          "type": "address"
        }
      ],
      "name": "release",
      "outputs": [],
      "stateMutability": "nonpayable",
      "type": "function"
    },
    {
      "inputs": [
        {
          "internalType": "contract IERC20Upgradeable",
          "name": "token",
          "type": "address"
        }
      ],
      "name": "releaseAll",
      "outputs": [],
      "stateMutability": "nonpayable",
      "type": "function"
    },
    {
      "inputs": [],
      "name": "releaseAll",
      "outputs": [],
      "stateMutability": "nonpayable",
      "type": "function"
    },
    {
      "inputs": [
        {
          "internalType": "contract IERC20Upgradeable",
          "name": "token",
          "type": "address"
        },
        {
          "internalType": "address",
          "name": "account",
          "type": "address"
        }
      ],
      "name": "released",
      "outputs": [
        {
          "internalType": "uint256",
          "name": "",
          "type": "uint256"
        }
      ],
      "stateMutability": "view",
      "type": "function"
    },
    {
      "inputs": [
        {
          "internalType": "address",
          "name": "account",
          "type": "address"
        }
      ],
      "name": "released",
      "outputs": [
        {
          "internalType": "uint256",
          "name": "",
          "type": "uint256"
        }
      ],
      "stateMutability": "view",
      "type": "function"
    },
    {
      "inputs": [
        {
          "internalType": "uint8",
          "name": "stageId_",
          "type": "uint8"
        },
        {
          "internalType": "address",
          "name": "account_",
          "type": "address"
        }
      ],
      "name": "remainingBalance",
      "outputs": [
        {
          "internalType": "uint256",
          "name": "",
          "type": "uint256"
        }
      ],
      "stateMutability": "view",
      "type": "function"
    },
    {
      "inputs": [
        {
          "internalType": "uint8",
          "name": "stageId_",
          "type": "uint8"
        },
        {
          "internalType": "address[]",
          "name": "accounts_",
          "type": "address[]"
        }
      ],
      "name": "removeFromWhitelist",
      "outputs": [],
      "stateMutability": "nonpayable",
      "type": "function"
    },
    {
      "inputs": [],
      "name": "renounceOwnership",
      "outputs": [],
      "stateMutability": "nonpayable",
      "type": "function"
    },
    {
      "inputs": [
        {
          "internalType": "uint256",
          "name": "",
          "type": "uint256"
        },
        {
          "internalType": "uint256",
          "name": "value_",
          "type": "uint256"
        }
      ],
      "name": "royaltyInfo",
      "outputs": [
        {
          "internalType": "address",
          "name": "receiver",
          "type": "address"
        },
        {
          "internalType": "uint256",
          "name": "royaltyAmount",
          "type": "uint256"
        }
      ],
      "stateMutability": "view",
      "type": "function"
    },
    {
      "inputs": [
        {
          "internalType": "address",
          "name": "from",
          "type": "address"
        },
        {
          "internalType": "address",
          "name": "to",
          "type": "address"
        },
        {
          "internalType": "uint256",
          "name": "tokenId",
          "type": "uint256"
        }
      ],
      "name": "safeTransferFrom",
      "outputs": [],
      "stateMutability": "nonpayable",
      "type": "function"
    },
    {
      "inputs": [
        {
          "internalType": "address",
          "name": "from",
          "type": "address"
        },
        {
          "internalType": "address",
          "name": "to",
          "type": "address"
        },
        {
          "internalType": "uint256",
          "name": "tokenId",
          "type": "uint256"
        },
        {
          "internalType": "bytes",
          "name": "data",
          "type": "bytes"
        }
      ],
      "name": "safeTransferFrom",
      "outputs": [],
      "stateMutability": "nonpayable",
      "type": "function"
    },
    {
      "inputs": [
        {
          "internalType": "address",
          "name": "account_",
          "type": "address"
        },
        {
          "internalType": "bool",
          "name": "enable_",
          "type": "bool"
        }
      ],
      "name": "setAdminPermissions",
      "outputs": [],
      "stateMutability": "nonpayable",
      "type": "function"
    },
    {
      "inputs": [
        {
          "internalType": "address",
          "name": "operator",
          "type": "address"
        },
        {
          "internalType": "bool",
          "name": "approved",
          "type": "bool"
        }
      ],
      "name": "setApprovalForAll",
      "outputs": [],
      "stateMutability": "nonpayable",
      "type": "function"
    },
    {
      "inputs": [
        {
          "internalType": "uint256",
          "name": "maxSupply_",
          "type": "uint256"
        }
      ],
      "name": "setMaxSupply",
      "outputs": [],
      "stateMutability": "nonpayable",
      "type": "function"
    },
    {
      "inputs": [
        {
          "internalType": "string",
          "name": "prefix_",
          "type": "string"
        }
      ],
      "name": "setPrefix",
      "outputs": [],
      "stateMutability": "nonpayable",
      "type": "function"
    },
    {
      "inputs": [
        {
          "internalType": "uint8",
          "name": "stage_",
          "type": "uint8"
        },
        {
          "internalType": "uint256",
          "name": "value_",
          "type": "uint256"
        }
      ],
      "name": "setPrice",
      "outputs": [],
      "stateMutability": "nonpayable",
      "type": "function"
    },
    {
      "inputs": [
        {
          "internalType": "address",
          "name": "recipient_",
          "type": "address"
        },
        {
          "internalType": "uint256",
          "name": "amount_",
          "type": "uint256"
        }
      ],
      "name": "setRoyalties",
      "outputs": [],
      "stateMutability": "nonpayable",
      "type": "function"
    },
    {
      "inputs": [
        {
          "internalType": "enum TwoStage.Stage",
          "name": "stage_",
          "type": "uint8"
        }
      ],
      "name": "setStage",
      "outputs": [],
      "stateMutability": "nonpayable",
      "type": "function"
    },
    {
      "inputs": [
        {
          "internalType": "string",
          "name": "suffix_",
          "type": "string"
        }
      ],
      "name": "setSuffix",
      "outputs": [],
      "stateMutability": "nonpayable",
      "type": "function"
    },
    {
      "inputs": [
        {
          "internalType": "address",
          "name": "account",
          "type": "address"
        }
      ],
      "name": "shares",
      "outputs": [
        {
          "internalType": "uint256",
          "name": "",
          "type": "uint256"
        }
      ],
      "stateMutability": "view",
      "type": "function"
    },
    {
      "inputs": [],
      "name": "stage",
      "outputs": [
        {
          "internalType": "enum TwoStage.Stage",
          "name": "",
          "type": "uint8"
        }
      ],
      "stateMutability": "view",
      "type": "function"
    },
    {
      "inputs": [],
      "name": "suffix",
      "outputs": [
        {
          "internalType": "string",
          "name": "",
          "type": "string"
        }
      ],
      "stateMutability": "view",
      "type": "function"
    },
    {
      "inputs": [
        {
          "internalType": "bytes4",
          "name": "interfaceId",
          "type": "bytes4"
        }
      ],
      "name": "supportsInterface",
      "outputs": [
        {
          "internalType": "bool",
          "name": "",
          "type": "bool"
        }
      ],
      "stateMutability": "view",
      "type": "function"
    },
    {
      "inputs": [],
      "name": "symbol",
      "outputs": [
        {
          "internalType": "string",
          "name": "",
          "type": "string"
        }
      ],
      "stateMutability": "view",
      "type": "function"
    },
    {
      "inputs": [
        {
          "internalType": "uint256",
          "name": "tokenId",
          "type": "uint256"
        }
      ],
      "name": "tokenURI",
      "outputs": [
        {
          "internalType": "string",
          "name": "",
          "type": "string"
        }
      ],
      "stateMutability": "view",
      "type": "function"
    },
    {
      "inputs": [
        {
          "internalType": "address",
          "name": "owner",
          "type": "address"
        }
      ],
      "name": "tokensOfOwner",
      "outputs": [
        {
          "internalType": "uint256[]",
          "name": "",
          "type": "uint256[]"
        }
      ],
      "stateMutability": "view",
      "type": "function"
    },
    {
      "inputs": [
        {
          "internalType": "address",
          "name": "owner",
          "type": "address"
        },
        {
          "internalType": "uint256",
          "name": "start",
          "type": "uint256"
        },
        {
          "internalType": "uint256",
          "name": "stop",
          "type": "uint256"
        }
      ],
      "name": "tokensOfOwnerIn",
      "outputs": [
        {
          "internalType": "uint256[]",
          "name": "",
          "type": "uint256[]"
        }
      ],
      "stateMutability": "view",
      "type": "function"
    },
    {
      "inputs": [
        {
          "internalType": "contract IERC20Upgradeable",
          "name": "token",
          "type": "address"
        }
      ],
      "name": "totalReleased",
      "outputs": [
        {
          "internalType": "uint256",
          "name": "",
          "type": "uint256"
        }
      ],
      "stateMutability": "view",
      "type": "function"
    },
    {
      "inputs": [],
      "name": "totalReleased",
      "outputs": [
        {
          "internalType": "uint256",
          "name": "",
          "type": "uint256"
        }
      ],
      "stateMutability": "view",
      "type": "function"
    },
    {
      "inputs": [],
      "name": "totalShares",
      "outputs": [
        {
          "internalType": "uint256",
          "name": "",
          "type": "uint256"
        }
      ],
      "stateMutability": "view",
      "type": "function"
    },
    {
      "inputs": [],
      "name": "totalSupply",
      "outputs": [
        {
          "internalType": "uint256",
          "name": "",
          "type": "uint256"
        }
      ],
      "stateMutability": "view",
      "type": "function"
    },
    {
      "inputs": [
        {
          "internalType": "address",
          "name": "from",
          "type": "address"
        },
        {
          "internalType": "address",
          "name": "to",
          "type": "address"
        },
        {
          "internalType": "uint256",
          "name": "tokenId",
          "type": "uint256"
        }
      ],
      "name": "transferFrom",
      "outputs": [],
      "stateMutability": "nonpayable",
      "type": "function"
    },
    {
      "inputs": [
        {
          "internalType": "address",
          "name": "newOwner",
          "type": "address"
        }
      ],
      "name": "transferOwnership",
      "outputs": [],
      "stateMutability": "nonpayable",
      "type": "function"
    },
    {
      "inputs": [
        {
          "internalType": "uint8",
          "name": "stageId_",
          "type": "uint8"
        },
        {
          "internalType": "uint256",
          "name": "limit_",
          "type": "uint256"
        }
      ],
      "name": "updateBalanceLimit",
      "outputs": [],
      "stateMutability": "nonpayable",
      "type": "function"
    },
    {
      "inputs": [
        {
          "internalType": "uint8",
          "name": "stageId_",
          "type": "uint8"
        },
        {
          "internalType": "bytes32",
          "name": "merkleTreeRoot_",
          "type": "bytes32"
        }
      ],
      "name": "updateMerkleTreeRoot",
      "outputs": [],
      "stateMutability": "nonpayable",
      "type": "function"
    },
    {
      "inputs": [
        {
          "internalType": "uint256",
          "name": "amount_",
          "type": "uint256"
        },
        {
          "internalType": "bytes32[]",
          "name": "proof_",
          "type": "bytes32[]"
        }
      ],
      "name": "whitelistMint",
      "outputs": [],
      "stateMutability": "payable",
      "type": "function"
    },
    {
      "stateMutability": "payable",
      "type": "receive"
    }
  ],
  "bytecode": "0x608060405234801561001057600080fd5b50613cbf806100206000396000f3fe6080604052600436106103a65760003560e01c806385cb593b116101e7578063c23dc68f1161010d578063d5abeb01116100a0578063e919ecad1161006f578063e919ecad14610bfa578063e985e9c514610c11578063f2fde38b14610c31578063f7073c3a14610c5157600080fd5b8063d5abeb0114610b4c578063d79779b214610b61578063e33b7de314610b98578063e4ab4bb914610bae57600080fd5b8063cb3afdb6116100dc578063cb3afdb614610ac2578063ce3cd99714610ae2578063ce7c2ac214610b02578063d2cab05614610b3957600080fd5b8063c23dc68f14610a35578063c45ac05014610a62578063c519cd1c14610a82578063c87b56dd14610aa257600080fd5b8063a22cb46511610185578063b1ba72d611610154578063b1ba72d61461098b578063b7fafcd7146109bc578063b88d4fde146109ed578063c040e6b814610a0d57600080fd5b8063a22cb465146108fa578063a3f8eace1461091a578063a49340cc1461093a578063ad0127f01461095a57600080fd5b80638da5cb5b116101c15780638da5cb5b1461087057806395d89b411461088e5780639852595c146108a357806399a2557a146108da57600080fd5b806385cb593b146108105780638b83209b146108305780638c7ea24b1461085057600080fd5b806342842e0e116102cc5780636a00670b1161026a578063715018a611610239578063715018a61461079957806375d5ae9f146107ae57806375dadb32146107ce5780638462151c146107e357600080fd5b80636a00670b146107195780636dba1163146107395780636f8b44b01461075957806370a082311461077957600080fd5b80635bbb2177116102a65780635bbb2177146106975780635be7fde8146106c45780635ee54e23146106d95780636352211e146106f957600080fd5b806342842e0e1461063757806348b7504414610657578063580fc80a1461067757600080fd5b806323b872dd116103445780632db11544116103135780632db11544146105a75780632f59f741146105ba5780633a98ef39146105da578063406072a9146105f057600080fd5b806323b872dd14610508578063240ff27f1461052857806324d7806c146105485780632a55205a1461056857600080fd5b8063095ea7b311610380578063095ea7b31461048357806318160ddd146104a557806319165587146104c857806321a588de146104e857600080fd5b806301ffc9a7146103f457806306fdde0314610429578063081812fc1461044b57600080fd5b366103ef577f6ef95f06320e7a25a04a175ca677b7052bdd97131872c2192525a629f51be77033604080516001600160a01b0390921682523460208301520160405180910390a1005b600080fd5b34801561040057600080fd5b5061041461040f3660046131eb565b610c66565b60405190151581526020015b60405180910390f35b34801561043557600080fd5b5061043e610c86565b6040516104209190613258565b34801561045757600080fd5b5061046b61046636600461326b565b610d21565b6040516001600160a01b039091168152602001610420565b34801561048f57600080fd5b506104a361049e366004613299565b610d6e565b005b3480156104b157600080fd5b506104ba610d87565b604051908152602001610420565b3480156104d457600080fd5b506104a36104e33660046132c5565b610da6565b3480156104f457600080fd5b506104a3610503366004613343565b610e9a565b34801561051457600080fd5b506104a3610523366004613395565b610f4b565b34801561053457600080fd5b506104a36105433660046133e4565b610f70565b34801561055457600080fd5b506104146105633660046132c5565b610fc0565b34801561057457600080fd5b5061058861058336600461341d565b610fde565b604080516001600160a01b039093168352602083019190915201610420565b6104a36105b536600461326b565b611034565b3480156105c657600080fd5b506104a36105d5366004613343565b6110e2565b3480156105e657600080fd5b506101f5546104ba565b3480156105fc57600080fd5b506104ba61060b36600461343f565b6001600160a01b0391821660009081526101fb6020908152604080832093909416825291909152205490565b34801561064357600080fd5b506104a3610652366004613395565b611183565b34801561066357600080fd5b506104a361067236600461343f565b6111a8565b34801561068357600080fd5b506104a36106923660046132c5565b6112bc565b3480156106a357600080fd5b506106b76106b236600461346d565b6112ea565b60405161042091906134ea565b3480156106d057600080fd5b506104a36113b5565b3480156106e557600080fd5b506104a36106f436600461352c565b6113e5565b34801561070557600080fd5b5061046b61071436600461326b565b611421565b34801561072557600080fd5b506104a361073436600461352c565b61142c565b34801561074557600080fd5b506104ba610754366004613548565b611468565b34801561076557600080fd5b506104a361077436600461326b565b6114ad565b34801561078557600080fd5b506104ba6107943660046132c5565b6114d7565b3480156107a557600080fd5b506104a361153f565b3480156107ba57600080fd5b506104a36107c9366004613564565b611553565b3480156107da57600080fd5b5061043e611586565b3480156107ef57600080fd5b506108036107fe3660046132c5565b611596565b60405161042091906135d5565b34801561081c57600080fd5b506104a361082b366004613564565b61169e565b34801561083c57600080fd5b5061046b61084b36600461326b565b6116d1565b34801561085c57600080fd5b506104a361086b366004613299565b611702565b34801561087c57600080fd5b506033546001600160a01b031661046b565b34801561089a57600080fd5b5061043e611731565b3480156108af57600080fd5b506104ba6108be3660046132c5565b6001600160a01b031660009081526101f8602052604090205490565b3480156108e657600080fd5b506108036108f536600461360d565b611749565b34801561090657600080fd5b506104a36109153660046133e4565b6118bf565b34801561092657600080fd5b506104ba6109353660046132c5565b6118d3565b34801561094657600080fd5b506104a3610955366004613642565b611916565b34801561096657600080fd5b506104ba6109753660046136ad565b60ff16600090815261012d602052604090205490565b34801561099757600080fd5b506104ba6109a63660046136ad565b60ff16600090815261015e602052604090205490565b3480156109c857600080fd5b506104ba6109d73660046136ad565b60ff1660009081526101c3602052604090205490565b3480156109f957600080fd5b506104a3610a083660046136de565b6119f8565b348015610a1957600080fd5b5061025954610a289060ff1681565b60405161042091906137d3565b348015610a4157600080fd5b50610a55610a5036600461326b565b611a25565b60405161042091906137fb565b348015610a6e57600080fd5b506104ba610a7d36600461343f565b611aa1565b348015610a8e57600080fd5b506104a3610a9d36600461352c565b611b6e565b348015610aae57600080fd5b5061043e610abd36600461326b565b611baa565b348015610ace57600080fd5b50610414610add366004613809565b611bdb565b348015610aee57600080fd5b506104a3610afd36600461385f565b611c03565b348015610b0e57600080fd5b506104ba610b1d3660046132c5565b6001600160a01b031660009081526101f7602052604090205490565b6104a3610b47366004613880565b611c50565b348015610b5857600080fd5b5060c9546104ba565b348015610b6d57600080fd5b506104ba610b7c3660046132c5565b6001600160a01b031660009081526101fa602052604090205490565b348015610ba457600080fd5b506101f6546104ba565b348015610bba57600080fd5b506104ba610bc9366004613548565b60ff8216600090815261015e602090815260408083206001600160a01b038516845260010190915290205492915050565b348015610c0657600080fd5b506104ba6102275481565b348015610c1d57600080fd5b50610414610c2c36600461343f565b611d4e565b348015610c3d57600080fd5b506104a3610c4c3660046132c5565b611d8b565b348015610c5d57600080fd5b5061043e611e01565b6000610c7182611e11565b80610c805750610c8082611e46565b92915050565b6060610c90611e94565b6002018054610c9e906138b2565b80601f0160208091040260200160405190810160405280929190818152602001828054610cca906138b2565b8015610d175780601f10610cec57610100808354040283529160200191610d17565b820191906000526020600020905b815481529060010190602001808311610cfa57829003601f168201915b5050505050905090565b6000610d2c82611eb8565b610d49576040516333d1c03960e21b815260040160405180910390fd5b610d51611e94565b60009283526006016020525060409020546001600160a01b031690565b81610d7881611ef4565b610d828383611fad565b505050565b600080610d92611e94565b60010154610d9e611e94565b540303919050565b6001600160a01b03811660009081526101f76020526040902054610de55760405162461bcd60e51b8152600401610ddc906138ec565b60405180910390fd5b6000610df0826118d3565b905080600003610e125760405162461bcd60e51b8152600401610ddc90613932565b806101f66000828254610e259190613993565b90915550506001600160a01b03821660009081526101f860205260409020805482019055610e53828261205b565b604080516001600160a01b0384168152602081018390527fdf20fd1e76bc69d672e4814fafb2c449bba3a5369d8359adf9e05e6fde87b05691015b60405180910390a15050565b610ea333610fc0565b610ebf5760405162461bcd60e51b8152600401610ddc906139a6565b60005b81811015610f455760ff8416600090815261012d6020526040812060019190820190858585818110610ef657610ef66139cc565b9050602002016020810190610f0b91906132c5565b6001600160a01b031681526020810191909152604001600020805460ff191691151591909117905580610f3d816139e2565b915050610ec2565b50505050565b826001600160a01b0381163314610f6557610f6533611ef4565b610f45848484612174565b610f7933610fc0565b610f955760405162461bcd60e51b8152600401610ddc906139a6565b6001600160a01b03919091166000908152609760205260409020805460ff1916911515919091179055565b6001600160a01b031660009081526097602052604090205460ff1690565b60408051808201909152610191546001600160a01b038116808352600160a01b90910462ffffff166020830181905290916000916127109061102090866139fb565b61102a9190613a12565b9150509250929050565b60026102595460ff16600281111561104e5761104e6137bd565b1461109b5760405162461bcd60e51b815260206004820152601760248201527f5075626c69632073616c65206e6f7420656e61626c65640000000000000000006044820152606401610ddc565b60026110a8813384612367565b6110b23383612385565b6110de6110cf8260ff1660009081526101c3602052604090205490565b6110d990846139fb565b61241e565b5050565b6110eb33610fc0565b6111075760405162461bcd60e51b8152600401610ddc906139a6565b60005b81811015610f455760ff8416600090815261012d602052604081206001019084848481811061113b5761113b6139cc565b905060200201602081019061115091906132c5565b6001600160a01b031681526020810191909152604001600020805460ff191690558061117b816139e2565b91505061110a565b826001600160a01b038116331461119d5761119d33611ef4565b610f458484846124a0565b6001600160a01b03811660009081526101f760205260409020546111de5760405162461bcd60e51b8152600401610ddc906138ec565b60006111ea8383611aa1565b90508060000361120c5760405162461bcd60e51b8152600401610ddc90613932565b6001600160a01b03831660009081526101fa602052604081208054839290611235908490613993565b90915550506001600160a01b0380841660009081526101fb602090815260408083209386168352929052208054820190556112718383836124bb565b604080516001600160a01b038481168252602082018490528516917f3be5b7a71e84ed12875d241991c70855ac5817d847039e17a9d895c1ceb0f18a910160405180910390a2505050565b60005b610227548110156110de5760006112d5826116d1565b90506112e183826111a8565b506001016112bf565b6060816000816001600160401b03811115611307576113076136c8565b60405190808252806020026020018201604052801561135957816020015b6040805160808101825260008082526020808301829052928201819052606082015282526000199092019101816113255790505b50905060005b8281146113ac5761138786868381811061137b5761137b6139cc565b90506020020135611a25565b828281518110611399576113996139cc565b602090810291909101015260010161135f565b50949350505050565b60005b610227548110156113e25760006113ce826116d1565b90506113d981610da6565b506001016113b8565b50565b6113ee33610fc0565b61140a5760405162461bcd60e51b8152600401610ddc906139a6565b60ff909116600090815261012d6020526040902055565b6000610c808261250d565b61143533610fc0565b6114515760405162461bcd60e51b8152600401610ddc906139a6565b60ff90911660009081526101c36020526040902055565b60ff8216600081815261015e602081815260408084206001600160a01b0387168552600181018352908420549484529190525490916114a691613a34565b9392505050565b6114b633610fc0565b6114d25760405162461bcd60e51b8152600401610ddc906139a6565b60c955565b60006001600160a01b038216611500576040516323d3ad8160e21b815260040160405180910390fd5b6001600160401b03611510611e94565b6005016000846001600160a01b03166001600160a01b0316815260200190815260200160002054169050919050565b611547612599565b61155160006125f3565b565b61155c33610fc0565b6115785760405162461bcd60e51b8152600401610ddc906139a6565b610160610d82828483613a8d565b606061015f8054610c9e906138b2565b606060008060006115a6856114d7565b90506000816001600160401b038111156115c2576115c26136c8565b6040519080825280602002602001820160405280156115eb578160200160208202803683370190505b50905061161860408051608081018252600080825260208201819052918101829052606081019190915290565b60005b8386146116925761162b81612645565b9150816040015161168a5781516001600160a01b03161561164b57815194505b876001600160a01b0316856001600160a01b03160361168a578083878060010198508151811061167d5761167d6139cc565b6020026020010181815250505b60010161161b565b50909695505050505050565b6116a733610fc0565b6116c35760405162461bcd60e51b8152600401610ddc906139a6565b61015f610d82828483613a8d565b60006101f982815481106116e7576116e76139cc565b6000918252602090912001546001600160a01b031692915050565b61170b33610fc0565b6117275760405162461bcd60e51b8152600401610ddc906139a6565b6110de828261268c565b606061173b611e94565b6003018054610c9e906138b2565b606081831061176b57604051631960ccad60e11b815260040160405180910390fd5b600080611776612754565b905080841115611784578093505b600061178f876114d7565b9050848610156117ae57858503818110156117a8578091505b506117b2565b5060005b6000816001600160401b038111156117cc576117cc6136c8565b6040519080825280602002602001820160405280156117f5578160200160208202803683370190505b5090508160000361180b5793506114a692505050565b600061181688611a25565b905060008160400151611827575080515b885b8881141580156118395750848714155b156118ae5761184781612645565b925082604001516118a65782516001600160a01b03161561186757825191505b8a6001600160a01b0316826001600160a01b0316036118a65780848880600101995081518110611899576118996139cc565b6020026020010181815250505b600101611829565b505050928352509095945050505050565b816118c981611ef4565b610d828383612764565b6000806118e06101f65490565b6118ea9047613993565b90506114a68382611911866001600160a01b031660009081526101f8602052604090205490565b61280a565b61191f33610fc0565b61193b5760405162461bcd60e51b8152600401610ddc906139a6565b8281811461198b5760405162461bcd60e51b815260206004820152601760248201527f41646d696e206d696e743a2062616420726571756573740000000000000000006044820152606401610ddc565b60005b818110156119f0576119de8686838181106119ab576119ab6139cc565b90506020020160208101906119c091906132c5565b8585848181106119d2576119d26139cc565b9050602002013561284a565b806119e8816139e2565b91505061198e565b505050505050565b836001600160a01b0381163314611a1257611a1233611ef4565b611a1e85858585612854565b5050505050565b6040805160808082018352600080835260208084018290528385018290526060808501839052855193840186528284529083018290529382018190529281019290925290611a71612754565b8310611a7d5792915050565b611a8683612645565b9050806040015115611a985792915050565b6114a683612898565b6001600160a01b03821660009081526101fa602052604081205481906040516370a0823160e01b81523060048201526001600160a01b038616906370a0823190602401602060405180830381865afa158015611b01573d6000803e3d6000fd5b505050506040513d601f19601f82011682018060405250810190611b259190613b4c565b611b2f9190613993565b6001600160a01b0380861660009081526101fb6020908152604080832093881683529290522054909150611b66908490839061280a565b949350505050565b611b7733610fc0565b611b935760405162461bcd60e51b8152600401610ddc906139a6565b60ff909116600090815261015e6020526040902055565b6060611bb582611eb8565b611bd257604051630a14c4b560e41b815260040160405180910390fd5b610c80826128cd565b60ff8416600090815261012d60205260408120611bfa90858585612906565b95945050505050565b611c0c33610fc0565b611c285760405162461bcd60e51b8152600401610ddc906139a6565b610259805482919060ff19166001836002811115611c4857611c486137bd565b021790555050565b6001338383611c6184848484611bdb565b611c9f5760405162461bcd60e51b815260206004820152600f60248201526e139bdd081dda1a5d195b1a5cdd1959608a1b6044820152606401610ddc565b60016102595460ff166002811115611cb957611cb96137bd565b14611d065760405162461bcd60e51b815260206004820152601a60248201527f57686974656c6973742073616c65206e6f7420656e61626c65640000000000006044820152606401610ddc565b6001611d1381338a612367565b611d1d3389612385565b611d44611d3a8260ff1660009081526101c3602052604090205490565b6110d9908a6139fb565b5050505050505050565b6000611d58611e94565b6001600160a01b039384166000908152600791909101602090815260408083209490951682529290925250205460ff1690565b611d93612599565b6001600160a01b038116611df85760405162461bcd60e51b815260206004820152602660248201527f4f776e61626c653a206e6577206f776e657220697320746865207a65726f206160448201526564647265737360d01b6064820152608401610ddc565b6113e2816125f3565b60606101608054610c9e906138b2565b60006001600160e01b0319821663152a902d60e11b1480610c8057506301ffc9a760e01b6001600160e01b0319831614610c80565b60006301ffc9a760e01b6001600160e01b031983161480611e7757506380ac58cd60e01b6001600160e01b03198316145b80610c805750506001600160e01b031916635b5e139f60e01b1490565b7f2569078dfb4b0305704d3008e7403993ae9601b85f7ae5e742de3de8f8011c4090565b6000611ec2611e94565b5482108015610c805750600160e01b611ed9611e94565b60008481526004919091016020526040902054161592915050565b6daaeb6d7670e522a718067333cd4e3b156113e257604051633185c44d60e21b81523060048201526001600160a01b03821660248201526daaeb6d7670e522a718067333cd4e9063c617113490604401602060405180830381865afa158015611f61573d6000803e3d6000fd5b505050506040513d601f19601f82011682018060405250810190611f859190613b65565b6113e257604051633b79c77360e21b81526001600160a01b0382166004820152602401610ddc565b6000611fb882611421565b9050336001600160a01b03821614611ff157611fd48133611d4e565b611ff1576040516367d9dca160e11b815260040160405180910390fd5b82611ffa611e94565b6000848152600691909101602052604080822080546001600160a01b0319166001600160a01b0394851617905551849286811692908516917f8c5be1e5ebec7d5bd14f71427d1e84f3dd0314c0f7b2291e5b200ac8c7c3b9259190a4505050565b804710156120ab5760405162461bcd60e51b815260206004820152601d60248201527f416464726573733a20696e73756666696369656e742062616c616e63650000006044820152606401610ddc565b6000826001600160a01b03168260405160006040518083038185875af1925050503d80600081146120f8576040519150601f19603f3d011682016040523d82523d6000602084013e6120fd565b606091505b5050905080610d825760405162461bcd60e51b815260206004820152603a60248201527f416464726573733a20756e61626c6520746f2073656e642076616c75652c207260448201527f6563697069656e74206d617920686176652072657665727465640000000000006064820152608401610ddc565b600061217f8261250d565b9050836001600160a01b0316816001600160a01b0316146121b25760405162a1148160e81b815260040160405180910390fd5b6000806121be846129b1565b915091506121e381876121ce3390565b6001600160a01b039081169116811491141790565b61220e576121f18633611d4e565b61220e57604051632ce44b5f60e11b815260040160405180910390fd5b6001600160a01b03851661223557604051633a954ecd60e21b815260040160405180910390fd5b801561224057600082555b612248611e94565b6001600160a01b0387166000908152600591909101602052604090208054600019019055612274611e94565b6001600160a01b03861660008181526005929092016020526040909120805460010190554260a01b17600160e11b176122ab611e94565b60008681526004919091016020526040812091909155600160e11b8416900361232157600184016122da611e94565b60008281526004919091016020526040812054900361231f576122fb611e94565b54811461231f578361230b611e94565b600083815260049190910160205260409020555b505b83856001600160a01b0316876001600160a01b03167fddf252ad1be2c89b69c2b068fc378daa952ba7f163c4a11628f55a4df523b3ef60405160405180910390a46119f0565b60ff8316600090815261015e60205260409020610d829083836129d9565b8060c95481612392612a73565b61239c9190613993565b11156123db5760405162461bcd60e51b815260206004820152600e60248201526d4578636565647320737570706c7960901b6044820152606401610ddc565b3233146124145760405162461bcd60e51b81526020600482015260076024820152664e6f20626f747360c81b6044820152606401610ddc565b610d828383612a82565b8034101561245f5760405162461bcd60e51b815260206004820152600e60248201526d141c9a58d94e881a5b9d985b1a5960921b6044820152606401610ddc565b600061246b8234613a34565b905080156110de57604051339082156108fc029083906000818181858888f19350505050158015610d82573d6000803e3d6000fd5b610d82838383604051806020016040528060008152506119f8565b604080516001600160a01b038416602482015260448082018490528251808303909101815260649091019091526020810180516001600160e01b031663a9059cbb60e01b179052610d82908490612a9c565b600081612518611e94565b5481101561258057600061252a611e94565b600083815260049190910160205260408120549150600160e01b8216900361257e575b806000036114a65761255d611e94565b6000199092016000818152600493909301602052604090922054905061254d565b505b604051636f96cda160e11b815260040160405180910390fd5b6033546001600160a01b031633146115515760405162461bcd60e51b815260206004820181905260248201527f4f776e61626c653a2063616c6c6572206973206e6f7420746865206f776e65726044820152606401610ddc565b603380546001600160a01b038381166001600160a01b0319831681179093556040519116919082907f8be0079c531659141344cd1fd0a4f28419497f9722a3daafe3b4186f6b6457e090600090a35050565b604080516080810182526000808252602082018190529181018290526060810191909152610c80612674611e94565b60008481526004919091016020526040902054612b71565b6127108111156126de5760405162461bcd60e51b815260206004820152601c60248201527f526f79616c746965733a2076616c756520697320746f6f2068696768000000006044820152606401610ddc565b6040805180820182526001600160a01b03841680825262ffffff8416602092830181905261019180546001600160b81b0319168317600160a01b90920291909117905582519081529081018390527f908669f35f6fb3977a956ba70597841fe541d1e8491ca3c025161e258d3bfdb69101610e8e565b600061275e611e94565b54919050565b336001600160a01b0383160361278d5760405163b06307db60e01b815260040160405180910390fd5b80612796611e94565b336000818152600792909201602090815260408084206001600160a01b03881680865290835293819020805460ff19169515159590951790945592518415158152919290917f17307eab39ab6107e8899845ad3d59bd9653f200f220920489ca2b5937696c31910160405180910390a35050565b6101f5546001600160a01b03841660009081526101f760205260408120549091839161283690866139fb565b6128409190613a12565b611b669190613a34565b6110de8282612385565b61285f848484610f4b565b6001600160a01b0383163b15610f455761287b84848484612bb8565b610f45576040516368d2bf6b60e11b815260040160405180910390fd5b604080516080810182526000808252602082018190529181018290526060810191909152610c806128c88361250d565b612b71565b606061015f6128db83612ca0565b6101606040516020016128f093929190613bf5565b6040516020818303038152906040529050919050565b6040516bffffffffffffffffffffffff19606085901b16602082015260009081906034016040516020818303038152906040528051906020012090506129828484808060200260200160405190810160405280939291908181526020018383602002808284376000920191909152505089549150849050612d32565b806129a757506001600160a01b038516600090815260018701602052604090205460ff165b9695505050505050565b60008060006129be611e94565b60009485526006016020525050604090912080549092909150565b82546001600160a01b0383166000908152600185016020526040902054612a01908390613993565b1115612a3f5760405162461bcd60e51b815260206004820152600d60248201526c115e18d959591cc81b1a5b5a5d609a1b6044820152606401610ddc565b6001600160a01b038216600090815260018401602052604081208054839290612a69908490613993565b9091555050505050565b6000612a7d610d87565b905090565b6110de828260405180602001604052806000815250612d48565b6000612af1826040518060400160405280602081526020017f5361666545524332303a206c6f772d6c6576656c2063616c6c206661696c6564815250856001600160a01b0316612dbe9092919063ffffffff16565b9050805160001480612b12575080806020019051810190612b129190613b65565b610d825760405162461bcd60e51b815260206004820152602a60248201527f5361666545524332303a204552433230206f7065726174696f6e20646964206e6044820152691bdd081cdd58d8d9595960b21b6064820152608401610ddc565b604080516080810182526001600160a01b038316815260a083901c6001600160401b03166020820152600160e01b831615159181019190915260e89190911c606082015290565b604051630a85bd0160e11b81526000906001600160a01b0385169063150b7a0290612bed903390899088908890600401613c1d565b6020604051808303816000875af1925050508015612c28575060408051601f3d908101601f19168201909252612c2591810190613c50565b60015b612c86573d808015612c56576040519150601f19603f3d011682016040523d82523d6000602084013e612c5b565b606091505b508051600003612c7e576040516368d2bf6b60e11b815260040160405180910390fd5b805181602001fd5b6001600160e01b031916630a85bd0160e11b149050611b66565b60606000612cad83612dcd565b60010190506000816001600160401b03811115612ccc57612ccc6136c8565b6040519080825280601f01601f191660200182016040528015612cf6576020820181803683370190505b5090508181016020015b600019016f181899199a1a9b1b9c1cb0b131b232b360811b600a86061a8153600a8504945084612d0057509392505050565b600082612d3f8584612ea5565b14949350505050565b612d528383612ef2565b6001600160a01b0383163b15610d82576000612d6c611e94565b5490508281035b612d866000868380600101945086612bb8565b612da3576040516368d2bf6b60e11b815260040160405180910390fd5b818110612d735781612db3611e94565b5414611a1e57600080fd5b6060611b66848460008561302d565b60008072184f03e93ff9f4daa797ed6e38ed64bf6a1f0160401b8310612e0c5772184f03e93ff9f4daa797ed6e38ed64bf6a1f0160401b830492506040015b6d04ee2d6d415b85acef81000000008310612e38576d04ee2d6d415b85acef8100000000830492506020015b662386f26fc100008310612e5657662386f26fc10000830492506010015b6305f5e1008310612e6e576305f5e100830492506008015b6127108310612e8257612710830492506004015b60648310612e94576064830492506002015b600a8310610c805760010192915050565b600081815b8451811015612eea57612ed682868381518110612ec957612ec96139cc565b6020026020010151613108565b915080612ee2816139e2565b915050612eaa565b509392505050565b6000612efc611e94565b5490506000829003612f215760405163b562e8dd60e01b815260040160405180910390fd5b680100000000000000018202612f35611e94565b6001600160a01b038516600081815260059290920160205260409091208054929092019091554260a01b6001841460e11b1717612f70611e94565b600083815260049190910160205260408120919091556001600160a01b0384169083830190839083907fddf252ad1be2c89b69c2b068fc378daa952ba7f163c4a11628f55a4df523b3ef8180a4600183015b818114612ffa57808360007fddf252ad1be2c89b69c2b068fc378daa952ba7f163c4a11628f55a4df523b3ef600080a4600101612fc2565b508160000361301b57604051622e076360e81b815260040160405180910390fd5b80613024611e94565b5550610d829050565b60608247101561308e5760405162461bcd60e51b815260206004820152602660248201527f416464726573733a20696e73756666696369656e742062616c616e636520666f6044820152651c8818d85b1b60d21b6064820152608401610ddc565b600080866001600160a01b031685876040516130aa9190613c6d565b60006040518083038185875af1925050503d80600081146130e7576040519150601f19603f3d011682016040523d82523d6000602084013e6130ec565b606091505b50915091506130fd87838387613137565b979650505050505050565b60008183106131245760008281526020849052604090206114a6565b60008381526020839052604090206114a6565b606083156131a657825160000361319f576001600160a01b0385163b61319f5760405162461bcd60e51b815260206004820152601d60248201527f416464726573733a2063616c6c20746f206e6f6e2d636f6e74726163740000006044820152606401610ddc565b5081611b66565b611b6683838151156131bb5781518083602001fd5b8060405162461bcd60e51b8152600401610ddc9190613258565b6001600160e01b0319811681146113e257600080fd5b6000602082840312156131fd57600080fd5b81356114a6816131d5565b60005b8381101561322357818101518382015260200161320b565b50506000910152565b60008151808452613244816020860160208601613208565b601f01601f19169290920160200192915050565b6020815260006114a6602083018461322c565b60006020828403121561327d57600080fd5b5035919050565b6001600160a01b03811681146113e257600080fd5b600080604083850312156132ac57600080fd5b82356132b781613284565b946020939093013593505050565b6000602082840312156132d757600080fd5b81356114a681613284565b803560ff811681146132f357600080fd5b919050565b60008083601f84011261330a57600080fd5b5081356001600160401b0381111561332157600080fd5b6020830191508360208260051b850101111561333c57600080fd5b9250929050565b60008060006040848603121561335857600080fd5b613361846132e2565b925060208401356001600160401b0381111561337c57600080fd5b613388868287016132f8565b9497909650939450505050565b6000806000606084860312156133aa57600080fd5b83356133b581613284565b925060208401356133c581613284565b929592945050506040919091013590565b80151581146113e257600080fd5b600080604083850312156133f757600080fd5b823561340281613284565b91506020830135613412816133d6565b809150509250929050565b6000806040838503121561343057600080fd5b50508035926020909101359150565b6000806040838503121561345257600080fd5b823561345d81613284565b9150602083013561341281613284565b6000806020838503121561348057600080fd5b82356001600160401b0381111561349657600080fd5b6134a2858286016132f8565b90969095509350505050565b80516001600160a01b031682526020808201516001600160401b03169083015260408082015115159083015260609081015162ffffff16910152565b6020808252825182820181905260009190848201906040850190845b81811015611692576135198385516134ae565b9284019260809290920191600101613506565b6000806040838503121561353f57600080fd5b6132b7836132e2565b6000806040838503121561355b57600080fd5b61345d836132e2565b6000806020838503121561357757600080fd5b82356001600160401b038082111561358e57600080fd5b818501915085601f8301126135a257600080fd5b8135818111156135b157600080fd5b8660208285010111156135c357600080fd5b60209290920196919550909350505050565b6020808252825182820181905260009190848201906040850190845b81811015611692578351835292840192918401916001016135f1565b60008060006060848603121561362257600080fd5b833561362d81613284565b95602085013595506040909401359392505050565b6000806000806040858703121561365857600080fd5b84356001600160401b038082111561366f57600080fd5b61367b888389016132f8565b9096509450602087013591508082111561369457600080fd5b506136a1878288016132f8565b95989497509550505050565b6000602082840312156136bf57600080fd5b6114a6826132e2565b634e487b7160e01b600052604160045260246000fd5b600080600080608085870312156136f457600080fd5b84356136ff81613284565b9350602085013561370f81613284565b92506040850135915060608501356001600160401b038082111561373257600080fd5b818701915087601f83011261374657600080fd5b813581811115613758576137586136c8565b604051601f8201601f19908116603f01168101908382118183101715613780576137806136c8565b816040528281528a602084870101111561379957600080fd5b82602086016020830137600060208483010152809550505050505092959194509250565b634e487b7160e01b600052602160045260246000fd5b60208101600383106137f557634e487b7160e01b600052602160045260246000fd5b91905290565b60808101610c8082846134ae565b6000806000806060858703121561381f57600080fd5b613828856132e2565b9350602085013561383881613284565b925060408501356001600160401b0381111561385357600080fd5b6136a1878288016132f8565b60006020828403121561387157600080fd5b8135600381106114a657600080fd5b60008060006040848603121561389557600080fd5b8335925060208401356001600160401b0381111561337c57600080fd5b600181811c908216806138c657607f821691505b6020821081036138e657634e487b7160e01b600052602260045260246000fd5b50919050565b60208082526026908201527f5061796d656e7453706c69747465723a206163636f756e7420686173206e6f2060408201526573686172657360d01b606082015260800190565b6020808252602b908201527f5061796d656e7453706c69747465723a206163636f756e74206973206e6f742060408201526a191d59481c185e5b595b9d60aa1b606082015260800190565b634e487b7160e01b600052601160045260246000fd5b80820180821115610c8057610c8061397d565b6020808252600c908201526b2737ba1030b71030b236b4b760a11b604082015260600190565b634e487b7160e01b600052603260045260246000fd5b6000600182016139f4576139f461397d565b5060010190565b8082028115828204841417610c8057610c8061397d565b600082613a2f57634e487b7160e01b600052601260045260246000fd5b500490565b81810381811115610c8057610c8061397d565b601f821115610d8257600081815260208120601f850160051c81016020861015613a6e5750805b601f850160051c820191505b818110156119f057828155600101613a7a565b6001600160401b03831115613aa457613aa46136c8565b613ab883613ab283546138b2565b83613a47565b6000601f841160018114613aec5760008515613ad45750838201355b600019600387901b1c1916600186901b178355611a1e565b600083815260209020601f19861690835b82811015613b1d5786850135825560209485019460019092019101613afd565b5086821015613b3a5760001960f88860031b161c19848701351681555b505060018560011b0183555050505050565b600060208284031215613b5e57600080fd5b5051919050565b600060208284031215613b7757600080fd5b81516114a6816133d6565b60008154613b8f816138b2565b60018281168015613ba75760018114613bbc57613beb565b60ff1984168752821515830287019450613beb565b8560005260208060002060005b85811015613be25781548a820152908401908201613bc9565b50505082870194505b5050505092915050565b6000613c018286613b82565b8451613c11818360208901613208565b6130fd81830186613b82565b6001600160a01b03858116825284166020820152604081018390526080606082018190526000906129a79083018461322c565b600060208284031215613c6257600080fd5b81516114a6816131d5565b60008251613c7f818460208701613208565b919091019291505056fea264697066735822122042b260947b3e0cd8a8db72ef37d220c37f12f506e0ff24b25cb6651ea44a781e64736f6c63430008110033",
  "linkReferences": {},
  "deployedLinkReferences": {}
}