{
  "_format": "hh-sol-artifact-1",
  "contractName": "UriManagerUpgradable",
  "sourceName": "contracts/src/contracts/chocolate-factory/UriManagerUpgradable.sol",
  "abi": [
    {
      "anonymous": false,
      "inputs": [
        {
          "indexed": false,
          "internalType": "uint8",
          "name": "version",
          "type": "uint8"
        }
      ],
      "name": "Initialized",
      "type": "event"
    },
    {
      "inputs": [
        {
          "internalType": "address",
          "name": "account_",
          "type": "address"
        }
      ],
      "name": "isAdmin",
      "outputs": [
        {
          "internalType": "bool",
          "name": "",
          "type": "bool"
        }
      ],
      "stateMutability": "view",
      "type": "function"
    },
    {
      "inputs": [],
      "name": "prefix",
      "outputs": [
        {
          "internalType": "string",
          "name": "",
          "type": "string"
        }
      ],
      "stateMutability": "view",
      "type": "function"
    },
    {
      "inputs": [
        {
          "internalType": "address",
          "name": "account_",
          "type": "address"
        },
        {
          "internalType": "bool",
          "name": "enable_",
          "type": "bool"
        }
      ],
      "name": "setAdminPermissions",
      "outputs": [],
      "stateMutability": "nonpayable",
      "type": "function"
    },
    {
      "inputs": [
        {
          "internalType": "string",
          "name": "prefix_",
          "type": "string"
        }
      ],
      "name": "setPrefix",
      "outputs": [],
      "stateMutability": "nonpayable",
      "type": "function"
    },
    {
      "inputs": [
        {
          "internalType": "string",
          "name": "suffix_",
          "type": "string"
        }
      ],
      "name": "setSuffix",
      "outputs": [],
      "stateMutability": "nonpayable",
      "type": "function"
    },
    {
      "inputs": [],
      "name": "suffix",
      "outputs": [
        {
          "internalType": "string",
          "name": "",
          "type": "string"
        }
      ],
      "stateMutability": "view",
      "type": "function"
    }
  ],
  "bytecode": "0x608060405234801561001057600080fd5b50610576806100206000396000f3fe608060405234801561001057600080fd5b50600436106100625760003560e01c8063240ff27f1461006757806324d7806c1461007c57806375d5ae9f146100bd57806375dadb32146100d057806385cb593b146100e5578063f7073c3a146100f8575b600080fd5b61007a61007536600461029d565b610100565b005b6100a861008a3660046102d9565b6001600160a01b031660009081526001602052604090205460ff1690565b60405190151581526020015b60405180910390f35b61007a6100cb3660046102fb565b610163565b6100d86101a4565b6040516100b4919061036d565b61007a6100f33660046102fb565b610236565b6100d8610272565b3360009081526001602052604090205460ff166101385760405162461bcd60e51b815260040161012f906103bb565b60405180910390fd5b6001600160a01b03919091166000908152600160205260409020805460ff1916911515919091179055565b3360009081526001602052604090205460ff166101925760405162461bcd60e51b815260040161012f906103bb565b603461019f82848361047f565b505050565b6060603380546101b3906103f7565b80601f01602080910402602001604051908101604052809291908181526020018280546101df906103f7565b801561022c5780601f106102015761010080835404028352916020019161022c565b820191906000526020600020905b81548152906001019060200180831161020f57829003601f168201915b5050505050905090565b3360009081526001602052604090205460ff166102655760405162461bcd60e51b815260040161012f906103bb565b603361019f82848361047f565b6060603480546101b3906103f7565b80356001600160a01b038116811461029857600080fd5b919050565b600080604083850312156102b057600080fd5b6102b983610281565b9150602083013580151581146102ce57600080fd5b809150509250929050565b6000602082840312156102eb57600080fd5b6102f482610281565b9392505050565b6000806020838503121561030e57600080fd5b823567ffffffffffffffff8082111561032657600080fd5b818501915085601f83011261033a57600080fd5b81358181111561034957600080fd5b86602082850101111561035b57600080fd5b60209290920196919550909350505050565b600060208083528351808285015260005b8181101561039a5785810183015185820160400152820161037e565b506000604082860101526040601f19601f8301168501019250505092915050565b6020808252600c908201526b2737ba1030b71030b236b4b760a11b604082015260600190565b634e487b7160e01b600052604160045260246000fd5b600181811c9082168061040b57607f821691505b60208210810361042b57634e487b7160e01b600052602260045260246000fd5b50919050565b601f82111561019f57600081815260208120601f850160051c810160208610156104585750805b601f850160051c820191505b8181101561047757828155600101610464565b505050505050565b67ffffffffffffffff831115610497576104976103e1565b6104ab836104a583546103f7565b83610431565b6000601f8411600181146104df57600085156104c75750838201355b600019600387901b1c1916600186901b178355610539565b600083815260209020601f19861690835b8281101561051057868501358255602094850194600190920191016104f0565b508682101561052d5760001960f88860031b161c19848701351681555b505060018560011b0183555b505050505056fea2646970667358221220b259b2096481900c1367ba6cf310871cfe8dc745639f7ef16bb03fc3996124a864736f6c63430008110033",
  "linkReferences": {},
  "deployedLinkReferences": {}
}