{
  "_format": "hh-sol-artifact-1",
  "contractName": "AdminManagerUpgradable",
  "sourceName": "@chocolate-factory/contracts/admin-manager/AdminManagerUpgradable.sol",
  "abi": [
    {
      "anonymous": false,
      "inputs": [
        {
          "indexed": false,
          "internalType": "uint8",
          "name": "version",
          "type": "uint8"
        }
      ],
      "name": "Initialized",
      "type": "event"
    },
    {
      "inputs": [
        {
          "internalType": "address",
          "name": "account_",
          "type": "address"
        }
      ],
      "name": "isAdmin",
      "outputs": [
        {
          "internalType": "bool",
          "name": "",
          "type": "bool"
        }
      ],
      "stateMutability": "view",
      "type": "function"
    },
    {
      "inputs": [
        {
          "internalType": "address",
          "name": "account_",
          "type": "address"
        },
        {
          "internalType": "bool",
          "name": "enable_",
          "type": "bool"
        }
      ],
      "name": "setAdminPermissions",
      "outputs": [],
      "stateMutability": "nonpayable",
      "type": "function"
    }
  ],
  "bytecode": "0x608060405234801561001057600080fd5b506101bd806100206000396000f3fe608060405234801561001057600080fd5b50600436106100365760003560e01c8063240ff27f1461003b57806324d7806c14610050575b600080fd5b61004e610049366004610129565b610090565b005b61007c61005e366004610165565b6001600160a01b031660009081526001602052604090205460ff1690565b604051901515815260200160405180910390f35b3360009081526001602052604090205460ff166100e25760405162461bcd60e51b815260206004820152600c60248201526b2737ba1030b71030b236b4b760a11b604482015260640160405180910390fd5b6001600160a01b03919091166000908152600160205260409020805460ff1916911515919091179055565b80356001600160a01b038116811461012457600080fd5b919050565b6000806040838503121561013c57600080fd5b6101458361010d565b91506020830135801515811461015a57600080fd5b809150509250929050565b60006020828403121561017757600080fd5b6101808261010d565b939250505056fea26469706673582212203206756ee935731c05405147241568bac955ae356b946a3da708ae4d5abd606964736f6c63430008110033",
  "linkReferences": {},
  "deployedLinkReferences": {}
}