{
  "_format": "hh-sol-artifact-1",
  "contractName": "Base",
  "sourceName": "@chocolate-factory/contracts/token/ERC721/presets/Base.sol",
  "abi": [
    {
      "inputs": [],
      "name": "ApprovalCallerNotOwnerNorApproved",
      "type": "error"
    },
    {
      "inputs": [],
      "name": "ApprovalQueryForNonexistentToken",
      "type": "error"
    },
    {
      "inputs": [],
      "name": "ApproveToCaller",
      "type": "error"
    },
    {
      "inputs": [],
      "name": "BalanceQueryForZeroAddress",
      "type": "error"
    },
    {
      "inputs": [],
      "name": "InvalidQueryRange",
      "type": "error"
    },
    {
      "inputs": [],
      "name": "MintERC2309QuantityExceedsLimit",
      "type": "error"
    },
    {
      "inputs": [],
      "name": "MintToZeroAddress",
      "type": "error"
    },
    {
      "inputs": [],
      "name": "MintZeroQuantity",
      "type": "error"
    },
    {
      "inputs": [
        {
          "internalType": "address",
          "name": "operator",
          "type": "address"
        }
      ],
      "name": "OperatorNotAllowed",
      "type": "error"
    },
    {
      "inputs": [],
      "name": "OwnerQueryForNonexistentToken",
      "type": "error"
    },
    {
      "inputs": [],
      "name": "OwnershipNotInitializedForExtraData",
      "type": "error"
    },
    {
      "inputs": [],
      "name": "TransferCallerNotOwnerNorApproved",
      "type": "error"
    },
    {
      "inputs": [],
      "name": "TransferFromIncorrectOwner",
      "type": "error"
    },
    {
      "inputs": [],
      "name": "TransferToNonERC721ReceiverImplementer",
      "type": "error"
    },
    {
      "inputs": [],
      "name": "TransferToZeroAddress",
      "type": "error"
    },
    {
      "inputs": [],
      "name": "URIQueryForNonexistentToken",
      "type": "error"
    },
    {
      "anonymous": false,
      "inputs": [
        {
          "indexed": true,
          "internalType": "address",
          "name": "owner",
          "type": "address"
        },
        {
          "indexed": true,
          "internalType": "address",
          "name": "approved",
          "type": "address"
        },
        {
          "indexed": true,
          "internalType": "uint256",
          "name": "tokenId",
          "type": "uint256"
        }
      ],
      "name": "Approval",
      "type": "event"
    },
    {
      "anonymous": false,
      "inputs": [
        {
          "indexed": true,
          "internalType": "address",
          "name": "owner",
          "type": "address"
        },
        {
          "indexed": true,
          "internalType": "address",
          "name": "operator",
          "type": "address"
        },
        {
          "indexed": false,
          "internalType": "bool",
          "name": "approved",
          "type": "bool"
        }
      ],
      "name": "ApprovalForAll",
      "type": "event"
    },
    {
      "anonymous": false,
      "inputs": [
        {
          "indexed": true,
          "internalType": "uint256",
          "name": "fromTokenId",
          "type": "uint256"
        },
        {
          "indexed": false,
          "internalType": "uint256",
          "name": "toTokenId",
          "type": "uint256"
        },
        {
          "indexed": true,
          "internalType": "address",
          "name": "from",
          "type": "address"
        },
        {
          "indexed": true,
          "internalType": "address",
          "name": "to",
          "type": "address"
        }
      ],
      "name": "ConsecutiveTransfer",
      "type": "event"
    },
    {
      "anonymous": false,
      "inputs": [
        {
          "indexed": true,
          "internalType": "contract IERC20Upgradeable",
          "name": "token",
          "type": "address"
        },
        {
          "indexed": false,
          "internalType": "address",
          "name": "to",
          "type": "address"
        },
        {
          "indexed": false,
          "internalType": "uint256",
          "name": "amount",
          "type": "uint256"
        }
      ],
      "name": "ERC20PaymentReleased",
      "type": "event"
    },
    {
      "anonymous": false,
      "inputs": [
        {
          "indexed": false,
          "internalType": "uint8",
          "name": "version",
          "type": "uint8"
        }
      ],
      "name": "Initialized",
      "type": "event"
    },
    {
      "anonymous": false,
      "inputs": [
        {
          "indexed": true,
          "internalType": "address",
          "name": "previousOwner",
          "type": "address"
        },
        {
          "indexed": true,
          "internalType": "address",
          "name": "newOwner",
          "type": "address"
        }
      ],
      "name": "OwnershipTransferred",
      "type": "event"
    },
    {
      "anonymous": false,
      "inputs": [
        {
          "indexed": false,
          "internalType": "address",
          "name": "account",
          "type": "address"
        },
        {
          "indexed": false,
          "internalType": "uint256",
          "name": "shares",
          "type": "uint256"
        }
      ],
      "name": "PayeeAdded",
      "type": "event"
    },
    {
      "anonymous": false,
      "inputs": [
        {
          "indexed": false,
          "internalType": "address",
          "name": "from",
          "type": "address"
        },
        {
          "indexed": false,
          "internalType": "uint256",
          "name": "amount",
          "type": "uint256"
        }
      ],
      "name": "PaymentReceived",
      "type": "event"
    },
    {
      "anonymous": false,
      "inputs": [
        {
          "indexed": false,
          "internalType": "address",
          "name": "to",
          "type": "address"
        },
        {
          "indexed": false,
          "internalType": "uint256",
          "name": "amount",
          "type": "uint256"
        }
      ],
      "name": "PaymentReleased",
      "type": "event"
    },
    {
      "anonymous": false,
      "inputs": [
        {
          "indexed": false,
          "internalType": "address",
          "name": "recipient",
          "type": "address"
        },
        {
          "indexed": false,
          "internalType": "uint256",
          "name": "amount",
          "type": "uint256"
        }
      ],
      "name": "RoyaltiesSet",
      "type": "event"
    },
    {
      "anonymous": false,
      "inputs": [
        {
          "indexed": true,
          "internalType": "address",
          "name": "from",
          "type": "address"
        },
        {
          "indexed": true,
          "internalType": "address",
          "name": "to",
          "type": "address"
        },
        {
          "indexed": true,
          "internalType": "uint256",
          "name": "tokenId",
          "type": "uint256"
        }
      ],
      "name": "Transfer",
      "type": "event"
    },
    {
      "inputs": [
        {
          "internalType": "uint8",
          "name": "stageId_",
          "type": "uint8"
        },
        {
          "internalType": "address[]",
          "name": "accounts_",
          "type": "address[]"
        }
      ],
      "name": "addToWhitelist",
      "outputs": [],
      "stateMutability": "nonpayable",
      "type": "function"
    },
    {
      "inputs": [
        {
          "internalType": "address[]",
          "name": "accounts_",
          "type": "address[]"
        },
        {
          "internalType": "uint256[]",
          "name": "amounts_",
          "type": "uint256[]"
        }
      ],
      "name": "adminMint",
      "outputs": [],
      "stateMutability": "nonpayable",
      "type": "function"
    },
    {
      "inputs": [
        {
          "internalType": "address",
          "name": "operator",
          "type": "address"
        },
        {
          "internalType": "uint256",
          "name": "tokenId",
          "type": "uint256"
        }
      ],
      "name": "approve",
      "outputs": [],
      "stateMutability": "nonpayable",
      "type": "function"
    },
    {
      "inputs": [
        {
          "internalType": "uint8",
          "name": "stageId_",
          "type": "uint8"
        }
      ],
      "name": "balanceLimit",
      "outputs": [
        {
          "internalType": "uint256",
          "name": "",
          "type": "uint256"
        }
      ],
      "stateMutability": "view",
      "type": "function"
    },
    {
      "inputs": [
        {
          "internalType": "address",
          "name": "owner",
          "type": "address"
        }
      ],
      "name": "balanceOf",
      "outputs": [
        {
          "internalType": "uint256",
          "name": "",
          "type": "uint256"
        }
      ],
      "stateMutability": "view",
      "type": "function"
    },
    {
      "inputs": [
        {
          "internalType": "uint8",
          "name": "stageId_",
          "type": "uint8"
        },
        {
          "internalType": "address",
          "name": "account_",
          "type": "address"
        }
      ],
      "name": "currentBalance",
      "outputs": [
        {
          "internalType": "uint256",
          "name": "",
          "type": "uint256"
        }
      ],
      "stateMutability": "view",
      "type": "function"
    },
    {
      "inputs": [
        {
          "internalType": "uint256",
          "name": "tokenId",
          "type": "uint256"
        }
      ],
      "name": "explicitOwnershipOf",
      "outputs": [
        {
          "components": [
            {
              "internalType": "address",
              "name": "addr",
              "type": "address"
            },
            {
              "internalType": "uint64",
              "name": "startTimestamp",
              "type": "uint64"
            },
            {
              "internalType": "bool",
              "name": "burned",
              "type": "bool"
            },
            {
              "internalType": "uint24",
              "name": "extraData",
              "type": "uint24"
            }
          ],
          "internalType": "struct IERC721AUpgradeable.TokenOwnership",
          "name": "",
          "type": "tuple"
        }
      ],
      "stateMutability": "view",
      "type": "function"
    },
    {
      "inputs": [
        {
          "internalType": "uint256[]",
          "name": "tokenIds",
          "type": "uint256[]"
        }
      ],
      "name": "explicitOwnershipsOf",
      "outputs": [
        {
          "components": [
            {
              "internalType": "address",
              "name": "addr",
              "type": "address"
            },
            {
              "internalType": "uint64",
              "name": "startTimestamp",
              "type": "uint64"
            },
            {
              "internalType": "bool",
              "name": "burned",
              "type": "bool"
            },
            {
              "internalType": "uint24",
              "name": "extraData",
              "type": "uint24"
            }
          ],
          "internalType": "struct IERC721AUpgradeable.TokenOwnership[]",
          "name": "",
          "type": "tuple[]"
        }
      ],
      "stateMutability": "view",
      "type": "function"
    },
    {
      "inputs": [
        {
          "internalType": "uint256",
          "name": "tokenId",
          "type": "uint256"
        }
      ],
      "name": "getApproved",
      "outputs": [
        {
          "internalType": "address",
          "name": "",
          "type": "address"
        }
      ],
      "stateMutability": "view",
      "type": "function"
    },
    {
      "inputs": [
        {
          "internalType": "address",
          "name": "account_",
          "type": "address"
        }
      ],
      "name": "isAdmin",
      "outputs": [
        {
          "internalType": "bool",
          "name": "",
          "type": "bool"
        }
      ],
      "stateMutability": "view",
      "type": "function"
    },
    {
      "inputs": [
        {
          "internalType": "address",
          "name": "owner",
          "type": "address"
        },
        {
          "internalType": "address",
          "name": "operator",
          "type": "address"
        }
      ],
      "name": "isApprovedForAll",
      "outputs": [
        {
          "internalType": "bool",
          "name": "",
          "type": "bool"
        }
      ],
      "stateMutability": "view",
      "type": "function"
    },
    {
      "inputs": [
        {
          "internalType": "uint8",
          "name": "stageId_",
          "type": "uint8"
        },
        {
          "internalType": "address",
          "name": "account_",
          "type": "address"
        },
        {
          "internalType": "bytes32[]",
          "name": "proof_",
          "type": "bytes32[]"
        }
      ],
      "name": "isWhitelisted",
      "outputs": [
        {
          "internalType": "bool",
          "name": "",
          "type": "bool"
        }
      ],
      "stateMutability": "view",
      "type": "function"
    },
    {
      "inputs": [],
      "name": "maxSupply",
      "outputs": [
        {
          "internalType": "uint256",
          "name": "",
          "type": "uint256"
        }
      ],
      "stateMutability": "view",
      "type": "function"
    },
    {
      "inputs": [
        {
          "internalType": "uint8",
          "name": "stageId_",
          "type": "uint8"
        }
      ],
      "name": "merkleTreeRoot",
      "outputs": [
        {
          "internalType": "bytes32",
          "name": "",
          "type": "bytes32"
        }
      ],
      "stateMutability": "view",
      "type": "function"
    },
    {
      "inputs": [],
      "name": "name",
      "outputs": [
        {
          "internalType": "string",
          "name": "",
          "type": "string"
        }
      ],
      "stateMutability": "view",
      "type": "function"
    },
    {
      "inputs": [],
      "name": "owner",
      "outputs": [
        {
          "internalType": "address",
          "name": "",
          "type": "address"
        }
      ],
      "stateMutability": "view",
      "type": "function"
    },
    {
      "inputs": [
        {
          "internalType": "uint256",
          "name": "tokenId",
          "type": "uint256"
        }
      ],
      "name": "ownerOf",
      "outputs": [
        {
          "internalType": "address",
          "name": "",
          "type": "address"
        }
      ],
      "stateMutability": "view",
      "type": "function"
    },
    {
      "inputs": [
        {
          "internalType": "uint256",
          "name": "index",
          "type": "uint256"
        }
      ],
      "name": "payee",
      "outputs": [
        {
          "internalType": "address",
          "name": "",
          "type": "address"
        }
      ],
      "stateMutability": "view",
      "type": "function"
    },
    {
      "inputs": [],
      "name": "payeesLength",
      "outputs": [
        {
          "internalType": "uint256",
          "name": "",
          "type": "uint256"
        }
      ],
      "stateMutability": "view",
      "type": "function"
    },
    {
      "inputs": [],
      "name": "prefix",
      "outputs": [
        {
          "internalType": "string",
          "name": "",
          "type": "string"
        }
      ],
      "stateMutability": "view",
      "type": "function"
    },
    {
      "inputs": [
        {
          "internalType": "uint8",
          "name": "stage_",
          "type": "uint8"
        }
      ],
      "name": "price",
      "outputs": [
        {
          "internalType": "uint256",
          "name": "",
          "type": "uint256"
        }
      ],
      "stateMutability": "view",
      "type": "function"
    },
    {
      "inputs": [
        {
          "internalType": "address",
          "name": "account",
          "type": "address"
        }
      ],
      "name": "releasable",
      "outputs": [
        {
          "internalType": "uint256",
          "name": "",
          "type": "uint256"
        }
      ],
      "stateMutability": "view",
      "type": "function"
    },
    {
      "inputs": [
        {
          "internalType": "contract IERC20Upgradeable",
          "name": "token",
          "type": "address"
        },
        {
          "internalType": "address",
          "name": "account",
          "type": "address"
        }
      ],
      "name": "releasable",
      "outputs": [
        {
          "internalType": "uint256",
          "name": "",
          "type": "uint256"
        }
      ],
      "stateMutability": "view",
      "type": "function"
    },
    {
      "inputs": [
        {
          "internalType": "address payable",
          "name": "account",
          "type": "address"
        }
      ],
      "name": "release",
      "outputs": [],
      "stateMutability": "nonpayable",
      "type": "function"
    },
    {
      "inputs": [
        {
          "internalType": "contract IERC20Upgradeable",
          "name": "token",
          "type": "address"
        },
        {
          "internalType": "address",
          "name": "account",
          "type": "address"
        }
      ],
      "name": "release",
      "outputs": [],
      "stateMutability": "nonpayable",
      "type": "function"
    },
    {
      "inputs": [
        {
          "internalType": "contract IERC20Upgradeable",
          "name": "token",
          "type": "address"
        }
      ],
      "name": "releaseAll",
      "outputs": [],
      "stateMutability": "nonpayable",
      "type": "function"
    },
    {
      "inputs": [],
      "name": "releaseAll",
      "outputs": [],
      "stateMutability": "nonpayable",
      "type": "function"
    },
    {
      "inputs": [
        {
          "internalType": "contract IERC20Upgradeable",
          "name": "token",
          "type": "address"
        },
        {
          "internalType": "address",
          "name": "account",
          "type": "address"
        }
      ],
      "name": "released",
      "outputs": [
        {
          "internalType": "uint256",
          "name": "",
          "type": "uint256"
        }
      ],
      "stateMutability": "view",
      "type": "function"
    },
    {
      "inputs": [
        {
          "internalType": "address",
          "name": "account",
          "type": "address"
        }
      ],
      "name": "released",
      "outputs": [
        {
          "internalType": "uint256",
          "name": "",
          "type": "uint256"
        }
      ],
      "stateMutability": "view",
      "type": "function"
    },
    {
      "inputs": [
        {
          "internalType": "uint8",
          "name": "stageId_",
          "type": "uint8"
        },
        {
          "internalType": "address",
          "name": "account_",
          "type": "address"
        }
      ],
      "name": "remainingBalance",
      "outputs": [
        {
          "internalType": "uint256",
          "name": "",
          "type": "uint256"
        }
      ],
      "stateMutability": "view",
      "type": "function"
    },
    {
      "inputs": [
        {
          "internalType": "uint8",
          "name": "stageId_",
          "type": "uint8"
        },
        {
          "internalType": "address[]",
          "name": "accounts_",
          "type": "address[]"
        }
      ],
      "name": "removeFromWhitelist",
      "outputs": [],
      "stateMutability": "nonpayable",
      "type": "function"
    },
    {
      "inputs": [],
      "name": "renounceOwnership",
      "outputs": [],
      "stateMutability": "nonpayable",
      "type": "function"
    },
    {
      "inputs": [
        {
          "internalType": "uint256",
          "name": "",
          "type": "uint256"
        },
        {
          "internalType": "uint256",
          "name": "value_",
          "type": "uint256"
        }
      ],
      "name": "royaltyInfo",
      "outputs": [
        {
          "internalType": "address",
          "name": "receiver",
          "type": "address"
        },
        {
          "internalType": "uint256",
          "name": "royaltyAmount",
          "type": "uint256"
        }
      ],
      "stateMutability": "view",
      "type": "function"
    },
    {
      "inputs": [
        {
          "internalType": "address",
          "name": "from",
          "type": "address"
        },
        {
          "internalType": "address",
          "name": "to",
          "type": "address"
        },
        {
          "internalType": "uint256",
          "name": "tokenId",
          "type": "uint256"
        }
      ],
      "name": "safeTransferFrom",
      "outputs": [],
      "stateMutability": "nonpayable",
      "type": "function"
    },
    {
      "inputs": [
        {
          "internalType": "address",
          "name": "from",
          "type": "address"
        },
        {
          "internalType": "address",
          "name": "to",
          "type": "address"
        },
        {
          "internalType": "uint256",
          "name": "tokenId",
          "type": "uint256"
        },
        {
          "internalType": "bytes",
          "name": "data",
          "type": "bytes"
        }
      ],
      "name": "safeTransferFrom",
      "outputs": [],
      "stateMutability": "nonpayable",
      "type": "function"
    },
    {
      "inputs": [
        {
          "internalType": "address",
          "name": "account_",
          "type": "address"
        },
        {
          "internalType": "bool",
          "name": "enable_",
          "type": "bool"
        }
      ],
      "name": "setAdminPermissions",
      "outputs": [],
      "stateMutability": "nonpayable",
      "type": "function"
    },
    {
      "inputs": [
        {
          "internalType": "address",
          "name": "operator",
          "type": "address"
        },
        {
          "internalType": "bool",
          "name": "approved",
          "type": "bool"
        }
      ],
      "name": "setApprovalForAll",
      "outputs": [],
      "stateMutability": "nonpayable",
      "type": "function"
    },
    {
      "inputs": [
        {
          "internalType": "uint256",
          "name": "maxSupply_",
          "type": "uint256"
        }
      ],
      "name": "setMaxSupply",
      "outputs": [],
      "stateMutability": "nonpayable",
      "type": "function"
    },
    {
      "inputs": [
        {
          "internalType": "string",
          "name": "prefix_",
          "type": "string"
        }
      ],
      "name": "setPrefix",
      "outputs": [],
      "stateMutability": "nonpayable",
      "type": "function"
    },
    {
      "inputs": [
        {
          "internalType": "uint8",
          "name": "stage_",
          "type": "uint8"
        },
        {
          "internalType": "uint256",
          "name": "value_",
          "type": "uint256"
        }
      ],
      "name": "setPrice",
      "outputs": [],
      "stateMutability": "nonpayable",
      "type": "function"
    },
    {
      "inputs": [
        {
          "internalType": "address",
          "name": "recipient_",
          "type": "address"
        },
        {
          "internalType": "uint256",
          "name": "amount_",
          "type": "uint256"
        }
      ],
      "name": "setRoyalties",
      "outputs": [],
      "stateMutability": "nonpayable",
      "type": "function"
    },
    {
      "inputs": [
        {
          "internalType": "uint8",
          "name": "stage_",
          "type": "uint8"
        }
      ],
      "name": "setStage",
      "outputs": [],
      "stateMutability": "nonpayable",
      "type": "function"
    },
    {
      "inputs": [
        {
          "internalType": "string",
          "name": "suffix_",
          "type": "string"
        }
      ],
      "name": "setSuffix",
      "outputs": [],
      "stateMutability": "nonpayable",
      "type": "function"
    },
    {
      "inputs": [
        {
          "internalType": "address",
          "name": "account",
          "type": "address"
        }
      ],
      "name": "shares",
      "outputs": [
        {
          "internalType": "uint256",
          "name": "",
          "type": "uint256"
        }
      ],
      "stateMutability": "view",
      "type": "function"
    },
    {
      "inputs": [],
      "name": "stage",
      "outputs": [
        {
          "internalType": "uint8",
          "name": "",
          "type": "uint8"
        }
      ],
      "stateMutability": "view",
      "type": "function"
    },
    {
      "inputs": [],
      "name": "suffix",
      "outputs": [
        {
          "internalType": "string",
          "name": "",
          "type": "string"
        }
      ],
      "stateMutability": "view",
      "type": "function"
    },
    {
      "inputs": [
        {
          "internalType": "bytes4",
          "name": "interfaceId",
          "type": "bytes4"
        }
      ],
      "name": "supportsInterface",
      "outputs": [
        {
          "internalType": "bool",
          "name": "",
          "type": "bool"
        }
      ],
      "stateMutability": "view",
      "type": "function"
    },
    {
      "inputs": [],
      "name": "symbol",
      "outputs": [
        {
          "internalType": "string",
          "name": "",
          "type": "string"
        }
      ],
      "stateMutability": "view",
      "type": "function"
    },
    {
      "inputs": [
        {
          "internalType": "uint256",
          "name": "tokenId",
          "type": "uint256"
        }
      ],
      "name": "tokenURI",
      "outputs": [
        {
          "internalType": "string",
          "name": "",
          "type": "string"
        }
      ],
      "stateMutability": "view",
      "type": "function"
    },
    {
      "inputs": [
        {
          "internalType": "address",
          "name": "owner",
          "type": "address"
        }
      ],
      "name": "tokensOfOwner",
      "outputs": [
        {
          "internalType": "uint256[]",
          "name": "",
          "type": "uint256[]"
        }
      ],
      "stateMutability": "view",
      "type": "function"
    },
    {
      "inputs": [
        {
          "internalType": "address",
          "name": "owner",
          "type": "address"
        },
        {
          "internalType": "uint256",
          "name": "start",
          "type": "uint256"
        },
        {
          "internalType": "uint256",
          "name": "stop",
          "type": "uint256"
        }
      ],
      "name": "tokensOfOwnerIn",
      "outputs": [
        {
          "internalType": "uint256[]",
          "name": "",
          "type": "uint256[]"
        }
      ],
      "stateMutability": "view",
      "type": "function"
    },
    {
      "inputs": [
        {
          "internalType": "contract IERC20Upgradeable",
          "name": "token",
          "type": "address"
        }
      ],
      "name": "totalReleased",
      "outputs": [
        {
          "internalType": "uint256",
          "name": "",
          "type": "uint256"
        }
      ],
      "stateMutability": "view",
      "type": "function"
    },
    {
      "inputs": [],
      "name": "totalReleased",
      "outputs": [
        {
          "internalType": "uint256",
          "name": "",
          "type": "uint256"
        }
      ],
      "stateMutability": "view",
      "type": "function"
    },
    {
      "inputs": [],
      "name": "totalShares",
      "outputs": [
        {
          "internalType": "uint256",
          "name": "",
          "type": "uint256"
        }
      ],
      "stateMutability": "view",
      "type": "function"
    },
    {
      "inputs": [],
      "name": "totalSupply",
      "outputs": [
        {
          "internalType": "uint256",
          "name": "",
          "type": "uint256"
        }
      ],
      "stateMutability": "view",
      "type": "function"
    },
    {
      "inputs": [
        {
          "internalType": "address",
          "name": "from",
          "type": "address"
        },
        {
          "internalType": "address",
          "name": "to",
          "type": "address"
        },
        {
          "internalType": "uint256",
          "name": "tokenId",
          "type": "uint256"
        }
      ],
      "name": "transferFrom",
      "outputs": [],
      "stateMutability": "nonpayable",
      "type": "function"
    },
    {
      "inputs": [
        {
          "internalType": "address",
          "name": "newOwner",
          "type": "address"
        }
      ],
      "name": "transferOwnership",
      "outputs": [],
      "stateMutability": "nonpayable",
      "type": "function"
    },
    {
      "inputs": [
        {
          "internalType": "uint8",
          "name": "stageId_",
          "type": "uint8"
        },
        {
          "internalType": "uint256",
          "name": "limit_",
          "type": "uint256"
        }
      ],
      "name": "updateBalanceLimit",
      "outputs": [],
      "stateMutability": "nonpayable",
      "type": "function"
    },
    {
      "inputs": [
        {
          "internalType": "uint8",
          "name": "stageId_",
          "type": "uint8"
        },
        {
          "internalType": "bytes32",
          "name": "merkleTreeRoot_",
          "type": "bytes32"
        }
      ],
      "name": "updateMerkleTreeRoot",
      "outputs": [],
      "stateMutability": "nonpayable",
      "type": "function"
    },
    {
      "stateMutability": "payable",
      "type": "receive"
    }
  ],
  "bytecode": "0x608060405234801561001057600080fd5b50613909806100206000396000f3fe6080604052600436106103905760003560e01c806385cb593b116101dc578063c23dc68f11610102578063d5abeb01116100a0578063e919ecad1161006f578063e919ecad14610bc3578063e985e9c514610bda578063f2fde38b14610bfa578063f7073c3a14610c1a57600080fd5b8063d5abeb0114610b15578063d79779b214610b2a578063e33b7de314610b61578063e4ab4bb914610b7757600080fd5b8063c87b56dd116100dc578063c87b56dd14610a7e578063cb3afdb614610a9e578063ce3cd99714610abe578063ce7c2ac214610ade57600080fd5b8063c23dc68f14610a11578063c45ac05014610a3e578063c519cd1c14610a5e57600080fd5b8063a22cb4651161017a578063b1ba72d611610149578063b1ba72d614610962578063b7fafcd714610993578063b88d4fde146109c4578063c040e6b8146109e457600080fd5b8063a22cb465146108d1578063a3f8eace146108f1578063a49340cc14610911578063ad0127f01461093157600080fd5b80638da5cb5b116101b65780638da5cb5b1461084757806395d89b41146108655780639852595c1461087a57806399a2557a146108b157600080fd5b806385cb593b146107e75780638b83209b146108075780638c7ea24b1461082757600080fd5b806342842e0e116102c15780636a00670b1161025f578063715018a61161022e578063715018a61461077057806375d5ae9f1461078557806375dadb32146107a55780638462151c146107ba57600080fd5b80636a00670b146106f05780636dba1163146107105780636f8b44b01461073057806370a082311461075057600080fd5b80635bbb21771161029b5780635bbb21771461066e5780635be7fde81461069b5780635ee54e23146106b05780636352211e146106d057600080fd5b806342842e0e1461060e57806348b750441461062e578063580fc80a1461064e57600080fd5b806323b872dd1161032e5780632a55205a116103085780632a55205a146105525780632f59f741146105915780633a98ef39146105b1578063406072a9146105c757600080fd5b806323b872dd146104f2578063240ff27f1461051257806324d7806c1461053257600080fd5b8063095ea7b31161036a578063095ea7b31461046d57806318160ddd1461048f57806319165587146104b257806321a588de146104d257600080fd5b806301ffc9a7146103de57806306fdde0314610413578063081812fc1461043557600080fd5b366103d9577f6ef95f06320e7a25a04a175ca677b7052bdd97131872c2192525a629f51be77033604080516001600160a01b0390921682523460208301520160405180910390a1005b600080fd5b3480156103ea57600080fd5b506103fe6103f9366004612ec6565b610c2f565b60405190151581526020015b60405180910390f35b34801561041f57600080fd5b50610428610c4f565b60405161040a9190612f33565b34801561044157600080fd5b50610455610450366004612f46565b610cea565b6040516001600160a01b03909116815260200161040a565b34801561047957600080fd5b5061048d610488366004612f74565b610d37565b005b34801561049b57600080fd5b506104a4610d50565b60405190815260200161040a565b3480156104be57600080fd5b5061048d6104cd366004612fa0565b610d6f565b3480156104de57600080fd5b5061048d6104ed36600461301e565b610e63565b3480156104fe57600080fd5b5061048d61050d366004613070565b610f14565b34801561051e57600080fd5b5061048d61052d3660046130bf565b610f39565b34801561053e57600080fd5b506103fe61054d366004612fa0565b610f89565b34801561055e57600080fd5b5061057261056d3660046130f8565b610fa7565b604080516001600160a01b03909316835260208301919091520161040a565b34801561059d57600080fd5b5061048d6105ac36600461301e565b610ffd565b3480156105bd57600080fd5b506101f5546104a4565b3480156105d357600080fd5b506104a46105e236600461311a565b6001600160a01b0391821660009081526101fb6020908152604080832093909416825291909152205490565b34801561061a57600080fd5b5061048d610629366004613070565b61109e565b34801561063a57600080fd5b5061048d61064936600461311a565b6110c3565b34801561065a57600080fd5b5061048d610669366004612fa0565b6111d7565b34801561067a57600080fd5b5061068e610689366004613148565b611209565b60405161040a91906131c5565b3480156106a757600080fd5b5061048d6112d4565b3480156106bc57600080fd5b5061048d6106cb366004613207565b611304565b3480156106dc57600080fd5b506104556106eb366004612f46565b611340565b3480156106fc57600080fd5b5061048d61070b366004613207565b61134b565b34801561071c57600080fd5b506104a461072b366004613223565b611387565b34801561073c57600080fd5b5061048d61074b366004612f46565b6113cc565b34801561075c57600080fd5b506104a461076b366004612fa0565b6113f6565b34801561077c57600080fd5b5061048d61145e565b34801561079157600080fd5b5061048d6107a036600461323f565b611472565b3480156107b157600080fd5b506104286114a5565b3480156107c657600080fd5b506107da6107d5366004612fa0565b6114b5565b60405161040a91906132b0565b3480156107f357600080fd5b5061048d61080236600461323f565b6115bd565b34801561081357600080fd5b50610455610822366004612f46565b6115f0565b34801561083357600080fd5b5061048d610842366004612f74565b611621565b34801561085357600080fd5b506033546001600160a01b0316610455565b34801561087157600080fd5b50610428611650565b34801561088657600080fd5b506104a4610895366004612fa0565b6001600160a01b031660009081526101f8602052604090205490565b3480156108bd57600080fd5b506107da6108cc3660046132e8565b611668565b3480156108dd57600080fd5b5061048d6108ec3660046130bf565b6117de565b3480156108fd57600080fd5b506104a461090c366004612fa0565b6117f2565b34801561091d57600080fd5b5061048d61092c36600461331d565b611835565b34801561093d57600080fd5b506104a461094c366004613388565b60ff16600090815261012d602052604090205490565b34801561096e57600080fd5b506104a461097d366004613388565b60ff16600090815261015e602052604090205490565b34801561099f57600080fd5b506104a46109ae366004613388565b60ff1660009081526101c3602052604090205490565b3480156109d057600080fd5b5061048d6109df3660046133b9565b611917565b3480156109f057600080fd5b50610259546109ff9060ff1681565b60405160ff909116815260200161040a565b348015610a1d57600080fd5b50610a31610a2c366004612f46565b611944565b60405161040a9190613498565b348015610a4a57600080fd5b506104a4610a5936600461311a565b6119c0565b348015610a6a57600080fd5b5061048d610a79366004613207565b611a8d565b348015610a8a57600080fd5b50610428610a99366004612f46565b611ac9565b348015610aaa57600080fd5b506103fe610ab93660046134a6565b611afa565b348015610aca57600080fd5b5061048d610ad9366004613388565b611b22565b348015610aea57600080fd5b506104a4610af9366004612fa0565b6001600160a01b031660009081526101f7602052604090205490565b348015610b2157600080fd5b5060c9546104a4565b348015610b3657600080fd5b506104a4610b45366004612fa0565b6001600160a01b031660009081526101fa602052604090205490565b348015610b6d57600080fd5b506101f6546104a4565b348015610b8357600080fd5b506104a4610b92366004613223565b60ff8216600090815261015e602090815260408083206001600160a01b038516845260010190915290205492915050565b348015610bcf57600080fd5b506104a46102275481565b348015610be657600080fd5b506103fe610bf536600461311a565b611b5e565b348015610c0657600080fd5b5061048d610c15366004612fa0565b611b9b565b348015610c2657600080fd5b50610428611c11565b6000610c3a82611c21565b80610c495750610c4982611c56565b92915050565b6060610c59611ca4565b6002018054610c67906134fc565b80601f0160208091040260200160405190810160405280929190818152602001828054610c93906134fc565b8015610ce05780601f10610cb557610100808354040283529160200191610ce0565b820191906000526020600020905b815481529060010190602001808311610cc357829003601f168201915b5050505050905090565b6000610cf582611cc8565b610d12576040516333d1c03960e21b815260040160405180910390fd5b610d1a611ca4565b60009283526006016020525060409020546001600160a01b031690565b81610d4181611d04565b610d4b8383611dbd565b505050565b600080610d5b611ca4565b60010154610d67611ca4565b540303919050565b6001600160a01b03811660009081526101f76020526040902054610dae5760405162461bcd60e51b8152600401610da590613536565b60405180910390fd5b6000610db9826117f2565b905080600003610ddb5760405162461bcd60e51b8152600401610da59061357c565b806101f66000828254610dee91906135dd565b90915550506001600160a01b03821660009081526101f860205260409020805482019055610e1c8282611e6b565b604080516001600160a01b0384168152602081018390527fdf20fd1e76bc69d672e4814fafb2c449bba3a5369d8359adf9e05e6fde87b05691015b60405180910390a15050565b610e6c33610f89565b610e885760405162461bcd60e51b8152600401610da5906135f0565b60005b81811015610f0e5760ff8416600090815261012d6020526040812060019190820190858585818110610ebf57610ebf613616565b9050602002016020810190610ed49190612fa0565b6001600160a01b031681526020810191909152604001600020805460ff191691151591909117905580610f068161362c565b915050610e8b565b50505050565b826001600160a01b0381163314610f2e57610f2e33611d04565b610f0e848484611f84565b610f4233610f89565b610f5e5760405162461bcd60e51b8152600401610da5906135f0565b6001600160a01b03919091166000908152609760205260409020805460ff1916911515919091179055565b6001600160a01b031660009081526097602052604090205460ff1690565b60408051808201909152610191546001600160a01b038116808352600160a01b90910462ffffff1660208301819052909160009161271090610fe99086613645565b610ff3919061365c565b9150509250929050565b61100633610f89565b6110225760405162461bcd60e51b8152600401610da5906135f0565b60005b81811015610f0e5760ff8416600090815261012d602052604081206001019084848481811061105657611056613616565b905060200201602081019061106b9190612fa0565b6001600160a01b031681526020810191909152604001600020805460ff19169055806110968161362c565b915050611025565b826001600160a01b03811633146110b8576110b833611d04565b610f0e848484612177565b6001600160a01b03811660009081526101f760205260409020546110f95760405162461bcd60e51b8152600401610da590613536565b600061110583836119c0565b9050806000036111275760405162461bcd60e51b8152600401610da59061357c565b6001600160a01b03831660009081526101fa6020526040812080548392906111509084906135dd565b90915550506001600160a01b0380841660009081526101fb6020908152604080832093861683529290522080548201905561118c838383612192565b604080516001600160a01b038481168252602082018490528516917f3be5b7a71e84ed12875d241991c70855ac5817d847039e17a9d895c1ceb0f18a910160405180910390a2505050565b60005b610227548110156112055760006111f0826115f0565b90506111fc83826110c3565b506001016111da565b5050565b6060816000816001600160401b03811115611226576112266133a3565b60405190808252806020026020018201604052801561127857816020015b6040805160808101825260008082526020808301829052928201819052606082015282526000199092019101816112445790505b50905060005b8281146112cb576112a686868381811061129a5761129a613616565b90506020020135611944565b8282815181106112b8576112b8613616565b602090810291909101015260010161127e565b50949350505050565b60005b610227548110156113015760006112ed826115f0565b90506112f881610d6f565b506001016112d7565b50565b61130d33610f89565b6113295760405162461bcd60e51b8152600401610da5906135f0565b60ff909116600090815261012d6020526040902055565b6000610c49826121e4565b61135433610f89565b6113705760405162461bcd60e51b8152600401610da5906135f0565b60ff90911660009081526101c36020526040902055565b60ff8216600081815261015e602081815260408084206001600160a01b0387168552600181018352908420549484529190525490916113c59161367e565b9392505050565b6113d533610f89565b6113f15760405162461bcd60e51b8152600401610da5906135f0565b60c955565b60006001600160a01b03821661141f576040516323d3ad8160e21b815260040160405180910390fd5b6001600160401b0361142f611ca4565b6005016000846001600160a01b03166001600160a01b0316815260200190815260200160002054169050919050565b611466612270565b61147060006122ca565b565b61147b33610f89565b6114975760405162461bcd60e51b8152600401610da5906135f0565b610160610d4b8284836136d7565b606061015f8054610c67906134fc565b606060008060006114c5856113f6565b90506000816001600160401b038111156114e1576114e16133a3565b60405190808252806020026020018201604052801561150a578160200160208202803683370190505b50905061153760408051608081018252600080825260208201819052918101829052606081019190915290565b60005b8386146115b15761154a8161231c565b915081604001516115a95781516001600160a01b03161561156a57815194505b876001600160a01b0316856001600160a01b0316036115a9578083878060010198508151811061159c5761159c613616565b6020026020010181815250505b60010161153a565b50909695505050505050565b6115c633610f89565b6115e25760405162461bcd60e51b8152600401610da5906135f0565b61015f610d4b8284836136d7565b60006101f9828154811061160657611606613616565b6000918252602090912001546001600160a01b031692915050565b61162a33610f89565b6116465760405162461bcd60e51b8152600401610da5906135f0565b6112058282612363565b606061165a611ca4565b6003018054610c67906134fc565b606081831061168a57604051631960ccad60e11b815260040160405180910390fd5b60008061169561242b565b9050808411156116a3578093505b60006116ae876113f6565b9050848610156116cd57858503818110156116c7578091505b506116d1565b5060005b6000816001600160401b038111156116eb576116eb6133a3565b604051908082528060200260200182016040528015611714578160200160208202803683370190505b5090508160000361172a5793506113c592505050565b600061173588611944565b905060008160400151611746575080515b885b8881141580156117585750848714155b156117cd576117668161231c565b925082604001516117c55782516001600160a01b03161561178657825191505b8a6001600160a01b0316826001600160a01b0316036117c557808488806001019950815181106117b8576117b8613616565b6020026020010181815250505b600101611748565b505050928352509095945050505050565b816117e881611d04565b610d4b838361243b565b6000806117ff6101f65490565b61180990476135dd565b90506113c58382611830866001600160a01b031660009081526101f8602052604090205490565b6124e1565b61183e33610f89565b61185a5760405162461bcd60e51b8152600401610da5906135f0565b828181146118aa5760405162461bcd60e51b815260206004820152601760248201527f41646d696e206d696e743a2062616420726571756573740000000000000000006044820152606401610da5565b60005b8181101561190f576118fd8686838181106118ca576118ca613616565b90506020020160208101906118df9190612fa0565b8585848181106118f1576118f1613616565b90506020020135612521565b806119078161362c565b9150506118ad565b505050505050565b836001600160a01b03811633146119315761193133611d04565b61193d8585858561252b565b5050505050565b604080516080808201835260008083526020808401829052838501829052606080850183905285519384018652828452908301829052938201819052928101929092529061199061242b565b831061199c5792915050565b6119a58361231c565b90508060400151156119b75792915050565b6113c58361256f565b6001600160a01b03821660009081526101fa602052604081205481906040516370a0823160e01b81523060048201526001600160a01b038616906370a0823190602401602060405180830381865afa158015611a20573d6000803e3d6000fd5b505050506040513d601f19601f82011682018060405250810190611a449190613796565b611a4e91906135dd565b6001600160a01b0380861660009081526101fb6020908152604080832093881683529290522054909150611a8590849083906124e1565b949350505050565b611a9633610f89565b611ab25760405162461bcd60e51b8152600401610da5906135f0565b60ff909116600090815261015e6020526040902055565b6060611ad482611cc8565b611af157604051630a14c4b560e41b815260040160405180910390fd5b610c49826125a4565b60ff8416600090815261012d60205260408120611b19908585856125dd565b95945050505050565b611b2b33610f89565b611b475760405162461bcd60e51b8152600401610da5906135f0565b610259805460ff191660ff92909216919091179055565b6000611b68611ca4565b6001600160a01b039384166000908152600791909101602090815260408083209490951682529290925250205460ff1690565b611ba3612270565b6001600160a01b038116611c085760405162461bcd60e51b815260206004820152602660248201527f4f776e61626c653a206e6577206f776e657220697320746865207a65726f206160448201526564647265737360d01b6064820152608401610da5565b611301816122ca565b60606101608054610c67906134fc565b60006001600160e01b0319821663152a902d60e11b1480610c4957506301ffc9a760e01b6001600160e01b0319831614610c49565b60006301ffc9a760e01b6001600160e01b031983161480611c8757506380ac58cd60e01b6001600160e01b03198316145b80610c495750506001600160e01b031916635b5e139f60e01b1490565b7f2569078dfb4b0305704d3008e7403993ae9601b85f7ae5e742de3de8f8011c4090565b6000611cd2611ca4565b5482108015610c495750600160e01b611ce9611ca4565b60008481526004919091016020526040902054161592915050565b6daaeb6d7670e522a718067333cd4e3b1561130157604051633185c44d60e21b81523060048201526001600160a01b03821660248201526daaeb6d7670e522a718067333cd4e9063c617113490604401602060405180830381865afa158015611d71573d6000803e3d6000fd5b505050506040513d601f19601f82011682018060405250810190611d9591906137af565b61130157604051633b79c77360e21b81526001600160a01b0382166004820152602401610da5565b6000611dc882611340565b9050336001600160a01b03821614611e0157611de48133611b5e565b611e01576040516367d9dca160e11b815260040160405180910390fd5b82611e0a611ca4565b6000848152600691909101602052604080822080546001600160a01b0319166001600160a01b0394851617905551849286811692908516917f8c5be1e5ebec7d5bd14f71427d1e84f3dd0314c0f7b2291e5b200ac8c7c3b9259190a4505050565b80471015611ebb5760405162461bcd60e51b815260206004820152601d60248201527f416464726573733a20696e73756666696369656e742062616c616e63650000006044820152606401610da5565b6000826001600160a01b03168260405160006040518083038185875af1925050503d8060008114611f08576040519150601f19603f3d011682016040523d82523d6000602084013e611f0d565b606091505b5050905080610d4b5760405162461bcd60e51b815260206004820152603a60248201527f416464726573733a20756e61626c6520746f2073656e642076616c75652c207260448201527f6563697069656e74206d617920686176652072657665727465640000000000006064820152608401610da5565b6000611f8f826121e4565b9050836001600160a01b0316816001600160a01b031614611fc25760405162a1148160e81b815260040160405180910390fd5b600080611fce84612688565b91509150611ff38187611fde3390565b6001600160a01b039081169116811491141790565b61201e576120018633611b5e565b61201e57604051632ce44b5f60e11b815260040160405180910390fd5b6001600160a01b03851661204557604051633a954ecd60e21b815260040160405180910390fd5b801561205057600082555b612058611ca4565b6001600160a01b0387166000908152600591909101602052604090208054600019019055612084611ca4565b6001600160a01b03861660008181526005929092016020526040909120805460010190554260a01b17600160e11b176120bb611ca4565b60008681526004919091016020526040812091909155600160e11b8416900361213157600184016120ea611ca4565b60008281526004919091016020526040812054900361212f5761210b611ca4565b54811461212f578361211b611ca4565b600083815260049190910160205260409020555b505b83856001600160a01b0316876001600160a01b03167fddf252ad1be2c89b69c2b068fc378daa952ba7f163c4a11628f55a4df523b3ef60405160405180910390a461190f565b610d4b83838360405180602001604052806000815250611917565b604080516001600160a01b038416602482015260448082018490528251808303909101815260649091019091526020810180516001600160e01b031663a9059cbb60e01b179052610d4b9084906126b0565b6000816121ef611ca4565b54811015612257576000612201611ca4565b600083815260049190910160205260408120549150600160e01b82169003612255575b806000036113c557612234611ca4565b60001990920160008181526004939093016020526040909220549050612224565b505b604051636f96cda160e11b815260040160405180910390fd5b6033546001600160a01b031633146114705760405162461bcd60e51b815260206004820181905260248201527f4f776e61626c653a2063616c6c6572206973206e6f7420746865206f776e65726044820152606401610da5565b603380546001600160a01b038381166001600160a01b0319831681179093556040519116919082907f8be0079c531659141344cd1fd0a4f28419497f9722a3daafe3b4186f6b6457e090600090a35050565b604080516080810182526000808252602082018190529181018290526060810191909152610c4961234b611ca4565b60008481526004919091016020526040902054612785565b6127108111156123b55760405162461bcd60e51b815260206004820152601c60248201527f526f79616c746965733a2076616c756520697320746f6f2068696768000000006044820152606401610da5565b6040805180820182526001600160a01b03841680825262ffffff8416602092830181905261019180546001600160b81b0319168317600160a01b90920291909117905582519081529081018390527f908669f35f6fb3977a956ba70597841fe541d1e8491ca3c025161e258d3bfdb69101610e57565b6000612435611ca4565b54919050565b336001600160a01b038316036124645760405163b06307db60e01b815260040160405180910390fd5b8061246d611ca4565b336000818152600792909201602090815260408084206001600160a01b03881680865290835293819020805460ff19169515159590951790945592518415158152919290917f17307eab39ab6107e8899845ad3d59bd9653f200f220920489ca2b5937696c31910160405180910390a35050565b6101f5546001600160a01b03841660009081526101f760205260408120549091839161250d9086613645565b612517919061365c565b611a85919061367e565b61120582826127cc565b612536848484610f14565b6001600160a01b0383163b15610f0e5761255284848484612865565b610f0e576040516368d2bf6b60e11b815260040160405180910390fd5b604080516080810182526000808252602082018190529181018290526060810191909152610c4961259f836121e4565b612785565b606061015f6125b28361294d565b6101606040516020016125c79392919061383f565b6040516020818303038152906040529050919050565b6040516bffffffffffffffffffffffff19606085901b166020820152600090819060340160405160208183030381529060405280519060200120905061265984848080602002602001604051908101604052809392919081815260200183836020028082843760009201919091525050895491508490506129df565b8061267e57506001600160a01b038516600090815260018701602052604090205460ff165b9695505050505050565b6000806000612695611ca4565b60009485526006016020525050604090912080549092909150565b6000612705826040518060400160405280602081526020017f5361666545524332303a206c6f772d6c6576656c2063616c6c206661696c6564815250856001600160a01b03166129f59092919063ffffffff16565b905080516000148061272657508080602001905181019061272691906137af565b610d4b5760405162461bcd60e51b815260206004820152602a60248201527f5361666545524332303a204552433230206f7065726174696f6e20646964206e6044820152691bdd081cdd58d8d9595960b21b6064820152608401610da5565b604080516080810182526001600160a01b038316815260a083901c6001600160401b03166020820152600160e01b831615159181019190915260e89190911c606082015290565b8060c954816127d9612a04565b6127e391906135dd565b11156128225760405162461bcd60e51b815260206004820152600e60248201526d4578636565647320737570706c7960901b6044820152606401610da5565b32331461285b5760405162461bcd60e51b81526020600482015260076024820152664e6f20626f747360c81b6044820152606401610da5565b610d4b8383612a13565b604051630a85bd0160e11b81526000906001600160a01b0385169063150b7a029061289a903390899088908890600401613867565b6020604051808303816000875af19250505080156128d5575060408051601f3d908101601f191682019092526128d29181019061389a565b60015b612933573d808015612903576040519150601f19603f3d011682016040523d82523d6000602084013e612908565b606091505b50805160000361292b576040516368d2bf6b60e11b815260040160405180910390fd5b805181602001fd5b6001600160e01b031916630a85bd0160e11b149050611a85565b6060600061295a83612a2d565b60010190506000816001600160401b03811115612979576129796133a3565b6040519080825280601f01601f1916602001820160405280156129a3576020820181803683370190505b5090508181016020015b600019016f181899199a1a9b1b9c1cb0b131b232b360811b600a86061a8153600a85049450846129ad57509392505050565b6000826129ec8584612b05565b14949350505050565b6060611a858484600085612b52565b6000612a0e610d50565b905090565b611205828260405180602001604052806000815250612c2d565b60008072184f03e93ff9f4daa797ed6e38ed64bf6a1f0160401b8310612a6c5772184f03e93ff9f4daa797ed6e38ed64bf6a1f0160401b830492506040015b6d04ee2d6d415b85acef81000000008310612a98576d04ee2d6d415b85acef8100000000830492506020015b662386f26fc100008310612ab657662386f26fc10000830492506010015b6305f5e1008310612ace576305f5e100830492506008015b6127108310612ae257612710830492506004015b60648310612af4576064830492506002015b600a8310610c495760010192915050565b600081815b8451811015612b4a57612b3682868381518110612b2957612b29613616565b6020026020010151612ca3565b915080612b428161362c565b915050612b0a565b509392505050565b606082471015612bb35760405162461bcd60e51b815260206004820152602660248201527f416464726573733a20696e73756666696369656e742062616c616e636520666f6044820152651c8818d85b1b60d21b6064820152608401610da5565b600080866001600160a01b03168587604051612bcf91906138b7565b60006040518083038185875af1925050503d8060008114612c0c576040519150601f19603f3d011682016040523d82523d6000602084013e612c11565b606091505b5091509150612c2287838387612cd2565b979650505050505050565b612c378383612d4b565b6001600160a01b0383163b15610d4b576000612c51611ca4565b5490508281035b612c6b6000868380600101945086612865565b612c88576040516368d2bf6b60e11b815260040160405180910390fd5b818110612c585781612c98611ca4565b541461193d57600080fd5b6000818310612cbf5760008281526020849052604090206113c5565b60008381526020839052604090206113c5565b60608315612d41578251600003612d3a576001600160a01b0385163b612d3a5760405162461bcd60e51b815260206004820152601d60248201527f416464726573733a2063616c6c20746f206e6f6e2d636f6e74726163740000006044820152606401610da5565b5081611a85565b611a858383612e86565b6000612d55611ca4565b5490506000829003612d7a5760405163b562e8dd60e01b815260040160405180910390fd5b680100000000000000018202612d8e611ca4565b6001600160a01b038516600081815260059290920160205260409091208054929092019091554260a01b6001841460e11b1717612dc9611ca4565b600083815260049190910160205260408120919091556001600160a01b0384169083830190839083907fddf252ad1be2c89b69c2b068fc378daa952ba7f163c4a11628f55a4df523b3ef8180a4600183015b818114612e5357808360007fddf252ad1be2c89b69c2b068fc378daa952ba7f163c4a11628f55a4df523b3ef600080a4600101612e1b565b5081600003612e7457604051622e076360e81b815260040160405180910390fd5b80612e7d611ca4565b5550610d4b9050565b815115612e965781518083602001fd5b8060405162461bcd60e51b8152600401610da59190612f33565b6001600160e01b03198116811461130157600080fd5b600060208284031215612ed857600080fd5b81356113c581612eb0565b60005b83811015612efe578181015183820152602001612ee6565b50506000910152565b60008151808452612f1f816020860160208601612ee3565b601f01601f19169290920160200192915050565b6020815260006113c56020830184612f07565b600060208284031215612f5857600080fd5b5035919050565b6001600160a01b038116811461130157600080fd5b60008060408385031215612f8757600080fd5b8235612f9281612f5f565b946020939093013593505050565b600060208284031215612fb257600080fd5b81356113c581612f5f565b803560ff81168114612fce57600080fd5b919050565b60008083601f840112612fe557600080fd5b5081356001600160401b03811115612ffc57600080fd5b6020830191508360208260051b850101111561301757600080fd5b9250929050565b60008060006040848603121561303357600080fd5b61303c84612fbd565b925060208401356001600160401b0381111561305757600080fd5b61306386828701612fd3565b9497909650939450505050565b60008060006060848603121561308557600080fd5b833561309081612f5f565b925060208401356130a081612f5f565b929592945050506040919091013590565b801515811461130157600080fd5b600080604083850312156130d257600080fd5b82356130dd81612f5f565b915060208301356130ed816130b1565b809150509250929050565b6000806040838503121561310b57600080fd5b50508035926020909101359150565b6000806040838503121561312d57600080fd5b823561313881612f5f565b915060208301356130ed81612f5f565b6000806020838503121561315b57600080fd5b82356001600160401b0381111561317157600080fd5b61317d85828601612fd3565b90969095509350505050565b80516001600160a01b031682526020808201516001600160401b03169083015260408082015115159083015260609081015162ffffff16910152565b6020808252825182820181905260009190848201906040850190845b818110156115b1576131f4838551613189565b92840192608092909201916001016131e1565b6000806040838503121561321a57600080fd5b612f9283612fbd565b6000806040838503121561323657600080fd5b61313883612fbd565b6000806020838503121561325257600080fd5b82356001600160401b038082111561326957600080fd5b818501915085601f83011261327d57600080fd5b81358181111561328c57600080fd5b86602082850101111561329e57600080fd5b60209290920196919550909350505050565b6020808252825182820181905260009190848201906040850190845b818110156115b1578351835292840192918401916001016132cc565b6000806000606084860312156132fd57600080fd5b833561330881612f5f565b95602085013595506040909401359392505050565b6000806000806040858703121561333357600080fd5b84356001600160401b038082111561334a57600080fd5b61335688838901612fd3565b9096509450602087013591508082111561336f57600080fd5b5061337c87828801612fd3565b95989497509550505050565b60006020828403121561339a57600080fd5b6113c582612fbd565b634e487b7160e01b600052604160045260246000fd5b600080600080608085870312156133cf57600080fd5b84356133da81612f5f565b935060208501356133ea81612f5f565b92506040850135915060608501356001600160401b038082111561340d57600080fd5b818701915087601f83011261342157600080fd5b813581811115613433576134336133a3565b604051601f8201601f19908116603f0116810190838211818310171561345b5761345b6133a3565b816040528281528a602084870101111561347457600080fd5b82602086016020830137600060208483010152809550505050505092959194509250565b60808101610c498284613189565b600080600080606085870312156134bc57600080fd5b6134c585612fbd565b935060208501356134d581612f5f565b925060408501356001600160401b038111156134f057600080fd5b61337c87828801612fd3565b600181811c9082168061351057607f821691505b60208210810361353057634e487b7160e01b600052602260045260246000fd5b50919050565b60208082526026908201527f5061796d656e7453706c69747465723a206163636f756e7420686173206e6f2060408201526573686172657360d01b606082015260800190565b6020808252602b908201527f5061796d656e7453706c69747465723a206163636f756e74206973206e6f742060408201526a191d59481c185e5b595b9d60aa1b606082015260800190565b634e487b7160e01b600052601160045260246000fd5b80820180821115610c4957610c496135c7565b6020808252600c908201526b2737ba1030b71030b236b4b760a11b604082015260600190565b634e487b7160e01b600052603260045260246000fd5b60006001820161363e5761363e6135c7565b5060010190565b8082028115828204841417610c4957610c496135c7565b60008261367957634e487b7160e01b600052601260045260246000fd5b500490565b81810381811115610c4957610c496135c7565b601f821115610d4b57600081815260208120601f850160051c810160208610156136b85750805b601f850160051c820191505b8181101561190f578281556001016136c4565b6001600160401b038311156136ee576136ee6133a3565b613702836136fc83546134fc565b83613691565b6000601f841160018114613736576000851561371e5750838201355b600019600387901b1c1916600186901b17835561193d565b600083815260209020601f19861690835b828110156137675786850135825560209485019460019092019101613747565b50868210156137845760001960f88860031b161c19848701351681555b505060018560011b0183555050505050565b6000602082840312156137a857600080fd5b5051919050565b6000602082840312156137c157600080fd5b81516113c5816130b1565b600081546137d9816134fc565b600182811680156137f1576001811461380657613835565b60ff1984168752821515830287019450613835565b8560005260208060002060005b8581101561382c5781548a820152908401908201613813565b50505082870194505b5050505092915050565b600061384b82866137cc565b845161385b818360208901612ee3565b612c22818301866137cc565b6001600160a01b038581168252841660208201526040810183905260806060820181905260009061267e90830184612f07565b6000602082840312156138ac57600080fd5b81516113c581612eb0565b600082516138c9818460208701612ee3565b919091019291505056fea26469706673582212205680b073f6f0b0fc4d4682e2f3b6f91e1ff22767d6184af833fc35e7edb4828c64736f6c63430008110033",
  "linkReferences": {},
  "deployedLinkReferences": {}
}