{
  "_format": "hh-sol-artifact-1",
  "contractName": "Packets",
  "sourceName": "contracts/src/contracts/Packets.sol",
  "abi": [
    {
      "inputs": [
        {
          "internalType": "address",
          "name": "operator",
          "type": "address"
        }
      ],
      "name": "OperatorNotAllowed",
      "type": "error"
    },
    {
      "anonymous": false,
      "inputs": [
        {
          "indexed": true,
          "internalType": "address",
          "name": "account",
          "type": "address"
        },
        {
          "indexed": true,
          "internalType": "address",
          "name": "operator",
          "type": "address"
        },
        {
          "indexed": false,
          "internalType": "bool",
          "name": "approved",
          "type": "bool"
        }
      ],
      "name": "ApprovalForAll",
      "type": "event"
    },
    {
      "anonymous": false,
      "inputs": [],
      "name": "EIP712DomainChanged",
      "type": "event"
    },
    {
      "anonymous": false,
      "inputs": [
        {
          "indexed": true,
          "internalType": "address",
          "name": "account",
          "type": "address"
        },
        {
          "indexed": false,
          "internalType": "uint256",
          "name": "amount",
          "type": "uint256"
        },
        {
          "indexed": false,
          "internalType": "uint256",
          "name": "timestamp",
          "type": "uint256"
        }
      ],
      "name": "GbabiesBurned",
      "type": "event"
    },
    {
      "anonymous": false,
      "inputs": [
        {
          "indexed": false,
          "internalType": "uint8",
          "name": "version",
          "type": "uint8"
        }
      ],
      "name": "Initialized",
      "type": "event"
    },
    {
      "anonymous": false,
      "inputs": [
        {
          "indexed": true,
          "internalType": "address",
          "name": "previousOwner",
          "type": "address"
        },
        {
          "indexed": true,
          "internalType": "address",
          "name": "newOwner",
          "type": "address"
        }
      ],
      "name": "OwnershipTransferred",
      "type": "event"
    },
    {
      "anonymous": false,
      "inputs": [
        {
          "indexed": true,
          "internalType": "address",
          "name": "account",
          "type": "address"
        },
        {
          "indexed": false,
          "internalType": "uint256",
          "name": "cardId",
          "type": "uint256"
        },
        {
          "indexed": false,
          "internalType": "uint256",
          "name": "startingId",
          "type": "uint256"
        },
        {
          "indexed": false,
          "internalType": "uint256",
          "name": "total",
          "type": "uint256"
        },
        {
          "indexed": false,
          "internalType": "uint256",
          "name": "timestamp",
          "type": "uint256"
        }
      ],
      "name": "PacketOpened",
      "type": "event"
    },
    {
      "anonymous": false,
      "inputs": [
        {
          "indexed": true,
          "internalType": "address",
          "name": "account",
          "type": "address"
        },
        {
          "indexed": false,
          "internalType": "uint256",
          "name": "amount",
          "type": "uint256"
        },
        {
          "indexed": false,
          "internalType": "uint256",
          "name": "timestamp",
          "type": "uint256"
        }
      ],
      "name": "QuillsBurned",
      "type": "event"
    },
    {
      "anonymous": false,
      "inputs": [
        {
          "indexed": false,
          "internalType": "address",
          "name": "recipient",
          "type": "address"
        },
        {
          "indexed": false,
          "internalType": "uint256",
          "name": "amount",
          "type": "uint256"
        }
      ],
      "name": "RoyaltiesSet",
      "type": "event"
    },
    {
      "anonymous": false,
      "inputs": [
        {
          "indexed": true,
          "internalType": "address",
          "name": "operator",
          "type": "address"
        },
        {
          "indexed": true,
          "internalType": "address",
          "name": "from",
          "type": "address"
        },
        {
          "indexed": true,
          "internalType": "address",
          "name": "to",
          "type": "address"
        },
        {
          "indexed": false,
          "internalType": "uint256[]",
          "name": "ids",
          "type": "uint256[]"
        },
        {
          "indexed": false,
          "internalType": "uint256[]",
          "name": "values",
          "type": "uint256[]"
        }
      ],
      "name": "TransferBatch",
      "type": "event"
    },
    {
      "anonymous": false,
      "inputs": [
        {
          "indexed": true,
          "internalType": "address",
          "name": "operator",
          "type": "address"
        },
        {
          "indexed": true,
          "internalType": "address",
          "name": "from",
          "type": "address"
        },
        {
          "indexed": true,
          "internalType": "address",
          "name": "to",
          "type": "address"
        },
        {
          "indexed": false,
          "internalType": "uint256",
          "name": "id",
          "type": "uint256"
        },
        {
          "indexed": false,
          "internalType": "uint256",
          "name": "value",
          "type": "uint256"
        }
      ],
      "name": "TransferSingle",
      "type": "event"
    },
    {
      "anonymous": false,
      "inputs": [
        {
          "indexed": false,
          "internalType": "string",
          "name": "value",
          "type": "string"
        },
        {
          "indexed": true,
          "internalType": "uint256",
          "name": "id",
          "type": "uint256"
        }
      ],
      "name": "URI",
      "type": "event"
    },
    {
      "inputs": [],
      "name": "activeIndex",
      "outputs": [
        {
          "internalType": "uint256",
          "name": "",
          "type": "uint256"
        }
      ],
      "stateMutability": "view",
      "type": "function"
    },
    {
      "inputs": [
        {
          "internalType": "address[]",
          "name": "accounts_",
          "type": "address[]"
        },
        {
          "internalType": "uint256[]",
          "name": "amounts_",
          "type": "uint256[]"
        },
        {
          "internalType": "uint256",
          "name": "tokenId",
          "type": "uint256"
        }
      ],
      "name": "adminMint",
      "outputs": [],
      "stateMutability": "nonpayable",
      "type": "function"
    },
    {
      "inputs": [
        {
          "internalType": "uint8",
          "name": "stageId_",
          "type": "uint8"
        }
      ],
      "name": "balanceLimit",
      "outputs": [
        {
          "internalType": "uint256",
          "name": "",
          "type": "uint256"
        }
      ],
      "stateMutability": "view",
      "type": "function"
    },
    {
      "inputs": [
        {
          "internalType": "address",
          "name": "account",
          "type": "address"
        },
        {
          "internalType": "uint256",
          "name": "id",
          "type": "uint256"
        }
      ],
      "name": "balanceOf",
      "outputs": [
        {
          "internalType": "uint256",
          "name": "",
          "type": "uint256"
        }
      ],
      "stateMutability": "view",
      "type": "function"
    },
    {
      "inputs": [
        {
          "internalType": "address[]",
          "name": "accounts",
          "type": "address[]"
        },
        {
          "internalType": "uint256[]",
          "name": "ids",
          "type": "uint256[]"
        }
      ],
      "name": "balanceOfBatch",
      "outputs": [
        {
          "internalType": "uint256[]",
          "name": "",
          "type": "uint256[]"
        }
      ],
      "stateMutability": "view",
      "type": "function"
    },
    {
      "inputs": [
        {
          "internalType": "uint256[]",
          "name": "gbabies",
          "type": "uint256[]"
        },
        {
          "internalType": "uint256[]",
          "name": "quills",
          "type": "uint256[]"
        }
      ],
      "name": "burnMint",
      "outputs": [],
      "stateMutability": "payable",
      "type": "function"
    },
    {
      "inputs": [],
      "name": "cardsContract",
      "outputs": [
        {
          "internalType": "contract ICards",
          "name": "",
          "type": "address"
        }
      ],
      "stateMutability": "view",
      "type": "function"
    },
    {
      "inputs": [
        {
          "internalType": "uint8",
          "name": "stageId_",
          "type": "uint8"
        },
        {
          "internalType": "address",
          "name": "account_",
          "type": "address"
        }
      ],
      "name": "currentBalance",
      "outputs": [
        {
          "internalType": "uint256",
          "name": "",
          "type": "uint256"
        }
      ],
      "stateMutability": "view",
      "type": "function"
    },
    {
      "inputs": [],
      "name": "discountPrice",
      "outputs": [
        {
          "internalType": "uint256",
          "name": "",
          "type": "uint256"
        }
      ],
      "stateMutability": "view",
      "type": "function"
    },
    {
      "inputs": [],
      "name": "eip712Domain",
      "outputs": [
        {
          "internalType": "bytes1",
          "name": "fields",
          "type": "bytes1"
        },
        {
          "internalType": "string",
          "name": "name",
          "type": "string"
        },
        {
          "internalType": "string",
          "name": "version",
          "type": "string"
        },
        {
          "internalType": "uint256",
          "name": "chainId",
          "type": "uint256"
        },
        {
          "internalType": "address",
          "name": "verifyingContract",
          "type": "address"
        },
        {
          "internalType": "bytes32",
          "name": "salt",
          "type": "bytes32"
        },
        {
          "internalType": "uint256[]",
          "name": "extensions",
          "type": "uint256[]"
        }
      ],
      "stateMutability": "view",
      "type": "function"
    },
    {
      "inputs": [],
      "name": "gbabiesContract",
      "outputs": [
        {
          "internalType": "contract IERC721ABurnableUpgradeable",
          "name": "",
          "type": "address"
        }
      ],
      "stateMutability": "view",
      "type": "function"
    },
    {
      "inputs": [
        {
          "internalType": "uint256[]",
          "name": "numbers",
          "type": "uint256[]"
        }
      ],
      "name": "getTotal",
      "outputs": [
        {
          "internalType": "uint256",
          "name": "",
          "type": "uint256"
        }
      ],
      "stateMutability": "pure",
      "type": "function"
    },
    {
      "inputs": [
        {
          "internalType": "uint256",
          "name": "",
          "type": "uint256"
        }
      ],
      "name": "idToCards",
      "outputs": [
        {
          "internalType": "uint256",
          "name": "",
          "type": "uint256"
        }
      ],
      "stateMutability": "view",
      "type": "function"
    },
    {
      "inputs": [
        {
          "internalType": "string",
          "name": "prefix_",
          "type": "string"
        },
        {
          "internalType": "string",
          "name": "suffix_",
          "type": "string"
        },
        {
          "internalType": "address",
          "name": "recipient",
          "type": "address"
        },
        {
          "internalType": "uint256",
          "name": "amount",
          "type": "uint256"
        },
        {
          "internalType": "string",
          "name": "name",
          "type": "string"
        },
        {
          "internalType": "string",
          "name": "version",
          "type": "string"
        },
        {
          "internalType": "address",
          "name": "_signer",
          "type": "address"
        }
      ],
      "name": "initialize",
      "outputs": [],
      "stateMutability": "nonpayable",
      "type": "function"
    },
    {
      "inputs": [
        {
          "internalType": "address",
          "name": "account_",
          "type": "address"
        }
      ],
      "name": "isAdmin",
      "outputs": [
        {
          "internalType": "bool",
          "name": "",
          "type": "bool"
        }
      ],
      "stateMutability": "view",
      "type": "function"
    },
    {
      "inputs": [
        {
          "internalType": "address",
          "name": "account",
          "type": "address"
        },
        {
          "internalType": "address",
          "name": "operator",
          "type": "address"
        }
      ],
      "name": "isApprovedForAll",
      "outputs": [
        {
          "internalType": "bool",
          "name": "",
          "type": "bool"
        }
      ],
      "stateMutability": "view",
      "type": "function"
    },
    {
      "inputs": [
        {
          "internalType": "address",
          "name": "to",
          "type": "address"
        }
      ],
      "name": "minted",
      "outputs": [
        {
          "internalType": "uint256",
          "name": "",
          "type": "uint256"
        }
      ],
      "stateMutability": "view",
      "type": "function"
    },
    {
      "inputs": [
        {
          "internalType": "uint256[]",
          "name": "ids",
          "type": "uint256[]"
        },
        {
          "internalType": "uint256[]",
          "name": "amounts",
          "type": "uint256[]"
        }
      ],
      "name": "open",
      "outputs": [],
      "stateMutability": "nonpayable",
      "type": "function"
    },
    {
      "inputs": [],
      "name": "owner",
      "outputs": [
        {
          "internalType": "address",
          "name": "",
          "type": "address"
        }
      ],
      "stateMutability": "view",
      "type": "function"
    },
    {
      "inputs": [],
      "name": "prefix",
      "outputs": [
        {
          "internalType": "string",
          "name": "",
          "type": "string"
        }
      ],
      "stateMutability": "view",
      "type": "function"
    },
    {
      "inputs": [
        {
          "components": [
            {
              "internalType": "uint256",
              "name": "amount",
              "type": "uint256"
            },
            {
              "internalType": "address",
              "name": "recipient",
              "type": "address"
            }
          ],
          "internalType": "struct Packets.PresaleRequest",
          "name": "request",
          "type": "tuple"
        },
        {
          "components": [
            {
              "internalType": "uint256",
              "name": "id",
              "type": "uint256"
            },
            {
              "internalType": "uint256",
              "name": "amount",
              "type": "uint256"
            }
          ],
          "internalType": "struct Packets.MintRequest[]",
          "name": "mintRequests",
          "type": "tuple[]"
        },
        {
          "internalType": "bytes",
          "name": "signature",
          "type": "bytes"
        }
      ],
      "name": "presaleMint",
      "outputs": [],
      "stateMutability": "payable",
      "type": "function"
    },
    {
      "inputs": [
        {
          "internalType": "uint8",
          "name": "stage_",
          "type": "uint8"
        }
      ],
      "name": "price",
      "outputs": [
        {
          "internalType": "uint256",
          "name": "",
          "type": "uint256"
        }
      ],
      "stateMutability": "view",
      "type": "function"
    },
    {
      "inputs": [
        {
          "components": [
            {
              "internalType": "uint256",
              "name": "id",
              "type": "uint256"
            },
            {
              "internalType": "uint256",
              "name": "amount",
              "type": "uint256"
            }
          ],
          "internalType": "struct Packets.MintRequest[]",
          "name": "mintRequests",
          "type": "tuple[]"
        }
      ],
      "name": "publicMint",
      "outputs": [],
      "stateMutability": "payable",
      "type": "function"
    },
    {
      "inputs": [],
      "name": "quillContract",
      "outputs": [
        {
          "internalType": "contract IERC721ABurnableUpgradeable",
          "name": "",
          "type": "address"
        }
      ],
      "stateMutability": "view",
      "type": "function"
    },
    {
      "inputs": [],
      "name": "randomizer",
      "outputs": [
        {
          "internalType": "contract IRandomizer",
          "name": "",
          "type": "address"
        }
      ],
      "stateMutability": "view",
      "type": "function"
    },
    {
      "inputs": [
        {
          "internalType": "uint8",
          "name": "stageId_",
          "type": "uint8"
        },
        {
          "internalType": "address",
          "name": "account_",
          "type": "address"
        }
      ],
      "name": "remainingBalance",
      "outputs": [
        {
          "internalType": "uint256",
          "name": "",
          "type": "uint256"
        }
      ],
      "stateMutability": "view",
      "type": "function"
    },
    {
      "inputs": [],
      "name": "renounceOwnership",
      "outputs": [],
      "stateMutability": "nonpayable",
      "type": "function"
    },
    {
      "inputs": [
        {
          "internalType": "uint256",
          "name": "",
          "type": "uint256"
        },
        {
          "internalType": "uint256",
          "name": "value_",
          "type": "uint256"
        }
      ],
      "name": "royaltyInfo",
      "outputs": [
        {
          "internalType": "address",
          "name": "receiver",
          "type": "address"
        },
        {
          "internalType": "uint256",
          "name": "royaltyAmount",
          "type": "uint256"
        }
      ],
      "stateMutability": "view",
      "type": "function"
    },
    {
      "inputs": [
        {
          "internalType": "address",
          "name": "from",
          "type": "address"
        },
        {
          "internalType": "address",
          "name": "to",
          "type": "address"
        },
        {
          "internalType": "uint256[]",
          "name": "ids",
          "type": "uint256[]"
        },
        {
          "internalType": "uint256[]",
          "name": "amounts",
          "type": "uint256[]"
        },
        {
          "internalType": "bytes",
          "name": "data",
          "type": "bytes"
        }
      ],
      "name": "safeBatchTransferFrom",
      "outputs": [],
      "stateMutability": "nonpayable",
      "type": "function"
    },
    {
      "inputs": [
        {
          "internalType": "address",
          "name": "from",
          "type": "address"
        },
        {
          "internalType": "address",
          "name": "to",
          "type": "address"
        },
        {
          "internalType": "uint256",
          "name": "tokenId",
          "type": "uint256"
        },
        {
          "internalType": "uint256",
          "name": "amount",
          "type": "uint256"
        },
        {
          "internalType": "bytes",
          "name": "data",
          "type": "bytes"
        }
      ],
      "name": "safeTransferFrom",
      "outputs": [],
      "stateMutability": "nonpayable",
      "type": "function"
    },
    {
      "inputs": [
        {
          "internalType": "uint256",
          "name": "index",
          "type": "uint256"
        }
      ],
      "name": "setActiveIndex",
      "outputs": [],
      "stateMutability": "nonpayable",
      "type": "function"
    },
    {
      "inputs": [
        {
          "internalType": "address",
          "name": "account_",
          "type": "address"
        },
        {
          "internalType": "bool",
          "name": "enable_",
          "type": "bool"
        }
      ],
      "name": "setAdminPermissions",
      "outputs": [],
      "stateMutability": "nonpayable",
      "type": "function"
    },
    {
      "inputs": [
        {
          "internalType": "address",
          "name": "operator",
          "type": "address"
        },
        {
          "internalType": "bool",
          "name": "approved",
          "type": "bool"
        }
      ],
      "name": "setApprovalForAll",
      "outputs": [],
      "stateMutability": "nonpayable",
      "type": "function"
    },
    {
      "inputs": [
        {
          "internalType": "contract IERC721ABurnableUpgradeable",
          "name": "gbabies",
          "type": "address"
        },
        {
          "internalType": "contract IERC721ABurnableUpgradeable",
          "name": "quills",
          "type": "address"
        },
        {
          "internalType": "contract ICards",
          "name": "cards",
          "type": "address"
        }
      ],
      "name": "setContracts",
      "outputs": [],
      "stateMutability": "nonpayable",
      "type": "function"
    },
    {
      "inputs": [
        {
          "internalType": "uint256",
          "name": "_discountPrice",
          "type": "uint256"
        }
      ],
      "name": "setDiscountPrice",
      "outputs": [],
      "stateMutability": "nonpayable",
      "type": "function"
    },
    {
      "inputs": [
        {
          "internalType": "string",
          "name": "prefix_",
          "type": "string"
        }
      ],
      "name": "setPrefix",
      "outputs": [],
      "stateMutability": "nonpayable",
      "type": "function"
    },
    {
      "inputs": [
        {
          "internalType": "uint8",
          "name": "stage_",
          "type": "uint8"
        },
        {
          "internalType": "uint256",
          "name": "value_",
          "type": "uint256"
        }
      ],
      "name": "setPrice",
      "outputs": [],
      "stateMutability": "nonpayable",
      "type": "function"
    },
    {
      "inputs": [
        {
          "internalType": "contract IRandomizer",
          "name": "_randomizer",
          "type": "address"
        }
      ],
      "name": "setRandomizer",
      "outputs": [],
      "stateMutability": "nonpayable",
      "type": "function"
    },
    {
      "inputs": [
        {
          "internalType": "address",
          "name": "recipient_",
          "type": "address"
        },
        {
          "internalType": "uint256",
          "name": "amount_",
          "type": "uint256"
        }
      ],
      "name": "setRoyalties",
      "outputs": [],
      "stateMutability": "nonpayable",
      "type": "function"
    },
    {
      "inputs": [
        {
          "internalType": "address",
          "name": "_signer",
          "type": "address"
        }
      ],
      "name": "setSigner",
      "outputs": [],
      "stateMutability": "nonpayable",
      "type": "function"
    },
    {
      "inputs": [
        {
          "internalType": "string",
          "name": "suffix_",
          "type": "string"
        }
      ],
      "name": "setSuffix",
      "outputs": [],
      "stateMutability": "nonpayable",
      "type": "function"
    },
    {
      "inputs": [],
      "name": "signer",
      "outputs": [
        {
          "internalType": "address",
          "name": "",
          "type": "address"
        }
      ],
      "stateMutability": "view",
      "type": "function"
    },
    {
      "inputs": [],
      "name": "suffix",
      "outputs": [
        {
          "internalType": "string",
          "name": "",
          "type": "string"
        }
      ],
      "stateMutability": "view",
      "type": "function"
    },
    {
      "inputs": [
        {
          "internalType": "bytes4",
          "name": "interfaceId",
          "type": "bytes4"
        }
      ],
      "name": "supportsInterface",
      "outputs": [
        {
          "internalType": "bool",
          "name": "",
          "type": "bool"
        }
      ],
      "stateMutability": "view",
      "type": "function"
    },
    {
      "inputs": [
        {
          "internalType": "uint256",
          "name": "id",
          "type": "uint256"
        }
      ],
      "name": "totalSupply",
      "outputs": [
        {
          "internalType": "uint256",
          "name": "",
          "type": "uint256"
        }
      ],
      "stateMutability": "view",
      "type": "function"
    },
    {
      "inputs": [
        {
          "internalType": "address",
          "name": "newOwner",
          "type": "address"
        }
      ],
      "name": "transferOwnership",
      "outputs": [],
      "stateMutability": "nonpayable",
      "type": "function"
    },
    {
      "inputs": [
        {
          "internalType": "uint8",
          "name": "stageId_",
          "type": "uint8"
        },
        {
          "internalType": "uint256",
          "name": "limit_",
          "type": "uint256"
        }
      ],
      "name": "updateBalanceLimit",
      "outputs": [],
      "stateMutability": "nonpayable",
      "type": "function"
    },
    {
      "inputs": [
        {
          "internalType": "uint256",
          "name": "tokenId",
          "type": "uint256"
        }
      ],
      "name": "uri",
      "outputs": [
        {
          "internalType": "string",
          "name": "",
          "type": "string"
        }
      ],
      "stateMutability": "view",
      "type": "function"
    },
    {
      "inputs": [
        {
          "internalType": "uint256",
          "name": "amount",
          "type": "uint256"
        }
      ],
      "name": "withdraw",
      "outputs": [],
      "stateMutability": "nonpayable",
      "type": "function"
    }
  ],
  "bytecode": "0x608060405234801561001057600080fd5b506155e880620000216000396000f3fe6080604052600436106102ac5760003560e01c80637d07f3c611610175578063b3066d49116100dc578063e4ab4bb911610095578063f242432a1161006f578063f242432a1461092c578063f2fde38b1461094c578063f7073c3a1461096c578063fc7643a31461098157600080fd5b8063e4ab4bb914610876578063e985e9c5146108c2578063f10fb5841461090b57600080fd5b8063b3066d4914610789578063b7fafcd7146107a9578063b903c051146107da578063bd85b03914610808578063c519cd1c14610836578063e188feda1461085657600080fd5b80638c7ea24b1161012e5780638c7ea24b146106c35780638da5cb5b146106e35780639f5226a214610701578063a1258e5e14610718578063a22cb46514610738578063b1ba72d61461075857600080fd5b80637d07f3c61461060357806384ad8e8f1461062457806384b0196e1461063b57806385cb593b146106635780638b78c116146106835780638be2227b146106a357600080fd5b80632e1a7d4d116102195780636dba1163116101d25780636dba1163146105595780636fb438dc14610579578063715018a61461059957806375d5ae9f146105ae57806375dadb32146105ce578063767bcab5146105e357600080fd5b80632e1a7d4d146104995780632eb2c2d6146104b95780634e1273f4146104d95780636a00670b146105065780636a537455146105265780636c19e7831461053957600080fd5b80631d83f8981161026b5780631d83f898146103a25780631e7269c5146103c2578063238ac933146103f9578063240ff27f1461041a57806324d7806c1461043a5780632a55205a1461045a57600080fd5b806279ee21146102b1578062fdd58e146102ef578063012c57801461031d57806301ffc9a7146103325780630e89341c14610362578063124370ad1461038f575b600080fd5b3480156102bd57600080fd5b506101fd546102d2906001600160a01b031681565b6040516001600160a01b0390911681526020015b60405180910390f35b3480156102fb57600080fd5b5061030f61030a366004614401565b6109a2565b6040519081526020016102e6565b61033061032b366004614471565b610a3d565b005b34801561033e57600080fd5b5061035261034d3660046144c8565b610a8b565b60405190151581526020016102e6565b34801561036e57600080fd5b5061038261037d3660046144e5565b610ab4565b6040516102e6919061454e565b61033061039d3660046145a5565b610abf565b3480156103ae57600080fd5b506103306103bd366004614610565b610b5c565b3480156103ce57600080fd5b5061030f6103dd366004614683565b6001600160a01b031660009081526101fe602052604090205490565b34801561040557600080fd5b506101c6546102d2906001600160a01b031681565b34801561042657600080fd5b506103306104353660046146ae565b610c40565b34801561044657600080fd5b50610352610455366004614683565b610c90565b34801561046657600080fd5b5061047a6104753660046146e7565b610cae565b604080516001600160a01b0390931683526020830191909152016102e6565b3480156104a557600080fd5b506103306104b43660046144e5565b610d04565b3480156104c557600080fd5b506103306104d4366004614852565b610d36565b3480156104e557600080fd5b506104f96104f43660046148ff565b610d5d565b6040516102e691906149fc565b34801561051257600080fd5b50610330610521366004614a20565b610e86565b610330610534366004614a7d565b610ec2565b34801561054557600080fd5b50610330610554366004614683565b61106f565b34801561056557600080fd5b5061030f610574366004614b05565b6110b7565b34801561058557600080fd5b5061030f610594366004614b31565b6110fc565b3480156105a557600080fd5b50610330611142565b3480156105ba57600080fd5b506103306105c9366004614b66565b611156565b3480156105da57600080fd5b5061038261118e565b3480156105ef57600080fd5b506103306105fe366004614683565b611221565b34801561060f57600080fd5b506101fb546102d2906001600160a01b031681565b34801561063057600080fd5b5061030f6102005481565b34801561064757600080fd5b50610650611269565b6040516102e69796959493929190614b9b565b34801561066f57600080fd5b5061033061067e366004614b66565b611307565b34801561068f57600080fd5b5061033061069e3660046144e5565b61133a565b3480156106af57600080fd5b506103306106be3660046144e5565b611365565b3480156106cf57600080fd5b506103306106de366004614401565b611390565b3480156106ef57600080fd5b506097546001600160a01b03166102d2565b34801561070d57600080fd5b5061030f6101f85481565b34801561072457600080fd5b506103306107333660046145a5565b6113c3565b34801561074457600080fd5b506103306107533660046146ae565b611492565b34801561076457600080fd5b5061030f610773366004614c0b565b60ff1660009081526101c5602052604090205490565b34801561079557600080fd5b506103306107a4366004614c26565b6114a6565b3480156107b557600080fd5b5061030f6107c4366004614c0b565b60ff166000908152610161602052604090205490565b3480156107e657600080fd5b5061030f6107f53660046144e5565b6101f96020526000908152604090205481565b34801561081457600080fd5b5061030f6108233660046144e5565b60009081526101fa602052604090205490565b34801561084257600080fd5b50610330610851366004614a20565b61150d565b34801561086257600080fd5b50610330610871366004614c71565b611549565b34801561088257600080fd5b5061030f610891366004614b05565b60ff821660009081526101c5602090815260408083206001600160a01b038516845260010190915290205492915050565b3480156108ce57600080fd5b506103526108dd366004614d48565b6001600160a01b03918216600090815260666020908152604080832093909416825291909152205460ff1690565b34801561091757600080fd5b50610201546102d2906001600160a01b031681565b34801561093857600080fd5b50610330610947366004614d66565b612033565b34801561095857600080fd5b50610330610967366004614683565b61205a565b34801561097857600080fd5b506103826120d0565b34801561098d57600080fd5b506101fc546102d2906001600160a01b031681565b60006001600160a01b038316610a125760405162461bcd60e51b815260206004820152602a60248201527f455243313135353a2061646472657373207a65726f206973206e6f742061207660448201526930b634b21037bbb732b960b11b60648201526084015b60405180910390fd5b5060008181526065602090815260408083206001600160a01b03861684529091529020545b92915050565b6002806101f85414610a615760405162461bcd60e51b8152600401610a0990614dce565b6000806000610a7086866120e0565b93509350509250610a83338383866122dc565b505050505050565b6000610a9682612300565b80610aa55750610aa582612350565b80610a375750610a3782612350565b6060610a3782612375565b6001806101f85414610ae35760405162461bcd60e51b8152600401610a0990614dce565b6000610aef86866123ae565b509050600080610b3186868080602002602001604051908101604052809392919081815260200183836020028082843760009201919091525061259992505050565b90925090506000610b428385614e06565b9050610b5133826001856127be565b505050505050505050565b610b6533610c90565b610b815760405162461bcd60e51b8152600401610a0990614e19565b83828114610bd15760405162461bcd60e51b815260206004820152601760248201527f41646d696e206d696e743a2062616420726571756573740000000000000000006044820152606401610a09565b60005b81811015610c3757610c25878783818110610bf157610bf1614e3f565b9050602002016020810190610c069190614683565b84878785818110610c1957610c19614e3f565b905060200201356127c5565b80610c2f81614e55565b915050610bd4565b50505050505050565b610c4933610c90565b610c655760405162461bcd60e51b8152600401610a0990614e19565b6001600160a01b0391909116600090815260fd60205260409020805460ff1916911515919091179055565b6001600160a01b0316600090815260fd602052604090205460ff1690565b60408051808201909152610193546001600160a01b038116808352600160a01b90910462ffffff1660208301819052909160009161271090610cf09086614e6e565b610cfa9190614e9b565b9150509250929050565b610d0d33610c90565b610d295760405162461bcd60e51b8152600401610a0990614e19565b610d3333826127ea565b50565b846001600160a01b0381163314610d5057610d5033612903565b610a8386868686866129bc565b60608151835114610dc25760405162461bcd60e51b815260206004820152602960248201527f455243313135353a206163636f756e747320616e6420696473206c656e677468604482015268040dad2e6dac2e8c6d60bb1b6064820152608401610a09565b600083516001600160401b03811115610ddd57610ddd614709565b604051908082528060200260200182016040528015610e06578160200160208202803683370190505b50905060005b8451811015610e7e57610e51858281518110610e2a57610e2a614e3f565b6020026020010151858381518110610e4457610e44614e3f565b60200260200101516109a2565b828281518110610e6357610e63614e3f565b6020908102919091010152610e7781614e55565b9050610e0c565b509392505050565b610e8f33610c90565b610eab5760405162461bcd60e51b8152600401610a0990614e19565b60ff90911660009081526101616020526040902055565b8482826000610f2784604080517f3a58bb770b0fdc7635f4460ad845c6fcf18032144a6cadcfce202c2ac00887b86020820152823591810191909152336060820152600090608001604051602081830303815290604052805190602001209050919050565b90506000610f3482612a08565b9050610f41818585612a35565b610f815760405162461bcd60e51b8152602060048201526011602482015270496e76616c6964205369676e617475726560781b6044820152606401610a09565b6001806101f85414610fa55760405162461bcd60e51b8152600401610a0990614dce565b600080600080610fb58e8e6120e0565b3360009081526101fe6020526040902054939750919550935091508f3590610fde908590614e06565b111561102c5760405162461bcd60e51b815260206004820152601f60248201527f43616e6e6f74206d696e74206d6f7265207468616e2061737369676e65642e006044820152606401610a09565b3360009081526101fe60205260408120805485929061104c908490614e06565b9091555061105e9050338383876122dc565b505050505050505050505050505050565b61107833610c90565b6110945760405162461bcd60e51b8152600401610a0990614e19565b6101c680546001600160a01b0319166001600160a01b0392909216919091179055565b60ff821660008181526101c5602081815260408084206001600160a01b0387168552600181018352908420549484529190525490916110f591614eaf565b9392505050565b60008060005b83811015610e7e5784848281811061111c5761111c614e3f565b905060200201358261112e9190614e06565b91508061113a81614e55565b915050611102565b61114a612a95565b6111546000612aef565b565b61115f33610c90565b61117b5760405162461bcd60e51b8152600401610a0990614e19565b610130611189828483614f42565b505050565b606061012f805461119e90614ec2565b80601f01602080910402602001604051908101604052809291908181526020018280546111ca90614ec2565b80156112175780601f106111ec57610100808354040283529160200191611217565b820191906000526020600020905b8154815290600101906020018083116111fa57829003601f168201915b5050505050905090565b61122a33610c90565b6112465760405162461bcd60e51b8152600401610a0990614e19565b61020180546001600160a01b0319166001600160a01b0392909216919091179055565b60006060806000806000606060c9546000801b148015611289575060ca54155b6112cd5760405162461bcd60e51b81526020600482015260156024820152741152540dcc4c8e88155b9a5b9a5d1a585b1a5e9959605a1b6044820152606401610a09565b6112d5612b41565b6112dd612b50565b60408051600080825260208201909252600f60f81b9b939a50919850469750309650945092509050565b61131033610c90565b61132c5760405162461bcd60e51b8152600401610a0990614e19565b61012f611189828483614f42565b61134333610c90565b61135f5760405162461bcd60e51b8152600401610a0990614e19565b61020055565b61136e33610c90565b61138a5760405162461bcd60e51b8152600401610a0990614e19565b6101f855565b61139933610c90565b6113b55760405162461bcd60e51b8152600401610a0990614e19565b6113bf8282612b5f565b5050565b3233146114125760405162461bcd60e51b815260206004820152601760248201527f4e6f2063616c6c732066726f6d20636f6e7472616374730000000000000000006044820152606401610a09565b6114803385858080602002602001604051908101604052809392919081815260200183836020028082843760009201919091525050604080516020808902828101820190935288825290935088925087918291850190849080828437600092019190915250612c2e92505050565b61148c84848484612e33565b50505050565b8161149c81612903565b61118983836131c1565b6114af33610c90565b6114cb5760405162461bcd60e51b8152600401610a0990614e19565b6101fb80546001600160a01b039485166001600160a01b0319918216179091556101fc8054938516938216939093179092556101fd8054919093169116179055565b61151633610c90565b6115325760405162461bcd60e51b8152600401610a0990614e19565b60ff90911660009081526101c56020526040902055565b600054610100900460ff16158080156115695750600054600160ff909116105b806115835750303b158015611583575060005460ff166001145b6115e65760405162461bcd60e51b815260206004820152602e60248201527f496e697469616c697a61626c653a20636f6e747261637420697320616c72656160448201526d191e481a5b9a5d1a585b1a5e995960921b6064820152608401610a09565b6000805460ff191660011790558015611609576000805461ff0019166101001790555b6116116131cc565b61161b888861320f565b61163360405180602001604052806000815250613251565b61163b613281565b6116436132a8565b61164d86866132ee565b611658848484613315565b7f0fce300cb38468eb74fecbca14de83ce9c827df14e4f90e2449f69b859ecb7128054600160ff1991821681179092557f59ba01267bf386871d93da16f79c2ff0bf73afef855c69ba8e727970f1f2c4c580548216831790557fa3ffa8264a5e43c979a94cd4848e9fa70bcb5af03add8c35380313d93f3e610180548216831790557f73d34c2884f94502fb1d482d02192caf4163842c8b93f9671f6082ba5a1ccf1580548216831790557f16c772b3e9aa319f7b7063aa3a3b86f1e75b554ade9d2e02be3d108ab97d931d80548216831790557f613d2f107b65d492ce98c78bafc70483b02579c4c2a57b88a15de777b57853f980548216831790557ff82425ba2020962b727a45b075b4a45d34e855c8da28a2e2f9b8149d2b5b88da80548216831790557f3bf756f4f6de00e05064edcadb575abef66a6acd701543e9469773f01163b6f480548216831790557f7f560f58c48d9de9bd66199cf84cbd6e6c81f9eaa8e9f04ff16c7a188b81168980548216831790557fdc11582e20e8b419f44ef4b3ebd28703c8a3c74d6378e4c7fe774a4bdf335c9280548216831790557f6406646511812cf097202fa10abfafb65c31155bff0b1e7dea2a3227c59c649880548216831790557f660dfbda5e85c811ff501dd9dcb165268f2f8830c7a1cbe7382126b9c738317780548216831790557ff67bc9a4b66294bfdbf1b0d507c254cda8453e05d53e0db51f7fa909b0f871b780548216831790557f37cd7bdfc604dbe39b5a7eb662363ecf6d3bd2140a3e357b84914821d942003580548216831790557fea2b69042b9e56e72eaffbbd839ce5cb4ce164c02952c3b86518d0db363cb6a080548216831790557fbb3034968a1979a8b7c32b8b8a40ddfcf923f157933cf83a86bbae484c31448080548216831790557fbea13c12d2091a85dd289e25e152450ea69e7821d8512311a824cb1ab19e8bec80548216831790557fe297f7ae1dbdff1d42155d68ee2c56a75180c4ac9179abba9b6efe55830a98f180548216831790557fdb0c88756833889a6af9845fcd8bd92ee609b9fad9165019577ac3a347d5870880548216831790557f7df666c72a50cb121dc34c5f1abf76c6e4f4ea9ae8350166d9ddcc9ae9d7808280548216831790557fb9714805c7b3a77afb2a8f70f953ce61bc41586afc4eb861a74d7ebd94384d0780548216831790557f5313ec90783836f995e51fb54cb5eb98553235c5d7f21b5a1051793523fc1cb980548216831790557ff0ad01455ebbd8cb771c98c564728f27ece9d7bd0c4cabda1d1d88717fe6d4a980548216831790557fb58684937ee37d7fb216ab0eda0b249fa588867b8b1759c2de687f80beda8e0980548216831790557f3b14d300f2f2a0701352086d3282ea36b93ddf2725226c878676188079ba811c80548216831790557ff4411caeb5e2bface4391e1aef41d77f775e5333d7316875fde3f8361619c59f80548216831790557f6c2d63af380e0eceb743755a5f5b822ada762a1b133df6bc208edd9faefd533780548216831790557f192902ca3444f6faf70d44bd64dbb7c9f342a4f1a3fa7ad07b00d424eac4b4ee80548216831790557fa2715a586f6d609d754132e374a42e40a6a024639e55cc2502b75e8897be72d480548216831790557ed5ae7eb37741d0b2942dd1fc029e7ef678156beb7f900b349071c3ce16465180548216831790557fb51b176d02a727cc74f941cf931ee9109e6b6b7ea099826c49342c26d209fb7f80548216831790557f40602445ae4eb2b0401c4c082838101ada040da73af4c1e90405082b069980b780548216831790557f9b2dac4b2aa2a5223062d57634f2ed14c03dac74d52c4c280282e519598a751d80548216831790557fd20fff4ff6cf6d1532c234b24c174f7d7dbb5f120559ec61d86cb0de76d4050a80548216831790557f1f83f6b8269c0b66e43cf25da0616a589681d93f350a2441d1c5ba7562679d1b80548216831790557fd1eaaf1c8f7fcac48f592dc6e6e47c9868d2493d22943398bff3522796903d5a80548216831790557f5b9c0b10b3bbc426ed8d675596135c1db5aff3d12933f77d97353bfba6a58bf680548216831790557fd3dd03f1fcd8d6d8ab160cf23964fc8d311babb0e7432cf9b1de698cbf879f3080548216831790557fcb161adaca6aabda2bdbc31b005604360ef3d7b10f4d2c4911d7997d94c57f8780548216831790557fce25c3e4ee22b82018b611b5afbb45cf93b58c8d6c7444d7a5dc9aa68c77ede280548216831790557f3111189fcca8bdefe3408954435c72bff1d0d9d79b3c11a1b6a8077f3325e58880548216831790557f15ee2e948bffa5fdf2f9b720efd8a6b6f8d6253930287c6694fa29c953edf64d80548216831790557f51dd4ecf048e5ef9f120ad4867b9652e64ae658bbf0deba2d7007b9b6326870280548216831790557f6e7812f35333e8d53566fe4a02f6850ba0b565ae833a017f1b744a86935494f980548216831790557f36e61c1b165a53f9e7fd7744b4f2f07270e6e6c93ccf7411473f28b97988208e80548216831790557f68902c1f5c0e52260f9dda967915da7523dcadc897709a3d3afeb40e8653e0ea80548216831790557fe372229435f273febf91ed768bf05446c35571ea5754ec28b0d2923aba53120680548216831790557f5aa5559585048f3c964b3f5f4e39bce41bd612c4f06341c3a2aa036370c29b6880548216831790557fd79156eaf85a77246f601fbeac91678a6a91e5270dda48fe0c8b8bc316ffa80780548216831790557f4588dd0f42eb06fa793bda52a25a76de6a7ff318532209bc7aadb1f962d0410e80549091168217905560057f5b9f4b3e29890e534851db0cc79af03a5861e973ebcc43c7ce7cbdc915ba9a225560197f180e5813c3d6dbfee391bda7c78a90e203593745fe288889e8b2038f078555305560647f788174486a78305a53e7f3e30c324b94119d348367a3cfe5909b18edcfd9f64b5560287feba31e7744486a1f8c0ba38c1831362670e464a45551370ddc3c482a7eb80b2d556101fa6020526114697f2c17d8e16e644355d48164662e8241a4a6ff9a8c44105e370a0d2b48fb07ac295561054b7f6b33b97f10a67f0f027b3dea661ff36fa406ac9e17a8d1467a69c91fb57d930e556101907f4c562ee05b53c60534273a7283dda48ec043d8301a3b338f9d90f9d8feee173f55600460005261012c7fa5fe82759daa34724fec0874734ce9efeb1de663eaee6bfa08b7aac2e6479b3255611fa19066071afd498d0000610e86565b660665172898800061020055611fbf6002661c6bf526340000610e86565b611fd16003664fefa17b724000610e86565b611fe36004662c68af0bb14000610e86565b8015612029576000805461ff0019169055604051600181527f7f26b83ff96e1f2b6a682f133852f6798a09c465da95921460cefb38474024989060200160405180910390a15b5050505050505050565b846001600160a01b038116331461204d5761204d33612903565b610a83868686868661336b565b612062612a95565b6001600160a01b0381166120c75760405162461bcd60e51b815260206004820152602660248201527f4f776e61626c653a206e6577206f776e657220697320746865207a65726f206160448201526564647265737360d01b6064820152608401610a09565b610d3381612aef565b6060610130805461119e90614ec2565b60008060608082808681816001600160401b0381111561210257612102614709565b60405190808252806020026020018201604052801561212b578160200160208202803683370190505b5090506000826001600160401b0381111561214857612148614709565b604051908082528060200260200182016040528015612171578160200160208202803683370190505b50905060005b838110156122915760008c8c8381811061219357612193614e3f565b9050604002018036038101906121a99190615001565b80519091506005811080156121be5750600081115b6121f75760405162461bcd60e51b815260206004820152600a602482015269125b9d985b1a5908125160b21b6044820152606401610a09565b602082015161220682826133b0565b60ff8216600090815261016160205260409020546122248282614e6e565b61222e908b614e06565b995061223a828a614e06565b98508287868151811061224f5761224f614e3f565b6020026020010181815250508186868151811061226e5761226e614e3f565b60200260200101818152505050505050808061228990614e55565b915050612177565b50600084116122cb5760405162461bcd60e51b8152600401610a09906020808252600490820152635a65726f60e01b604082015260600190565b939a92995097509195509350505050565b6122f784848460405180602001604052806000815250613432565b61148c8161357e565b60006001600160e01b03198216636cdb3d1360e11b148061233157506001600160e01b031982166303a24d0760e21b145b80610a3757506301ffc9a760e01b6001600160e01b0319831614610a37565b60006001600160e01b0319821663152a902d60e11b1480610a375750610a3782612300565b606061012f61238383613600565b610130604051602001612398939291906150c2565b6040516020818303038152906040529050919050565b600080828082036123c6576000809250925050612592565b6000805b8281101561254f5760008787838181106123e6576123e6614e3f565b6101fb546040516331a9108f60e11b8152602092909202939093013560048201819052935033926001600160a01b03169150636352211e90602401602060405180830381865afa15801561243e573d6000803e3d6000fd5b505050506040513d601f19601f8201168201806040525081019061246291906150f5565b6001600160a01b0316146124a45760405162461bcd60e51b81526020600482015260096024820152682737ba1027bbb732b960b91b6044820152606401610a09565b60008181526101ff602052604090205460ff16156124ce576124c7600284614e06565b92506124dc565b826124d881614e55565b9350505b6101fb54604051630852cd8d60e31b8152600481018390526001600160a01b03909116906342966c6890602401600060405180830381600087803b15801561252357600080fd5b505af1158015612537573d6000803e3d6000fd5b5050505050808061254790614e55565b9150506123ca565b506040805182815242602082015233917f70b70c02602ca6e3674cf269aee296d4ec20016bd0640168d48dc4c0ffd8f4eb910160405180910390a2925060009150505b9250929050565b805160009081908082036125b35750600093849350915050565b6125be600282615112565b156126035760405162461bcd60e51b815260206004820152601560248201527426bab9ba103132903234bb34b9b1363290313c901960591b6044820152606401610a09565b60005b8181101561275957600085828151811061262257612622614e3f565b60209081029190910101516101fc546040516331a9108f60e11b81526004810183905291925033916001600160a01b0390911690636352211e90602401602060405180830381865afa15801561267c573d6000803e3d6000fd5b505050506040513d601f19601f820116820180604052508101906126a091906150f5565b6001600160a01b0316146126e65760405162461bcd60e51b815260206004820152600d60248201526c24b73b30b634b21027bbb732b960991b6044820152606401610a09565b6101fc54604051630852cd8d60e31b8152600481018390526001600160a01b03909116906342966c6890602401600060405180830381600087803b15801561272d57600080fd5b505af1158015612741573d6000803e3d6000fd5b5050505050808061275190614e55565b915050612606565b506040805182815242602082015233917f79fab521652b87c8011ae6ea52cbe559f476249bc98c7e473977e9ccb5d9ca11910160405180910390a260006127a1600283614e9b565b90508061020054826127b39190614e6e565b935093505050915091565b6122f78484845b6127cf81836133b0565b61118983828460405180602001604052806000815250613692565b8047101561283a5760405162461bcd60e51b815260206004820152601d60248201527f416464726573733a20696e73756666696369656e742062616c616e63650000006044820152606401610a09565b6000826001600160a01b03168260405160006040518083038185875af1925050503d8060008114612887576040519150601f19603f3d011682016040523d82523d6000602084013e61288c565b606091505b50509050806111895760405162461bcd60e51b815260206004820152603a60248201527f416464726573733a20756e61626c6520746f2073656e642076616c75652c207260448201527f6563697069656e74206d617920686176652072657665727465640000000000006064820152608401610a09565b6daaeb6d7670e522a718067333cd4e3b15610d3357604051633185c44d60e21b81523060048201526001600160a01b03821660248201526daaeb6d7670e522a718067333cd4e9063c617113490604401602060405180830381865afa158015612970573d6000803e3d6000fd5b505050506040513d601f19601f820116820180604052508101906129949190615126565b610d3357604051633b79c77360e21b81526001600160a01b0382166004820152602401610a09565b6001600160a01b0385163314806129d857506129d885336108dd565b6129f45760405162461bcd60e51b8152600401610a0990615143565b612a018585858585613765565b5050505050565b6000610a37612a156138fc565b8360405161190160f01b8152600281019290925260228201526042902090565b600080612a7a84848080601f016020809104026020016040519081016040528093929190818152602001838380828437600092019190915250899392505061390b9050565b6101c6546001600160a01b0391821691161495945050505050565b6097546001600160a01b031633146111545760405162461bcd60e51b815260206004820181905260248201527f4f776e61626c653a2063616c6c6572206973206e6f7420746865206f776e65726044820152606401610a09565b609780546001600160a01b038381166001600160a01b0319831681179093556040519116919082907f8be0079c531659141344cd1fd0a4f28419497f9722a3daafe3b4186f6b6457e090600090a35050565b606060cb805461119e90614ec2565b606060cc805461119e90614ec2565b612710811115612bb15760405162461bcd60e51b815260206004820152601c60248201527f526f79616c746965733a2076616c756520697320746f6f2068696768000000006044820152606401610a09565b6040805180820182526001600160a01b03841680825262ffffff8416602092830181905261019380546001600160b81b0319168317600160a01b90920291909117905582519081529081018390527f908669f35f6fb3977a956ba70597841fe541d1e8491ca3c025161e258d3bfdb6910160405180910390a15050565b6001600160a01b038316612c905760405162461bcd60e51b815260206004820152602360248201527f455243313135353a206275726e2066726f6d20746865207a65726f206164647260448201526265737360e81b6064820152608401610a09565b8051825114612cb15760405162461bcd60e51b8152600401610a0990615191565b604080516020810190915260009081905233905b8351811015612dc6576000848281518110612ce257612ce2614e3f565b602002602001015190506000848381518110612d0057612d00614e3f565b60209081029190910181015160008481526065835260408082206001600160a01b038c168352909352919091205490915081811015612d8d5760405162461bcd60e51b8152602060048201526024808201527f455243313135353a206275726e20616d6f756e7420657863656564732062616c604482015263616e636560e01b6064820152608401610a09565b60009283526065602090815260408085206001600160a01b038b1686529091529092209103905580612dbe81614e55565b915050612cc5565b5060006001600160a01b0316846001600160a01b0316826001600160a01b03167f4a39dc06d4c0dbc64b70af90fd698a233a518aa5d07e595d983b8c0526c8f7fb8686604051612e179291906151d9565b60405180910390a460408051602081019091526000905261148c565b6101fd54604080516318160ddd60e01b8152905185926000926001600160a01b03909116916318160ddd916004808201926020929091908290030181865afa158015612e83573d6000803e3d6000fd5b505050506040513d601f19601f82011682018060405250810190612ea79190615207565b90506000612eb6826001614e06565b905060005b838110156130f8576000888883818110612ed757612ed7614e3f565b9050602002013590506000878784818110612ef457612ef4614e3f565b90506020020135905080600003612f0c5750506130e6565b8160040361305f5760005b81811015613059576102015460405163459a4f9f60e11b8152600481018790523360248201526000916001600160a01b031690638b349f3e906044016020604051808303816000875af1158015612f72573d6000803e3d6000fd5b505050506040513d601f19601f82011682018060405250810190612f969190615207565b905060008111612fde5760405162461bcd60e51b81526020600482015260136024820152724572726f723a204f7574206f662073746f636b60681b6044820152606401610a09565b60008181526101f9602090815260409182902054825184815291820189905291810182905242606082015233907f0a687302320f32c8a887a190a8e55d073eccceafc6b5534bce199380854e3bff9060800160405180910390a26130428188614e06565b96505050808061305190614e55565b915050612f17565b506130e3565b60008281526101f96020526040812054905b828110156130e057604080518581526020810188905290810183905242606082015233907f0a687302320f32c8a887a190a8e55d073eccceafc6b5534bce199380854e3bff9060800160405180910390a26130cc8287614e06565b9550806130d881614e55565b915050613071565b50505b50505b806130f081614e55565b915050612ebb565b50600060016131078484614eaf565b6131119190614eaf565b9050600081116131525760405162461bcd60e51b815260206004820152600c60248201526b4d696e74696e67205a65726f60a01b6044820152606401610a09565b6101fd546040516340c10f1960e01b8152336004820152602481018390526001600160a01b03909116906340c10f1990604401600060405180830381600087803b15801561319f57600080fd5b505af11580156131b3573d6000803e3d6000fd5b505050505050505050505050565b6113bf338383613927565b600054610100900460ff166131f35760405162461bcd60e51b8152600401610a0990615220565b33600090815260fd60205260409020805460ff19166001179055565b600054610100900460ff166132365760405162461bcd60e51b8152600401610a0990615220565b61012f613243838261526b565b50610130611189828261526b565b600054610100900460ff166132785760405162461bcd60e51b8152600401610a0990615220565b610d3381613a07565b600054610100900460ff166111545760405162461bcd60e51b8152600401610a0990615220565b600054610100900460ff166132cf5760405162461bcd60e51b8152600401610a0990615220565b611154733cc6cdda760b79bafa08df41ecfa224f810dceb66001613a13565b600054610100900460ff166113b55760405162461bcd60e51b8152600401610a0990615220565b600054610100900460ff1661333c5760405162461bcd60e51b8152600401610a0990615220565b6133468383613bb2565b6101c680546001600160a01b0319166001600160a01b03929092169190911790555050565b6001600160a01b038516331480613387575061338785336108dd565b6133a35760405162461bcd60e51b8152600401610a0990615143565b612a018585858585613be3565b60008281526101fa60205260408120546133cb908390614eaf565b101561340a5760405162461bcd60e51b815260206004820152600e60248201526d4578636565647320537570706c7960901b6044820152606401610a09565b60008281526101fa602052604081208054839290613429908490614eaf565b90915550505050565b6001600160a01b0384166134585760405162461bcd60e51b8152600401610a099061532a565b81518351146134795760405162461bcd60e51b8152600401610a0990615191565b3360005b84518110156135165783818151811061349857613498614e3f565b6020026020010151606560008784815181106134b6576134b6614e3f565b602002602001015181526020019081526020016000206000886001600160a01b03166001600160a01b0316815260200190815260200160002060008282546134fe9190614e06565b9091555081905061350e81614e55565b91505061347d565b50846001600160a01b031660006001600160a01b0316826001600160a01b03167f4a39dc06d4c0dbc64b70af90fd698a233a518aa5d07e595d983b8c0526c8f7fb87876040516135679291906151d9565b60405180910390a4612a0181600087878787613d06565b803410156135bf5760405162461bcd60e51b815260206004820152600e60248201526d141c9a58d94e881a5b9d985b1a5960921b6044820152606401610a09565b60006135cb8234614eaf565b905080156113bf57604051339082156108fc029083906000818181858888f19350505050158015611189573d6000803e3d6000fd5b6060600061360d83613e61565b60010190506000816001600160401b0381111561362c5761362c614709565b6040519080825280601f01601f191660200182016040528015613656576020820181803683370190505b5090508181016020015b600019016f181899199a1a9b1b9c1cb0b131b232b360811b600a86061a8153600a850494508461366057509392505050565b6001600160a01b0384166136b85760405162461bcd60e51b8152600401610a099061532a565b3360006136c485613f39565b905060006136d185613f39565b905060008681526065602090815260408083206001600160a01b038b16845290915281208054879290613705908490614e06565b909155505060408051878152602081018790526001600160a01b03808a1692600092918716917fc3d58168c5ae7397731d063d5bbf3d657854427343f4c083240f7aacaa2d0f62910160405180910390a4610c3783600089898989613f84565b81518351146137865760405162461bcd60e51b8152600401610a0990615191565b6001600160a01b0384166137ac5760405162461bcd60e51b8152600401610a099061536b565b3360005b84518110156138965760008582815181106137cd576137cd614e3f565b6020026020010151905060008583815181106137eb576137eb614e3f565b60209081029190910181015160008481526065835260408082206001600160a01b038e16835290935291909120549091508181101561383c5760405162461bcd60e51b8152600401610a09906153b0565b60008381526065602090815260408083206001600160a01b038e8116855292528083208585039055908b1682528120805484929061387b908490614e06565b925050819055505050508061388f90614e55565b90506137b0565b50846001600160a01b0316866001600160a01b0316826001600160a01b03167f4a39dc06d4c0dbc64b70af90fd698a233a518aa5d07e595d983b8c0526c8f7fb87876040516138e69291906151d9565b60405180910390a4610a83818787878787613d06565b600061390661403f565b905090565b600080600061391a85856140b3565b91509150610e7e816140f5565b816001600160a01b0316836001600160a01b03160361399a5760405162461bcd60e51b815260206004820152602960248201527f455243313135353a2073657474696e6720617070726f76616c20737461747573604482015268103337b91039b2b63360b91b6064820152608401610a09565b6001600160a01b03838116600081815260666020908152604080832094871680845294825291829020805460ff191686151590811790915591519182527f17307eab39ab6107e8899845ad3d59bd9653f200f220920489ca2b5937696c31910160405180910390a3505050565b60676113bf828261526b565b600054610100900460ff16613a3a5760405162461bcd60e51b8152600401610a0990615220565b6daaeb6d7670e522a718067333cd4e3b156113bf5760405163c3c5a54760e01b81523060048201526daaeb6d7670e522a718067333cd4e9063c3c5a547906024016020604051808303816000875af1158015613a9a573d6000803e3d6000fd5b505050506040513d601f19601f82011682018060405250810190613abe9190615126565b6113bf578015613b3257604051633e9f1edf60e11b81523060048201526001600160a01b03831660248201526daaeb6d7670e522a718067333cd4e90637d3e3dbe906044015b600060405180830381600087803b158015613b1e57600080fd5b505af1158015610a83573d6000803e3d6000fd5b6001600160a01b03821615613b815760405163a0af290360e01b81523060048201526001600160a01b03831660248201526daaeb6d7670e522a718067333cd4e9063a0af290390604401613b04565b604051632210724360e11b81523060048201526daaeb6d7670e522a718067333cd4e90634420e48690602401613b04565b600054610100900460ff16613bd95760405162461bcd60e51b8152600401610a0990615220565b6113bf828261423f565b6001600160a01b038416613c095760405162461bcd60e51b8152600401610a099061536b565b336000613c1585613f39565b90506000613c2285613f39565b905060008681526065602090815260408083206001600160a01b038c16845290915290205485811015613c675760405162461bcd60e51b8152600401610a09906153b0565b60008781526065602090815260408083206001600160a01b038d8116855292528083208985039055908a16825281208054889290613ca6908490614e06565b909155505060408051888152602081018890526001600160a01b03808b16928c821692918816917fc3d58168c5ae7397731d063d5bbf3d657854427343f4c083240f7aacaa2d0f62910160405180910390a4610b51848a8a8a8a8a613f84565b6001600160a01b0384163b15610a835760405163bc197c8160e01b81526001600160a01b0385169063bc197c8190613d4a90899089908890889088906004016153fa565b6020604051808303816000875af1925050508015613d85575060408051601f3d908101601f19168201909252613d8291810190615458565b60015b613e3157613d91615475565b806308c379a003613dca5750613da5615491565b80613db05750613dcc565b8060405162461bcd60e51b8152600401610a09919061454e565b505b60405162461bcd60e51b815260206004820152603460248201527f455243313135353a207472616e7366657220746f206e6f6e2d455243313135356044820152732932b1b2b4bb32b91034b6b83632b6b2b73a32b960611b6064820152608401610a09565b6001600160e01b0319811663bc197c8160e01b14610c375760405162461bcd60e51b8152600401610a099061551a565b60008072184f03e93ff9f4daa797ed6e38ed64bf6a1f0160401b8310613ea05772184f03e93ff9f4daa797ed6e38ed64bf6a1f0160401b830492506040015b6d04ee2d6d415b85acef81000000008310613ecc576d04ee2d6d415b85acef8100000000830492506020015b662386f26fc100008310613eea57662386f26fc10000830492506010015b6305f5e1008310613f02576305f5e100830492506008015b6127108310613f1657612710830492506004015b60648310613f28576064830492506002015b600a8310610a375760010192915050565b60408051600180825281830190925260609160009190602080830190803683370190505090508281600081518110613f7357613f73614e3f565b602090810291909101015292915050565b6001600160a01b0384163b15610a835760405163f23a6e6160e01b81526001600160a01b0385169063f23a6e6190613fc89089908990889088908890600401615562565b6020604051808303816000875af1925050508015614003575060408051601f3d908101601f1916820190925261400091810190615458565b60015b61400f57613d91615475565b6001600160e01b0319811663f23a6e6160e01b14610c375760405162461bcd60e51b8152600401610a099061551a565b60007f8b73c3c69bb8fe3d512ecc4cf759cc79239f7b179b0ffacaa9a75d522b39400f61406a61428e565b6140726142e7565b60408051602081019490945283019190915260608201524660808201523060a082015260c00160405160208183030381529060405280519060200120905090565b60008082516041036140e95760208301516040840151606085015160001a6140dd87828585614318565b94509450505050612592565b50600090506002612592565b60008160048111156141095761410961559c565b036141115750565b60018160048111156141255761412561559c565b036141725760405162461bcd60e51b815260206004820152601860248201527f45434453413a20696e76616c6964207369676e617475726500000000000000006044820152606401610a09565b60028160048111156141865761418661559c565b036141d35760405162461bcd60e51b815260206004820152601f60248201527f45434453413a20696e76616c6964207369676e6174757265206c656e677468006044820152606401610a09565b60038160048111156141e7576141e761559c565b03610d335760405162461bcd60e51b815260206004820152602260248201527f45434453413a20696e76616c6964207369676e6174757265202773272076616c604482015261756560f01b6064820152608401610a09565b600054610100900460ff166142665760405162461bcd60e51b8152600401610a0990615220565b60cb614272838261526b565b5060cc61427f828261526b565b5050600060c981905560ca5550565b600080614299612b41565b8051909150156142b0578051602090910120919050565b60c95480156142bf5792915050565b7fc5d2460186f7233c927e7db2dcc703c0e500b653ca82273b7bfad8045d85a4709250505090565b6000806142f2612b50565b805190915015614309578051602090910120919050565b60ca5480156142bf5792915050565b6000807f7fffffffffffffffffffffffffffffff5d576e7357a4501ddfe92f46681b20a083111561434f57506000905060036143d3565b6040805160008082526020820180845289905260ff881692820192909252606081018690526080810185905260019060a0016020604051602081039080840390855afa1580156143a3573d6000803e3d6000fd5b5050604051601f1901519150506001600160a01b0381166143cc576000600192509250506143d3565b9150600090505b94509492505050565b6001600160a01b0381168114610d3357600080fd5b80356143fc816143dc565b919050565b6000806040838503121561441457600080fd5b823561441f816143dc565b946020939093013593505050565b60008083601f84011261443f57600080fd5b5081356001600160401b0381111561445657600080fd5b6020830191508360208260061b850101111561259257600080fd5b6000806020838503121561448457600080fd5b82356001600160401b0381111561449a57600080fd5b6144a68582860161442d565b90969095509350505050565b6001600160e01b031981168114610d3357600080fd5b6000602082840312156144da57600080fd5b81356110f5816144b2565b6000602082840312156144f757600080fd5b5035919050565b60005b83811015614519578181015183820152602001614501565b50506000910152565b6000815180845261453a8160208601602086016144fe565b601f01601f19169290920160200192915050565b6020815260006110f56020830184614522565b60008083601f84011261457357600080fd5b5081356001600160401b0381111561458a57600080fd5b6020830191508360208260051b850101111561259257600080fd5b600080600080604085870312156145bb57600080fd5b84356001600160401b03808211156145d257600080fd5b6145de88838901614561565b909650945060208701359150808211156145f757600080fd5b5061460487828801614561565b95989497509550505050565b60008060008060006060868803121561462857600080fd5b85356001600160401b038082111561463f57600080fd5b61464b89838a01614561565b9097509550602088013591508082111561466457600080fd5b5061467188828901614561565b96999598509660400135949350505050565b60006020828403121561469557600080fd5b81356110f5816143dc565b8015158114610d3357600080fd5b600080604083850312156146c157600080fd5b82356146cc816143dc565b915060208301356146dc816146a0565b809150509250929050565b600080604083850312156146fa57600080fd5b50508035926020909101359150565b634e487b7160e01b600052604160045260246000fd5b601f8201601f191681016001600160401b038111828210171561474457614744614709565b6040525050565b60006001600160401b0382111561476457614764614709565b5060051b60200190565b600082601f83011261477f57600080fd5b8135602061478c8261474b565b604051614799828261471f565b83815260059390931b85018201928281019150868411156147b957600080fd5b8286015b848110156147d457803583529183019183016147bd565b509695505050505050565b600082601f8301126147f057600080fd5b81356001600160401b0381111561480957614809614709565b604051614820601f8301601f19166020018261471f565b81815284602083860101111561483557600080fd5b816020850160208301376000918101602001919091529392505050565b600080600080600060a0868803121561486a57600080fd5b8535614875816143dc565b94506020860135614885816143dc565b935060408601356001600160401b03808211156148a157600080fd5b6148ad89838a0161476e565b945060608801359150808211156148c357600080fd5b6148cf89838a0161476e565b935060808801359150808211156148e557600080fd5b506148f2888289016147df565b9150509295509295909350565b6000806040838503121561491257600080fd5b82356001600160401b038082111561492957600080fd5b818501915085601f83011261493d57600080fd5b8135602061494a8261474b565b604051614957828261471f565b83815260059390931b850182019282810191508984111561497757600080fd5b948201945b8386101561499e57853561498f816143dc565b8252948201949082019061497c565b965050860135925050808211156149b457600080fd5b50610cfa8582860161476e565b600081518084526020808501945080840160005b838110156149f1578151875295820195908201906001016149d5565b509495945050505050565b6020815260006110f560208301846149c1565b803560ff811681146143fc57600080fd5b60008060408385031215614a3357600080fd5b61441f83614a0f565b60008083601f840112614a4e57600080fd5b5081356001600160401b03811115614a6557600080fd5b60208301915083602082850101111561259257600080fd5b60008060008060008587036080811215614a9657600080fd5b6040811215614aa457600080fd5b5085945060408601356001600160401b0380821115614ac257600080fd5b614ace89838a0161442d565b90965094506060880135915080821115614ae757600080fd5b50614af488828901614a3c565b969995985093965092949392505050565b60008060408385031215614b1857600080fd5b614b2183614a0f565b915060208301356146dc816143dc565b60008060208385031215614b4457600080fd5b82356001600160401b03811115614b5a57600080fd5b6144a685828601614561565b60008060208385031215614b7957600080fd5b82356001600160401b03811115614b8f57600080fd5b6144a685828601614a3c565b60ff60f81b8816815260e060208201526000614bba60e0830189614522565b8281036040840152614bcc8189614522565b606084018890526001600160a01b038716608085015260a0840186905283810360c08501529050614bfd81856149c1565b9a9950505050505050505050565b600060208284031215614c1d57600080fd5b6110f582614a0f565b600080600060608486031215614c3b57600080fd5b8335614c46816143dc565b92506020840135614c56816143dc565b91506040840135614c66816143dc565b809150509250925092565b600080600080600080600060e0888a031215614c8c57600080fd5b87356001600160401b0380821115614ca357600080fd5b614caf8b838c016147df565b985060208a0135915080821115614cc557600080fd5b614cd18b838c016147df565b9750614cdf60408b016143f1565b965060608a0135955060808a0135915080821115614cfc57600080fd5b614d088b838c016147df565b945060a08a0135915080821115614d1e57600080fd5b50614d2b8a828b016147df565b925050614d3a60c089016143f1565b905092959891949750929550565b60008060408385031215614d5b57600080fd5b8235614b21816143dc565b600080600080600060a08688031215614d7e57600080fd5b8535614d89816143dc565b94506020860135614d99816143dc565b9350604086013592506060860135915060808601356001600160401b03811115614dc257600080fd5b6148f2888289016147df565b6020808252600890820152674e6f74206c69766560c01b604082015260600190565b634e487b7160e01b600052601160045260246000fd5b80820180821115610a3757610a37614df0565b6020808252600c908201526b2737ba1030b71030b236b4b760a11b604082015260600190565b634e487b7160e01b600052603260045260246000fd5b600060018201614e6757614e67614df0565b5060010190565b8082028115828204841417610a3757610a37614df0565b634e487b7160e01b600052601260045260246000fd5b600082614eaa57614eaa614e85565b500490565b81810381811115610a3757610a37614df0565b600181811c90821680614ed657607f821691505b602082108103614ef657634e487b7160e01b600052602260045260246000fd5b50919050565b601f82111561118957600081815260208120601f850160051c81016020861015614f235750805b601f850160051c820191505b81811015610a8357828155600101614f2f565b6001600160401b03831115614f5957614f59614709565b614f6d83614f678354614ec2565b83614efc565b6000601f841160018114614fa15760008515614f895750838201355b600019600387901b1c1916600186901b178355612a01565b600083815260209020601f19861690835b82811015614fd25786850135825560209485019460019092019101614fb2565b5086821015614fef5760001960f88860031b161c19848701351681555b505060018560011b0183555050505050565b60006040828403121561501357600080fd5b604051604081018181106001600160401b038211171561503557615035614709565b604052823581526020928301359281019290925250919050565b6000815461505c81614ec2565b600182811680156150745760018114615089576150b8565b60ff19841687528215158302870194506150b8565b8560005260208060002060005b858110156150af5781548a820152908401908201615096565b50505082870194505b5050505092915050565b60006150ce828661504f565b84516150de8183602089016144fe565b6150ea8183018661504f565b979650505050505050565b60006020828403121561510757600080fd5b81516110f5816143dc565b60008261512157615121614e85565b500690565b60006020828403121561513857600080fd5b81516110f5816146a0565b6020808252602e908201527f455243313135353a2063616c6c6572206973206e6f7420746f6b656e206f776e60408201526d195c881bdc88185c1c1c9bdd995960921b606082015260800190565b60208082526028908201527f455243313135353a2069647320616e6420616d6f756e7473206c656e677468206040820152670dad2e6dac2e8c6d60c31b606082015260800190565b6040815260006151ec60408301856149c1565b82810360208401526151fe81856149c1565b95945050505050565b60006020828403121561521957600080fd5b5051919050565b6020808252602b908201527f496e697469616c697a61626c653a20636f6e7472616374206973206e6f74206960408201526a6e697469616c697a696e6760a81b606082015260800190565b81516001600160401b0381111561528457615284614709565b615298816152928454614ec2565b84614efc565b602080601f8311600181146152cd57600084156152b55750858301515b600019600386901b1c1916600185901b178555610a83565b600085815260208120601f198616915b828110156152fc578886015182559484019460019091019084016152dd565b508582101561531a5787850151600019600388901b60f8161c191681555b5050505050600190811b01905550565b60208082526021908201527f455243313135353a206d696e7420746f20746865207a65726f206164647265736040820152607360f81b606082015260800190565b60208082526025908201527f455243313135353a207472616e7366657220746f20746865207a65726f206164604082015264647265737360d81b606082015260800190565b6020808252602a908201527f455243313135353a20696e73756666696369656e742062616c616e636520666f60408201526939103a3930b739b332b960b11b606082015260800190565b6001600160a01b0386811682528516602082015260a060408201819052600090615426908301866149c1565b828103606084015261543881866149c1565b9050828103608084015261544c8185614522565b98975050505050505050565b60006020828403121561546a57600080fd5b81516110f5816144b2565b600060033d111561548e5760046000803e5060005160e01c5b90565b600060443d101561549f5790565b6040516003193d81016004833e81513d6001600160401b0381602484011181841117156154ce57505050505090565b82850191508151818111156154e65750505050505090565b843d87010160208285010111156155005750505050505090565b61550f6020828601018761471f565b509095945050505050565b60208082526028908201527f455243313135353a204552433131353552656365697665722072656a656374656040820152676420746f6b656e7360c01b606082015260800190565b6001600160a01b03868116825285166020820152604081018490526060810183905260a0608082018190526000906150ea90830184614522565b634e487b7160e01b600052602160045260246000fdfea2646970667358221220554f087e2d8f49c320b6969a5aa3d2de8a116af26ebc7b35a147ff3ca5e5e24264736f6c63430008110033",
  "linkReferences": {},
  "deployedLinkReferences": {}
}