{
  "_format": "hh-sol-artifact-1",
  "contractName": "Packets",
  "sourceName": "contracts/src/contracts/Packets.sol",
  "abi": [
    {
      "inputs": [
        {
          "internalType": "address",
          "name": "operator",
          "type": "address"
        }
      ],
      "name": "OperatorNotAllowed",
      "type": "error"
    },
    {
      "anonymous": false,
      "inputs": [
        {
          "indexed": true,
          "internalType": "address",
          "name": "account",
          "type": "address"
        },
        {
          "indexed": true,
          "internalType": "address",
          "name": "operator",
          "type": "address"
        },
        {
          "indexed": false,
          "internalType": "bool",
          "name": "approved",
          "type": "bool"
        }
      ],
      "name": "ApprovalForAll",
      "type": "event"
    },
    {
      "anonymous": false,
      "inputs": [],
      "name": "EIP712DomainChanged",
      "type": "event"
    },
    {
      "anonymous": false,
      "inputs": [
        {
          "indexed": true,
          "internalType": "address",
          "name": "account",
          "type": "address"
        },
        {
          "indexed": false,
          "internalType": "uint256",
          "name": "amount",
          "type": "uint256"
        },
        {
          "indexed": false,
          "internalType": "uint256",
          "name": "timestamp",
          "type": "uint256"
        }
      ],
      "name": "GbabiesBurned",
      "type": "event"
    },
    {
      "anonymous": false,
      "inputs": [
        {
          "indexed": false,
          "internalType": "uint8",
          "name": "version",
          "type": "uint8"
        }
      ],
      "name": "Initialized",
      "type": "event"
    },
    {
      "anonymous": false,
      "inputs": [
        {
          "indexed": true,
          "internalType": "address",
          "name": "previousOwner",
          "type": "address"
        },
        {
          "indexed": true,
          "internalType": "address",
          "name": "newOwner",
          "type": "address"
        }
      ],
      "name": "OwnershipTransferred",
      "type": "event"
    },
    {
      "anonymous": false,
      "inputs": [
        {
          "indexed": true,
          "internalType": "address",
          "name": "account",
          "type": "address"
        },
        {
          "indexed": false,
          "internalType": "uint256",
          "name": "cardId",
          "type": "uint256"
        },
        {
          "indexed": false,
          "internalType": "uint256",
          "name": "startingId",
          "type": "uint256"
        },
        {
          "indexed": false,
          "internalType": "uint256",
          "name": "total",
          "type": "uint256"
        },
        {
          "indexed": false,
          "internalType": "uint256",
          "name": "timestamp",
          "type": "uint256"
        }
      ],
      "name": "PacketOpened",
      "type": "event"
    },
    {
      "anonymous": false,
      "inputs": [
        {
          "indexed": true,
          "internalType": "address",
          "name": "account",
          "type": "address"
        },
        {
          "indexed": false,
          "internalType": "uint256",
          "name": "amount",
          "type": "uint256"
        },
        {
          "indexed": false,
          "internalType": "uint256",
          "name": "timestamp",
          "type": "uint256"
        }
      ],
      "name": "QuillsBurned",
      "type": "event"
    },
    {
      "anonymous": false,
      "inputs": [
        {
          "indexed": false,
          "internalType": "address",
          "name": "recipient",
          "type": "address"
        },
        {
          "indexed": false,
          "internalType": "uint256",
          "name": "amount",
          "type": "uint256"
        }
      ],
      "name": "RoyaltiesSet",
      "type": "event"
    },
    {
      "anonymous": false,
      "inputs": [
        {
          "indexed": true,
          "internalType": "address",
          "name": "operator",
          "type": "address"
        },
        {
          "indexed": true,
          "internalType": "address",
          "name": "from",
          "type": "address"
        },
        {
          "indexed": true,
          "internalType": "address",
          "name": "to",
          "type": "address"
        },
        {
          "indexed": false,
          "internalType": "uint256[]",
          "name": "ids",
          "type": "uint256[]"
        },
        {
          "indexed": false,
          "internalType": "uint256[]",
          "name": "values",
          "type": "uint256[]"
        }
      ],
      "name": "TransferBatch",
      "type": "event"
    },
    {
      "anonymous": false,
      "inputs": [
        {
          "indexed": true,
          "internalType": "address",
          "name": "operator",
          "type": "address"
        },
        {
          "indexed": true,
          "internalType": "address",
          "name": "from",
          "type": "address"
        },
        {
          "indexed": true,
          "internalType": "address",
          "name": "to",
          "type": "address"
        },
        {
          "indexed": false,
          "internalType": "uint256",
          "name": "id",
          "type": "uint256"
        },
        {
          "indexed": false,
          "internalType": "uint256",
          "name": "value",
          "type": "uint256"
        }
      ],
      "name": "TransferSingle",
      "type": "event"
    },
    {
      "anonymous": false,
      "inputs": [
        {
          "indexed": false,
          "internalType": "string",
          "name": "value",
          "type": "string"
        },
        {
          "indexed": true,
          "internalType": "uint256",
          "name": "id",
          "type": "uint256"
        }
      ],
      "name": "URI",
      "type": "event"
    },
    {
      "inputs": [],
      "name": "activeIndex",
      "outputs": [
        {
          "internalType": "uint256",
          "name": "",
          "type": "uint256"
        }
      ],
      "stateMutability": "view",
      "type": "function"
    },
    {
      "inputs": [
        {
          "internalType": "address[]",
          "name": "accounts_",
          "type": "address[]"
        },
        {
          "internalType": "uint256[]",
          "name": "amounts_",
          "type": "uint256[]"
        },
        {
          "internalType": "uint256",
          "name": "tokenId",
          "type": "uint256"
        }
      ],
      "name": "adminMint",
      "outputs": [],
      "stateMutability": "nonpayable",
      "type": "function"
    },
    {
      "inputs": [
        {
          "internalType": "uint8",
          "name": "stageId_",
          "type": "uint8"
        }
      ],
      "name": "balanceLimit",
      "outputs": [
        {
          "internalType": "uint256",
          "name": "",
          "type": "uint256"
        }
      ],
      "stateMutability": "view",
      "type": "function"
    },
    {
      "inputs": [
        {
          "internalType": "address",
          "name": "account",
          "type": "address"
        },
        {
          "internalType": "uint256",
          "name": "id",
          "type": "uint256"
        }
      ],
      "name": "balanceOf",
      "outputs": [
        {
          "internalType": "uint256",
          "name": "",
          "type": "uint256"
        }
      ],
      "stateMutability": "view",
      "type": "function"
    },
    {
      "inputs": [
        {
          "internalType": "address[]",
          "name": "accounts",
          "type": "address[]"
        },
        {
          "internalType": "uint256[]",
          "name": "ids",
          "type": "uint256[]"
        }
      ],
      "name": "balanceOfBatch",
      "outputs": [
        {
          "internalType": "uint256[]",
          "name": "",
          "type": "uint256[]"
        }
      ],
      "stateMutability": "view",
      "type": "function"
    },
    {
      "inputs": [
        {
          "internalType": "uint256[]",
          "name": "gbabies",
          "type": "uint256[]"
        },
        {
          "internalType": "uint256[]",
          "name": "quills",
          "type": "uint256[]"
        }
      ],
      "name": "burnMint",
      "outputs": [],
      "stateMutability": "payable",
      "type": "function"
    },
    {
      "inputs": [],
      "name": "cardsContract",
      "outputs": [
        {
          "internalType": "contract ICards",
          "name": "",
          "type": "address"
        }
      ],
      "stateMutability": "view",
      "type": "function"
    },
    {
      "inputs": [
        {
          "internalType": "uint8",
          "name": "stageId_",
          "type": "uint8"
        },
        {
          "internalType": "address",
          "name": "account_",
          "type": "address"
        }
      ],
      "name": "currentBalance",
      "outputs": [
        {
          "internalType": "uint256",
          "name": "",
          "type": "uint256"
        }
      ],
      "stateMutability": "view",
      "type": "function"
    },
    {
      "inputs": [],
      "name": "deadAddress",
      "outputs": [
        {
          "internalType": "address",
          "name": "",
          "type": "address"
        }
      ],
      "stateMutability": "view",
      "type": "function"
    },
    {
      "inputs": [],
      "name": "discountPrice",
      "outputs": [
        {
          "internalType": "uint256",
          "name": "",
          "type": "uint256"
        }
      ],
      "stateMutability": "view",
      "type": "function"
    },
    {
      "inputs": [],
      "name": "eip712Domain",
      "outputs": [
        {
          "internalType": "bytes1",
          "name": "fields",
          "type": "bytes1"
        },
        {
          "internalType": "string",
          "name": "name",
          "type": "string"
        },
        {
          "internalType": "string",
          "name": "version",
          "type": "string"
        },
        {
          "internalType": "uint256",
          "name": "chainId",
          "type": "uint256"
        },
        {
          "internalType": "address",
          "name": "verifyingContract",
          "type": "address"
        },
        {
          "internalType": "bytes32",
          "name": "salt",
          "type": "bytes32"
        },
        {
          "internalType": "uint256[]",
          "name": "extensions",
          "type": "uint256[]"
        }
      ],
      "stateMutability": "view",
      "type": "function"
    },
    {
      "inputs": [],
      "name": "gbabiesContract",
      "outputs": [
        {
          "internalType": "contract IERC721ABurnableUpgradeable",
          "name": "",
          "type": "address"
        }
      ],
      "stateMutability": "view",
      "type": "function"
    },
    {
      "inputs": [
        {
          "internalType": "uint256[]",
          "name": "numbers",
          "type": "uint256[]"
        }
      ],
      "name": "getTotal",
      "outputs": [
        {
          "internalType": "uint256",
          "name": "",
          "type": "uint256"
        }
      ],
      "stateMutability": "pure",
      "type": "function"
    },
    {
      "inputs": [
        {
          "internalType": "uint256",
          "name": "",
          "type": "uint256"
        }
      ],
      "name": "idToCards",
      "outputs": [
        {
          "internalType": "uint256",
          "name": "",
          "type": "uint256"
        }
      ],
      "stateMutability": "view",
      "type": "function"
    },
    {
      "inputs": [
        {
          "internalType": "string",
          "name": "prefix_",
          "type": "string"
        },
        {
          "internalType": "string",
          "name": "suffix_",
          "type": "string"
        },
        {
          "internalType": "address",
          "name": "recipient",
          "type": "address"
        },
        {
          "internalType": "uint256",
          "name": "amount",
          "type": "uint256"
        },
        {
          "internalType": "string",
          "name": "name",
          "type": "string"
        },
        {
          "internalType": "string",
          "name": "version",
          "type": "string"
        },
        {
          "internalType": "address",
          "name": "_signer",
          "type": "address"
        }
      ],
      "name": "initialize",
      "outputs": [],
      "stateMutability": "nonpayable",
      "type": "function"
    },
    {
      "inputs": [
        {
          "internalType": "address",
          "name": "account_",
          "type": "address"
        }
      ],
      "name": "isAdmin",
      "outputs": [
        {
          "internalType": "bool",
          "name": "",
          "type": "bool"
        }
      ],
      "stateMutability": "view",
      "type": "function"
    },
    {
      "inputs": [
        {
          "internalType": "address",
          "name": "account",
          "type": "address"
        },
        {
          "internalType": "address",
          "name": "operator",
          "type": "address"
        }
      ],
      "name": "isApprovedForAll",
      "outputs": [
        {
          "internalType": "bool",
          "name": "",
          "type": "bool"
        }
      ],
      "stateMutability": "view",
      "type": "function"
    },
    {
      "inputs": [
        {
          "internalType": "address",
          "name": "to",
          "type": "address"
        }
      ],
      "name": "minted",
      "outputs": [
        {
          "internalType": "uint256",
          "name": "",
          "type": "uint256"
        }
      ],
      "stateMutability": "view",
      "type": "function"
    },
    {
      "inputs": [
        {
          "internalType": "uint256[]",
          "name": "ids",
          "type": "uint256[]"
        },
        {
          "internalType": "uint256[]",
          "name": "amounts",
          "type": "uint256[]"
        }
      ],
      "name": "open",
      "outputs": [],
      "stateMutability": "nonpayable",
      "type": "function"
    },
    {
      "inputs": [],
      "name": "owner",
      "outputs": [
        {
          "internalType": "address",
          "name": "",
          "type": "address"
        }
      ],
      "stateMutability": "view",
      "type": "function"
    },
    {
      "inputs": [],
      "name": "prefix",
      "outputs": [
        {
          "internalType": "string",
          "name": "",
          "type": "string"
        }
      ],
      "stateMutability": "view",
      "type": "function"
    },
    {
      "inputs": [
        {
          "components": [
            {
              "internalType": "uint256",
              "name": "amount",
              "type": "uint256"
            },
            {
              "internalType": "address",
              "name": "recipient",
              "type": "address"
            }
          ],
          "internalType": "struct Packets.PresaleRequest",
          "name": "request",
          "type": "tuple"
        },
        {
          "components": [
            {
              "internalType": "uint256",
              "name": "id",
              "type": "uint256"
            },
            {
              "internalType": "uint256",
              "name": "amount",
              "type": "uint256"
            }
          ],
          "internalType": "struct Packets.MintRequest[]",
          "name": "mintRequests",
          "type": "tuple[]"
        },
        {
          "internalType": "bytes",
          "name": "signature",
          "type": "bytes"
        }
      ],
      "name": "presaleMint",
      "outputs": [],
      "stateMutability": "payable",
      "type": "function"
    },
    {
      "inputs": [
        {
          "internalType": "uint8",
          "name": "stage_",
          "type": "uint8"
        }
      ],
      "name": "price",
      "outputs": [
        {
          "internalType": "uint256",
          "name": "",
          "type": "uint256"
        }
      ],
      "stateMutability": "view",
      "type": "function"
    },
    {
      "inputs": [
        {
          "components": [
            {
              "internalType": "uint256",
              "name": "id",
              "type": "uint256"
            },
            {
              "internalType": "uint256",
              "name": "amount",
              "type": "uint256"
            }
          ],
          "internalType": "struct Packets.MintRequest[]",
          "name": "mintRequests",
          "type": "tuple[]"
        }
      ],
      "name": "publicMint",
      "outputs": [],
      "stateMutability": "payable",
      "type": "function"
    },
    {
      "inputs": [],
      "name": "quillContract",
      "outputs": [
        {
          "internalType": "contract IERC721ABurnableUpgradeable",
          "name": "",
          "type": "address"
        }
      ],
      "stateMutability": "view",
      "type": "function"
    },
    {
      "inputs": [],
      "name": "randomizer",
      "outputs": [
        {
          "internalType": "contract IRandomizer",
          "name": "",
          "type": "address"
        }
      ],
      "stateMutability": "view",
      "type": "function"
    },
    {
      "inputs": [
        {
          "internalType": "uint8",
          "name": "stageId_",
          "type": "uint8"
        },
        {
          "internalType": "address",
          "name": "account_",
          "type": "address"
        }
      ],
      "name": "remainingBalance",
      "outputs": [
        {
          "internalType": "uint256",
          "name": "",
          "type": "uint256"
        }
      ],
      "stateMutability": "view",
      "type": "function"
    },
    {
      "inputs": [],
      "name": "renounceOwnership",
      "outputs": [],
      "stateMutability": "nonpayable",
      "type": "function"
    },
    {
      "inputs": [
        {
          "internalType": "uint256",
          "name": "",
          "type": "uint256"
        },
        {
          "internalType": "uint256",
          "name": "value_",
          "type": "uint256"
        }
      ],
      "name": "royaltyInfo",
      "outputs": [
        {
          "internalType": "address",
          "name": "receiver",
          "type": "address"
        },
        {
          "internalType": "uint256",
          "name": "royaltyAmount",
          "type": "uint256"
        }
      ],
      "stateMutability": "view",
      "type": "function"
    },
    {
      "inputs": [
        {
          "internalType": "address",
          "name": "from",
          "type": "address"
        },
        {
          "internalType": "address",
          "name": "to",
          "type": "address"
        },
        {
          "internalType": "uint256[]",
          "name": "ids",
          "type": "uint256[]"
        },
        {
          "internalType": "uint256[]",
          "name": "amounts",
          "type": "uint256[]"
        },
        {
          "internalType": "bytes",
          "name": "data",
          "type": "bytes"
        }
      ],
      "name": "safeBatchTransferFrom",
      "outputs": [],
      "stateMutability": "nonpayable",
      "type": "function"
    },
    {
      "inputs": [
        {
          "internalType": "address",
          "name": "from",
          "type": "address"
        },
        {
          "internalType": "address",
          "name": "to",
          "type": "address"
        },
        {
          "internalType": "uint256",
          "name": "tokenId",
          "type": "uint256"
        },
        {
          "internalType": "uint256",
          "name": "amount",
          "type": "uint256"
        },
        {
          "internalType": "bytes",
          "name": "data",
          "type": "bytes"
        }
      ],
      "name": "safeTransferFrom",
      "outputs": [],
      "stateMutability": "nonpayable",
      "type": "function"
    },
    {
      "inputs": [
        {
          "internalType": "uint256",
          "name": "index",
          "type": "uint256"
        }
      ],
      "name": "setActiveIndex",
      "outputs": [],
      "stateMutability": "nonpayable",
      "type": "function"
    },
    {
      "inputs": [
        {
          "internalType": "address",
          "name": "account_",
          "type": "address"
        },
        {
          "internalType": "bool",
          "name": "enable_",
          "type": "bool"
        }
      ],
      "name": "setAdminPermissions",
      "outputs": [],
      "stateMutability": "nonpayable",
      "type": "function"
    },
    {
      "inputs": [
        {
          "internalType": "address",
          "name": "operator",
          "type": "address"
        },
        {
          "internalType": "bool",
          "name": "approved",
          "type": "bool"
        }
      ],
      "name": "setApprovalForAll",
      "outputs": [],
      "stateMutability": "nonpayable",
      "type": "function"
    },
    {
      "inputs": [
        {
          "internalType": "contract IERC721ABurnableUpgradeable",
          "name": "gbabies",
          "type": "address"
        },
        {
          "internalType": "contract IERC721ABurnableUpgradeable",
          "name": "quills",
          "type": "address"
        },
        {
          "internalType": "contract ICards",
          "name": "cards",
          "type": "address"
        }
      ],
      "name": "setContracts",
      "outputs": [],
      "stateMutability": "nonpayable",
      "type": "function"
    },
    {
      "inputs": [
        {
          "internalType": "address",
          "name": "_deadAddress",
          "type": "address"
        }
      ],
      "name": "setDeadAddress",
      "outputs": [],
      "stateMutability": "nonpayable",
      "type": "function"
    },
    {
      "inputs": [
        {
          "internalType": "uint256",
          "name": "_discountPrice",
          "type": "uint256"
        }
      ],
      "name": "setDiscountPrice",
      "outputs": [],
      "stateMutability": "nonpayable",
      "type": "function"
    },
    {
      "inputs": [
        {
          "internalType": "string",
          "name": "prefix_",
          "type": "string"
        }
      ],
      "name": "setPrefix",
      "outputs": [],
      "stateMutability": "nonpayable",
      "type": "function"
    },
    {
      "inputs": [
        {
          "internalType": "uint8",
          "name": "stage_",
          "type": "uint8"
        },
        {
          "internalType": "uint256",
          "name": "value_",
          "type": "uint256"
        }
      ],
      "name": "setPrice",
      "outputs": [],
      "stateMutability": "nonpayable",
      "type": "function"
    },
    {
      "inputs": [
        {
          "internalType": "contract IRandomizer",
          "name": "_randomizer",
          "type": "address"
        }
      ],
      "name": "setRandomizer",
      "outputs": [],
      "stateMutability": "nonpayable",
      "type": "function"
    },
    {
      "inputs": [
        {
          "internalType": "address",
          "name": "recipient_",
          "type": "address"
        },
        {
          "internalType": "uint256",
          "name": "amount_",
          "type": "uint256"
        }
      ],
      "name": "setRoyalties",
      "outputs": [],
      "stateMutability": "nonpayable",
      "type": "function"
    },
    {
      "inputs": [
        {
          "internalType": "address",
          "name": "_signer",
          "type": "address"
        }
      ],
      "name": "setSigner",
      "outputs": [],
      "stateMutability": "nonpayable",
      "type": "function"
    },
    {
      "inputs": [
        {
          "internalType": "string",
          "name": "suffix_",
          "type": "string"
        }
      ],
      "name": "setSuffix",
      "outputs": [],
      "stateMutability": "nonpayable",
      "type": "function"
    },
    {
      "inputs": [
        {
          "internalType": "uint256[]",
          "name": "ids",
          "type": "uint256[]"
        },
        {
          "internalType": "uint256[]",
          "name": "values",
          "type": "uint256[]"
        }
      ],
      "name": "setTotalSupply",
      "outputs": [],
      "stateMutability": "nonpayable",
      "type": "function"
    },
    {
      "inputs": [],
      "name": "signer",
      "outputs": [
        {
          "internalType": "address",
          "name": "",
          "type": "address"
        }
      ],
      "stateMutability": "view",
      "type": "function"
    },
    {
      "inputs": [],
      "name": "suffix",
      "outputs": [
        {
          "internalType": "string",
          "name": "",
          "type": "string"
        }
      ],
      "stateMutability": "view",
      "type": "function"
    },
    {
      "inputs": [
        {
          "internalType": "bytes4",
          "name": "interfaceId",
          "type": "bytes4"
        }
      ],
      "name": "supportsInterface",
      "outputs": [
        {
          "internalType": "bool",
          "name": "",
          "type": "bool"
        }
      ],
      "stateMutability": "view",
      "type": "function"
    },
    {
      "inputs": [
        {
          "internalType": "uint256",
          "name": "id",
          "type": "uint256"
        }
      ],
      "name": "totalSupply",
      "outputs": [
        {
          "internalType": "uint256",
          "name": "",
          "type": "uint256"
        }
      ],
      "stateMutability": "view",
      "type": "function"
    },
    {
      "inputs": [
        {
          "internalType": "address",
          "name": "newOwner",
          "type": "address"
        }
      ],
      "name": "transferOwnership",
      "outputs": [],
      "stateMutability": "nonpayable",
      "type": "function"
    },
    {
      "inputs": [
        {
          "internalType": "uint8",
          "name": "stageId_",
          "type": "uint8"
        },
        {
          "internalType": "uint256",
          "name": "limit_",
          "type": "uint256"
        }
      ],
      "name": "updateBalanceLimit",
      "outputs": [],
      "stateMutability": "nonpayable",
      "type": "function"
    },
    {
      "inputs": [
        {
          "internalType": "uint256",
          "name": "tokenId",
          "type": "uint256"
        }
      ],
      "name": "uri",
      "outputs": [
        {
          "internalType": "string",
          "name": "",
          "type": "string"
        }
      ],
      "stateMutability": "view",
      "type": "function"
    },
    {
      "inputs": [
        {
          "internalType": "uint256",
          "name": "amount",
          "type": "uint256"
        }
      ],
      "name": "withdraw",
      "outputs": [],
      "stateMutability": "nonpayable",
      "type": "function"
    }
  ],
  "bytecode": "0x608060405234801561001057600080fd5b506157ce80620000216000396000f3fe6080604052600436106102fd5760003560e01c80637d07f3c611610190578063b3066d49116100dc578063e4ab4bb911610095578063f242432a1161006f578063f242432a146109de578063f2fde38b146109fe578063f7073c3a14610a1e578063fc7643a314610a3357600080fd5b8063e4ab4bb914610928578063e985e9c514610974578063f10fb584146109bd57600080fd5b8063b3066d491461083b578063b7fafcd71461085b578063b903c0511461088c578063bd85b039146108ba578063c519cd1c146108e8578063e188feda1461090857600080fd5b80638c7ea24b116101495780639f5226a2116101235780639f5226a2146107b3578063a1258e5e146107ca578063a22cb465146107ea578063b1ba72d61461080a57600080fd5b80638c7ea24b146107555780638da5cb5b146107755780639dca31d21461079357600080fd5b80637d07f3c61461069557806384ad8e8f146106b657806384b0196e146106cd57806385cb593b146106f55780638b78c116146107155780638be2227b1461073557600080fd5b80632e1a7d4d1161024f5780636dba11631161020857806375d5ae9f116101e257806375d5ae9f1461062057806375dadb3214610640578063767bcab51461065557806377975e0b1461067557600080fd5b80636dba1163146105cb5780636fb438dc146105eb578063715018a61461060b57600080fd5b80632e1a7d4d1461050b5780632eb2c2d61461052b5780634e1273f41461054b5780636a00670b146105785780636a537455146105985780636c19e783146105ab57600080fd5b80631d83f898116102bc578063240ff27f11610296578063240ff27f1461046b57806324d7806c1461048b57806327c8f835146104ab5780632a55205a146104cc57600080fd5b80631d83f898146103f35780631e7269c514610413578063238ac9331461044a57600080fd5b806279ee2114610302578062fdd58e14610340578063012c57801461036e57806301ffc9a7146103835780630e89341c146103b3578063124370ad146103e0575b600080fd5b34801561030e57600080fd5b506101fd54610323906001600160a01b031681565b6040516001600160a01b0390911681526020015b60405180910390f35b34801561034c57600080fd5b5061036061035b36600461459b565b610a54565b604051908152602001610337565b61038161037c36600461460b565b610aef565b005b34801561038f57600080fd5b506103a361039e366004614662565b610b3d565b6040519015158152602001610337565b3480156103bf57600080fd5b506103d36103ce36600461467f565b610b66565b60405161033791906146e8565b6103816103ee36600461473f565b610b71565b3480156103ff57600080fd5b5061038161040e3660046147aa565b610c0e565b34801561041f57600080fd5b5061036061042e36600461481d565b6001600160a01b031660009081526101fe602052604090205490565b34801561045657600080fd5b506101c654610323906001600160a01b031681565b34801561047757600080fd5b50610381610486366004614848565b610cf2565b34801561049757600080fd5b506103a36104a636600461481d565b610d42565b3480156104b757600080fd5b5061020254610323906001600160a01b031681565b3480156104d857600080fd5b506104ec6104e7366004614881565b610d60565b604080516001600160a01b039093168352602083019190915201610337565b34801561051757600080fd5b5061038161052636600461467f565b610db6565b34801561053757600080fd5b506103816105463660046149ec565b610de8565b34801561055757600080fd5b5061056b610566366004614a99565b610e0f565b6040516103379190614b96565b34801561058457600080fd5b50610381610593366004614bba565b610f38565b6103816105a6366004614c17565b610f74565b3480156105b757600080fd5b506103816105c636600461481d565b611121565b3480156105d757600080fd5b506103606105e6366004614c9f565b611169565b3480156105f757600080fd5b50610360610606366004614ccb565b6111ae565b34801561061757600080fd5b506103816111f4565b34801561062c57600080fd5b5061038161063b366004614d00565b611208565b34801561064c57600080fd5b506103d3611240565b34801561066157600080fd5b5061038161067036600461481d565b6112d3565b34801561068157600080fd5b5061038161069036600461481d565b61131b565b3480156106a157600080fd5b506101fb54610323906001600160a01b031681565b3480156106c257600080fd5b506103606102005481565b3480156106d957600080fd5b506106e2611363565b6040516103379796959493929190614d35565b34801561070157600080fd5b50610381610710366004614d00565b611401565b34801561072157600080fd5b5061038161073036600461467f565b611434565b34801561074157600080fd5b5061038161075036600461467f565b61145f565b34801561076157600080fd5b5061038161077036600461459b565b61148a565b34801561078157600080fd5b506097546001600160a01b0316610323565b34801561079f57600080fd5b506103816107ae366004614da5565b6114bd565b3480156107bf57600080fd5b506103606101f85481565b3480156107d657600080fd5b506103816107e536600461473f565b61154c565b3480156107f657600080fd5b50610381610805366004614848565b61161b565b34801561081657600080fd5b50610360610825366004614df1565b60ff1660009081526101c5602052604090205490565b34801561084757600080fd5b50610381610856366004614e0c565b61162f565b34801561086757600080fd5b50610360610876366004614df1565b60ff166000908152610161602052604090205490565b34801561089857600080fd5b506103606108a736600461467f565b6101f96020526000908152604090205481565b3480156108c657600080fd5b506103606108d536600461467f565b60009081526101fa602052604090205490565b3480156108f457600080fd5b50610381610903366004614bba565b611696565b34801561091457600080fd5b50610381610923366004614e57565b6116d2565b34801561093457600080fd5b50610360610943366004614c9f565b60ff821660009081526101c5602090815260408083206001600160a01b038516845260010190915290205492915050565b34801561098057600080fd5b506103a361098f366004614f2e565b6001600160a01b03918216600090815260666020908152604080832093909416825291909152205460ff1690565b3480156109c957600080fd5b5061020154610323906001600160a01b031681565b3480156109ea57600080fd5b506103816109f9366004614f4c565b6121bc565b348015610a0a57600080fd5b50610381610a1936600461481d565b6121e3565b348015610a2a57600080fd5b506103d3612259565b348015610a3f57600080fd5b506101fc54610323906001600160a01b031681565b60006001600160a01b038316610ac45760405162461bcd60e51b815260206004820152602a60248201527f455243313135353a2061646472657373207a65726f206973206e6f742061207660448201526930b634b21037bbb732b960b11b60648201526084015b60405180910390fd5b5060008181526065602090815260408083206001600160a01b03861684529091529020545b92915050565b6002806101f85414610b135760405162461bcd60e51b8152600401610abb90614fb4565b6000806000610b228686612269565b93509350509250610b3533838386612465565b505050505050565b6000610b4882612489565b80610b575750610b57826124d9565b80610ae95750610ae9826124d9565b6060610ae9826124fe565b6001806101f85414610b955760405162461bcd60e51b8152600401610abb90614fb4565b6000610ba18686612537565b509050600080610be386868080602002602001604051908101604052809392919081815260200183836020028082843760009201919091525061272292505050565b90925090506000610bf48385614fec565b9050610c033382600185612958565b505050505050505050565b610c1733610d42565b610c335760405162461bcd60e51b8152600401610abb90614fff565b83828114610c835760405162461bcd60e51b815260206004820152601760248201527f41646d696e206d696e743a2062616420726571756573740000000000000000006044820152606401610abb565b60005b81811015610ce957610cd7878783818110610ca357610ca3615025565b9050602002016020810190610cb8919061481d565b868684818110610cca57610cca615025565b905060200201358561295f565b80610ce18161503b565b915050610c86565b50505050505050565b610cfb33610d42565b610d175760405162461bcd60e51b8152600401610abb90614fff565b6001600160a01b0391909116600090815260fd60205260409020805460ff1916911515919091179055565b6001600160a01b0316600090815260fd602052604090205460ff1690565b60408051808201909152610193546001600160a01b038116808352600160a01b90910462ffffff1660208301819052909160009161271090610da29086615054565b610dac9190615081565b9150509250929050565b610dbf33610d42565b610ddb5760405162461bcd60e51b8152600401610abb90614fff565b610de53382612984565b50565b846001600160a01b0381163314610e0257610e0233612a9d565b610b358686868686612b56565b60608151835114610e745760405162461bcd60e51b815260206004820152602960248201527f455243313135353a206163636f756e747320616e6420696473206c656e677468604482015268040dad2e6dac2e8c6d60bb1b6064820152608401610abb565b600083516001600160401b03811115610e8f57610e8f6148a3565b604051908082528060200260200182016040528015610eb8578160200160208202803683370190505b50905060005b8451811015610f3057610f03858281518110610edc57610edc615025565b6020026020010151858381518110610ef657610ef6615025565b6020026020010151610a54565b828281518110610f1557610f15615025565b6020908102919091010152610f298161503b565b9050610ebe565b509392505050565b610f4133610d42565b610f5d5760405162461bcd60e51b8152600401610abb90614fff565b60ff90911660009081526101616020526040902055565b8482826000610fd984604080517f3a58bb770b0fdc7635f4460ad845c6fcf18032144a6cadcfce202c2ac00887b86020820152823591810191909152336060820152600090608001604051602081830303815290604052805190602001209050919050565b90506000610fe682612ba2565b9050610ff3818585612bcf565b6110335760405162461bcd60e51b8152602060048201526011602482015270496e76616c6964205369676e617475726560781b6044820152606401610abb565b6001806101f854146110575760405162461bcd60e51b8152600401610abb90614fb4565b6000806000806110678e8e612269565b3360009081526101fe6020526040902054939750919550935091508f3590611090908590614fec565b11156110de5760405162461bcd60e51b815260206004820152601f60248201527f43616e6e6f74206d696e74206d6f7265207468616e2061737369676e65642e006044820152606401610abb565b3360009081526101fe6020526040812080548592906110fe908490614fec565b90915550611110905033838387612465565b505050505050505050505050505050565b61112a33610d42565b6111465760405162461bcd60e51b8152600401610abb90614fff565b6101c680546001600160a01b0319166001600160a01b0392909216919091179055565b60ff821660008181526101c5602081815260408084206001600160a01b0387168552600181018352908420549484529190525490916111a791615095565b9392505050565b60008060005b83811015610f30578484828181106111ce576111ce615025565b90506020020135826111e09190614fec565b9150806111ec8161503b565b9150506111b4565b6111fc612c2f565b6112066000612c89565b565b61121133610d42565b61122d5760405162461bcd60e51b8152600401610abb90614fff565b61013061123b828483615128565b505050565b606061012f8054611250906150a8565b80601f016020809104026020016040519081016040528092919081815260200182805461127c906150a8565b80156112c95780601f1061129e576101008083540402835291602001916112c9565b820191906000526020600020905b8154815290600101906020018083116112ac57829003601f168201915b5050505050905090565b6112dc33610d42565b6112f85760405162461bcd60e51b8152600401610abb90614fff565b61020180546001600160a01b0319166001600160a01b0392909216919091179055565b61132433610d42565b6113405760405162461bcd60e51b8152600401610abb90614fff565b61020280546001600160a01b0319166001600160a01b0392909216919091179055565b60006060806000806000606060c9546000801b148015611383575060ca54155b6113c75760405162461bcd60e51b81526020600482015260156024820152741152540dcc4c8e88155b9a5b9a5d1a585b1a5e9959605a1b6044820152606401610abb565b6113cf612cdb565b6113d7612cea565b60408051600080825260208201909252600f60f81b9b939a50919850469750309650945092509050565b61140a33610d42565b6114265760405162461bcd60e51b8152600401610abb90614fff565b61012f61123b828483615128565b61143d33610d42565b6114595760405162461bcd60e51b8152600401610abb90614fff565b61020055565b61146833610d42565b6114845760405162461bcd60e51b8152600401610abb90614fff565b6101f855565b61149333610d42565b6114af5760405162461bcd60e51b8152600401610abb90614fff565b6114b98282612cf9565b5050565b6114c633610d42565b6114e25760405162461bcd60e51b8152600401610abb90614fff565b60005b825181101561123b5781818151811061150057611500615025565b60200260200101516101fa600085848151811061151f5761151f615025565b602002602001015181526020019081526020016000208190555080806115449061503b565b9150506114e5565b32331461159b5760405162461bcd60e51b815260206004820152601760248201527f4e6f2063616c6c732066726f6d20636f6e7472616374730000000000000000006044820152606401610abb565b6116093385858080602002602001604051908101604052809392919081815260200183836020028082843760009201919091525050604080516020808902828101820190935288825290935088925087918291850190849080828437600092019190915250612dc892505050565b61161584848484612fcd565b50505050565b8161162581612a9d565b61123b838361335b565b61163833610d42565b6116545760405162461bcd60e51b8152600401610abb90614fff565b6101fb80546001600160a01b039485166001600160a01b0319918216179091556101fc8054938516938216939093179092556101fd8054919093169116179055565b61169f33610d42565b6116bb5760405162461bcd60e51b8152600401610abb90614fff565b60ff90911660009081526101c56020526040902055565b600054610100900460ff16158080156116f25750600054600160ff909116105b8061170c5750303b15801561170c575060005460ff166001145b61176f5760405162461bcd60e51b815260206004820152602e60248201527f496e697469616c697a61626c653a20636f6e747261637420697320616c72656160448201526d191e481a5b9a5d1a585b1a5e995960921b6064820152608401610abb565b6000805460ff191660011790558015611792576000805461ff0019166101001790555b61179a613366565b6117a488886133a9565b6117bc604051806020016040528060008152506133eb565b6117c461341b565b6117cc613442565b6117d68686613488565b6117e18484846134af565b7f0fce300cb38468eb74fecbca14de83ce9c827df14e4f90e2449f69b859ecb7128054600160ff1991821681179092557f59ba01267bf386871d93da16f79c2ff0bf73afef855c69ba8e727970f1f2c4c580548216831790557fa3ffa8264a5e43c979a94cd4848e9fa70bcb5af03add8c35380313d93f3e610180548216831790557f73d34c2884f94502fb1d482d02192caf4163842c8b93f9671f6082ba5a1ccf1580548216831790557f16c772b3e9aa319f7b7063aa3a3b86f1e75b554ade9d2e02be3d108ab97d931d80548216831790557f613d2f107b65d492ce98c78bafc70483b02579c4c2a57b88a15de777b57853f980548216831790557ff82425ba2020962b727a45b075b4a45d34e855c8da28a2e2f9b8149d2b5b88da80548216831790557f3bf756f4f6de00e05064edcadb575abef66a6acd701543e9469773f01163b6f480548216831790557f7f560f58c48d9de9bd66199cf84cbd6e6c81f9eaa8e9f04ff16c7a188b81168980548216831790557fdc11582e20e8b419f44ef4b3ebd28703c8a3c74d6378e4c7fe774a4bdf335c9280548216831790557f6406646511812cf097202fa10abfafb65c31155bff0b1e7dea2a3227c59c649880548216831790557f660dfbda5e85c811ff501dd9dcb165268f2f8830c7a1cbe7382126b9c738317780548216831790557ff67bc9a4b66294bfdbf1b0d507c254cda8453e05d53e0db51f7fa909b0f871b780548216831790557f37cd7bdfc604dbe39b5a7eb662363ecf6d3bd2140a3e357b84914821d942003580548216831790557fea2b69042b9e56e72eaffbbd839ce5cb4ce164c02952c3b86518d0db363cb6a080548216831790557fbb3034968a1979a8b7c32b8b8a40ddfcf923f157933cf83a86bbae484c31448080548216831790557fbea13c12d2091a85dd289e25e152450ea69e7821d8512311a824cb1ab19e8bec80548216831790557fe297f7ae1dbdff1d42155d68ee2c56a75180c4ac9179abba9b6efe55830a98f180548216831790557fdb0c88756833889a6af9845fcd8bd92ee609b9fad9165019577ac3a347d5870880548216831790557f7df666c72a50cb121dc34c5f1abf76c6e4f4ea9ae8350166d9ddcc9ae9d7808280548216831790557fb9714805c7b3a77afb2a8f70f953ce61bc41586afc4eb861a74d7ebd94384d0780548216831790557f5313ec90783836f995e51fb54cb5eb98553235c5d7f21b5a1051793523fc1cb980548216831790557ff0ad01455ebbd8cb771c98c564728f27ece9d7bd0c4cabda1d1d88717fe6d4a980548216831790557fb58684937ee37d7fb216ab0eda0b249fa588867b8b1759c2de687f80beda8e0980548216831790557f3b14d300f2f2a0701352086d3282ea36b93ddf2725226c878676188079ba811c80548216831790557ff4411caeb5e2bface4391e1aef41d77f775e5333d7316875fde3f8361619c59f80548216831790557f6c2d63af380e0eceb743755a5f5b822ada762a1b133df6bc208edd9faefd533780548216831790557f192902ca3444f6faf70d44bd64dbb7c9f342a4f1a3fa7ad07b00d424eac4b4ee80548216831790557fa2715a586f6d609d754132e374a42e40a6a024639e55cc2502b75e8897be72d480548216831790557ed5ae7eb37741d0b2942dd1fc029e7ef678156beb7f900b349071c3ce16465180548216831790557fb51b176d02a727cc74f941cf931ee9109e6b6b7ea099826c49342c26d209fb7f80548216831790557f40602445ae4eb2b0401c4c082838101ada040da73af4c1e90405082b069980b780548216831790557f9b2dac4b2aa2a5223062d57634f2ed14c03dac74d52c4c280282e519598a751d80548216831790557fd20fff4ff6cf6d1532c234b24c174f7d7dbb5f120559ec61d86cb0de76d4050a80548216831790557f1f83f6b8269c0b66e43cf25da0616a589681d93f350a2441d1c5ba7562679d1b80548216831790557fd1eaaf1c8f7fcac48f592dc6e6e47c9868d2493d22943398bff3522796903d5a80548216831790557f5b9c0b10b3bbc426ed8d675596135c1db5aff3d12933f77d97353bfba6a58bf680548216831790557fd3dd03f1fcd8d6d8ab160cf23964fc8d311babb0e7432cf9b1de698cbf879f3080548216831790557fcb161adaca6aabda2bdbc31b005604360ef3d7b10f4d2c4911d7997d94c57f8780548216831790557fce25c3e4ee22b82018b611b5afbb45cf93b58c8d6c7444d7a5dc9aa68c77ede280548216831790557f3111189fcca8bdefe3408954435c72bff1d0d9d79b3c11a1b6a8077f3325e58880548216831790557f15ee2e948bffa5fdf2f9b720efd8a6b6f8d6253930287c6694fa29c953edf64d80548216831790557f51dd4ecf048e5ef9f120ad4867b9652e64ae658bbf0deba2d7007b9b6326870280548216831790557f6e7812f35333e8d53566fe4a02f6850ba0b565ae833a017f1b744a86935494f980548216831790557f36e61c1b165a53f9e7fd7744b4f2f07270e6e6c93ccf7411473f28b97988208e80548216831790557f68902c1f5c0e52260f9dda967915da7523dcadc897709a3d3afeb40e8653e0ea80548216831790557fe372229435f273febf91ed768bf05446c35571ea5754ec28b0d2923aba53120680548216831790557f5aa5559585048f3c964b3f5f4e39bce41bd612c4f06341c3a2aa036370c29b6880548216831790557fd79156eaf85a77246f601fbeac91678a6a91e5270dda48fe0c8b8bc316ffa80780548216831790557f4588dd0f42eb06fa793bda52a25a76de6a7ff318532209bc7aadb1f962d0410e80549091168217905560057f5b9f4b3e29890e534851db0cc79af03a5861e973ebcc43c7ce7cbdc915ba9a225560197f180e5813c3d6dbfee391bda7c78a90e203593745fe288889e8b2038f078555305560647f788174486a78305a53e7f3e30c324b94119d348367a3cfe5909b18edcfd9f64b5560287feba31e7744486a1f8c0ba38c1831362670e464a45551370ddc3c482a7eb80b2d556101fa6020526114697f2c17d8e16e644355d48164662e8241a4a6ff9a8c44105e370a0d2b48fb07ac295561054b7f6b33b97f10a67f0f027b3dea661ff36fa406ac9e17a8d1467a69c91fb57d930e556101907f4c562ee05b53c60534273a7283dda48ec043d8301a3b338f9d90f9d8feee173f55600460005261012c7fa5fe82759daa34724fec0874734ce9efeb1de663eaee6bfa08b7aac2e6479b325561212a9066071afd498d0000610f38565b6606651728988000610200556121486002661c6bf526340000610f38565b61215a6003664fefa17b724000610f38565b61216c6004662c68af0bb14000610f38565b80156121b2576000805461ff0019169055604051600181527f7f26b83ff96e1f2b6a682f133852f6798a09c465da95921460cefb38474024989060200160405180910390a15b5050505050505050565b846001600160a01b03811633146121d6576121d633612a9d565b610b358686868686613505565b6121eb612c2f565b6001600160a01b0381166122505760405162461bcd60e51b815260206004820152602660248201527f4f776e61626c653a206e6577206f776e657220697320746865207a65726f206160448201526564647265737360d01b6064820152608401610abb565b610de581612c89565b60606101308054611250906150a8565b60008060608082808681816001600160401b0381111561228b5761228b6148a3565b6040519080825280602002602001820160405280156122b4578160200160208202803683370190505b5090506000826001600160401b038111156122d1576122d16148a3565b6040519080825280602002602001820160405280156122fa578160200160208202803683370190505b50905060005b8381101561241a5760008c8c8381811061231c5761231c615025565b90506040020180360381019061233291906151e7565b80519091506005811080156123475750600081115b6123805760405162461bcd60e51b815260206004820152600a602482015269125b9d985b1a5908125160b21b6044820152606401610abb565b602082015161238f828261354a565b60ff8216600090815261016160205260409020546123ad8282615054565b6123b7908b614fec565b99506123c3828a614fec565b9850828786815181106123d8576123d8615025565b602002602001018181525050818686815181106123f7576123f7615025565b6020026020010181815250505050505080806124129061503b565b915050612300565b50600084116124545760405162461bcd60e51b8152600401610abb906020808252600490820152635a65726f60e01b604082015260600190565b939a92995097509195509350505050565b612480848484604051806020016040528060008152506135cc565b61161581613718565b60006001600160e01b03198216636cdb3d1360e11b14806124ba57506001600160e01b031982166303a24d0760e21b145b80610ae957506301ffc9a760e01b6001600160e01b0319831614610ae9565b60006001600160e01b0319821663152a902d60e11b1480610ae95750610ae982612489565b606061012f61250c8361379a565b610130604051602001612521939291906152a8565b6040516020818303038152906040529050919050565b6000808280820361254f57600080925092505061271b565b6000805b828110156126d857600087878381811061256f5761256f615025565b6101fb546040516331a9108f60e11b8152602092909202939093013560048201819052935033926001600160a01b03169150636352211e90602401602060405180830381865afa1580156125c7573d6000803e3d6000fd5b505050506040513d601f19601f820116820180604052508101906125eb91906152db565b6001600160a01b03161461262d5760405162461bcd60e51b81526020600482015260096024820152682737ba1027bbb732b960b91b6044820152606401610abb565b60008181526101ff602052604090205460ff161561265757612650600284614fec565b9250612665565b826126618161503b565b9350505b6101fb54604051630852cd8d60e31b8152600481018390526001600160a01b03909116906342966c6890602401600060405180830381600087803b1580156126ac57600080fd5b505af11580156126c0573d6000803e3d6000fd5b505050505080806126d09061503b565b915050612553565b506040805182815242602082015233917f70b70c02602ca6e3674cf269aee296d4ec20016bd0640168d48dc4c0ffd8f4eb910160405180910390a2925060009150505b9250929050565b8051600090819080820361273c5750600093849350915050565b6127476002826152f8565b1561278c5760405162461bcd60e51b815260206004820152601560248201527426bab9ba103132903234bb34b9b1363290313c901960591b6044820152606401610abb565b60005b818110156128f35760008582815181106127ab576127ab615025565b60209081029190910101516101fc546040516331a9108f60e11b81526004810183905291925033916001600160a01b0390911690636352211e90602401602060405180830381865afa158015612805573d6000803e3d6000fd5b505050506040513d601f19601f8201168201806040525081019061282991906152db565b6001600160a01b03161461286f5760405162461bcd60e51b815260206004820152600d60248201526c24b73b30b634b21027bbb732b960991b6044820152606401610abb565b6101fc54610202546040516323b872dd60e01b81523360048201526001600160a01b039182166024820152604481018490529116906323b872dd90606401600060405180830381600087803b1580156128c757600080fd5b505af11580156128db573d6000803e3d6000fd5b505050505080806128eb9061503b565b91505061278f565b506040805182815242602082015233917f79fab521652b87c8011ae6ea52cbe559f476249bc98c7e473977e9ccb5d9ca11910160405180910390a2600061293b600283615081565b905080610200548261294d9190615054565b935093505050915091565b6124808484845b612969818361354a565b61123b8382846040518060200160405280600081525061382c565b804710156129d45760405162461bcd60e51b815260206004820152601d60248201527f416464726573733a20696e73756666696369656e742062616c616e63650000006044820152606401610abb565b6000826001600160a01b03168260405160006040518083038185875af1925050503d8060008114612a21576040519150601f19603f3d011682016040523d82523d6000602084013e612a26565b606091505b505090508061123b5760405162461bcd60e51b815260206004820152603a60248201527f416464726573733a20756e61626c6520746f2073656e642076616c75652c207260448201527f6563697069656e74206d617920686176652072657665727465640000000000006064820152608401610abb565b6daaeb6d7670e522a718067333cd4e3b15610de557604051633185c44d60e21b81523060048201526001600160a01b03821660248201526daaeb6d7670e522a718067333cd4e9063c617113490604401602060405180830381865afa158015612b0a573d6000803e3d6000fd5b505050506040513d601f19601f82011682018060405250810190612b2e919061530c565b610de557604051633b79c77360e21b81526001600160a01b0382166004820152602401610abb565b6001600160a01b038516331480612b725750612b72853361098f565b612b8e5760405162461bcd60e51b8152600401610abb90615329565b612b9b85858585856138ff565b5050505050565b6000610ae9612baf613a96565b8360405161190160f01b8152600281019290925260228201526042902090565b600080612c1484848080601f0160208091040260200160405190810160405280939291908181526020018383808284376000920191909152508993925050613aa59050565b6101c6546001600160a01b0391821691161495945050505050565b6097546001600160a01b031633146112065760405162461bcd60e51b815260206004820181905260248201527f4f776e61626c653a2063616c6c6572206973206e6f7420746865206f776e65726044820152606401610abb565b609780546001600160a01b038381166001600160a01b0319831681179093556040519116919082907f8be0079c531659141344cd1fd0a4f28419497f9722a3daafe3b4186f6b6457e090600090a35050565b606060cb8054611250906150a8565b606060cc8054611250906150a8565b612710811115612d4b5760405162461bcd60e51b815260206004820152601c60248201527f526f79616c746965733a2076616c756520697320746f6f2068696768000000006044820152606401610abb565b6040805180820182526001600160a01b03841680825262ffffff8416602092830181905261019380546001600160b81b0319168317600160a01b90920291909117905582519081529081018390527f908669f35f6fb3977a956ba70597841fe541d1e8491ca3c025161e258d3bfdb6910160405180910390a15050565b6001600160a01b038316612e2a5760405162461bcd60e51b815260206004820152602360248201527f455243313135353a206275726e2066726f6d20746865207a65726f206164647260448201526265737360e81b6064820152608401610abb565b8051825114612e4b5760405162461bcd60e51b8152600401610abb90615377565b604080516020810190915260009081905233905b8351811015612f60576000848281518110612e7c57612e7c615025565b602002602001015190506000848381518110612e9a57612e9a615025565b60209081029190910181015160008481526065835260408082206001600160a01b038c168352909352919091205490915081811015612f275760405162461bcd60e51b8152602060048201526024808201527f455243313135353a206275726e20616d6f756e7420657863656564732062616c604482015263616e636560e01b6064820152608401610abb565b60009283526065602090815260408085206001600160a01b038b1686529091529092209103905580612f588161503b565b915050612e5f565b5060006001600160a01b0316846001600160a01b0316826001600160a01b03167f4a39dc06d4c0dbc64b70af90fd698a233a518aa5d07e595d983b8c0526c8f7fb8686604051612fb19291906153bf565b60405180910390a4604080516020810190915260009052611615565b6101fd54604080516318160ddd60e01b8152905185926000926001600160a01b03909116916318160ddd916004808201926020929091908290030181865afa15801561301d573d6000803e3d6000fd5b505050506040513d601f19601f8201168201806040525081019061304191906153ed565b90506000613050826001614fec565b905060005b8381101561329257600088888381811061307157613071615025565b905060200201359050600087878481811061308e5761308e615025565b905060200201359050806000036130a6575050613280565b816004036131f95760005b818110156131f3576102015460405163459a4f9f60e11b8152600481018790523360248201526000916001600160a01b031690638b349f3e906044016020604051808303816000875af115801561310c573d6000803e3d6000fd5b505050506040513d601f19601f8201168201806040525081019061313091906153ed565b9050600081116131785760405162461bcd60e51b81526020600482015260136024820152724572726f723a204f7574206f662073746f636b60681b6044820152606401610abb565b60008181526101f9602090815260409182902054825184815291820189905291810182905242606082015233907f0a687302320f32c8a887a190a8e55d073eccceafc6b5534bce199380854e3bff9060800160405180910390a26131dc8188614fec565b9650505080806131eb9061503b565b9150506130b1565b5061327d565b60008281526101f96020526040812054905b8281101561327a57604080518581526020810188905290810183905242606082015233907f0a687302320f32c8a887a190a8e55d073eccceafc6b5534bce199380854e3bff9060800160405180910390a26132668287614fec565b9550806132728161503b565b91505061320b565b50505b50505b8061328a8161503b565b915050613055565b50600060016132a18484615095565b6132ab9190615095565b9050600081116132ec5760405162461bcd60e51b815260206004820152600c60248201526b4d696e74696e67205a65726f60a01b6044820152606401610abb565b6101fd546040516340c10f1960e01b8152336004820152602481018390526001600160a01b03909116906340c10f1990604401600060405180830381600087803b15801561333957600080fd5b505af115801561334d573d6000803e3d6000fd5b505050505050505050505050565b6114b9338383613ac1565b600054610100900460ff1661338d5760405162461bcd60e51b8152600401610abb90615406565b33600090815260fd60205260409020805460ff19166001179055565b600054610100900460ff166133d05760405162461bcd60e51b8152600401610abb90615406565b61012f6133dd8382615451565b5061013061123b8282615451565b600054610100900460ff166134125760405162461bcd60e51b8152600401610abb90615406565b610de581613ba1565b600054610100900460ff166112065760405162461bcd60e51b8152600401610abb90615406565b600054610100900460ff166134695760405162461bcd60e51b8152600401610abb90615406565b611206733cc6cdda760b79bafa08df41ecfa224f810dceb66001613bad565b600054610100900460ff166114af5760405162461bcd60e51b8152600401610abb90615406565b600054610100900460ff166134d65760405162461bcd60e51b8152600401610abb90615406565b6134e08383613d4c565b6101c680546001600160a01b0319166001600160a01b03929092169190911790555050565b6001600160a01b0385163314806135215750613521853361098f565b61353d5760405162461bcd60e51b8152600401610abb90615329565b612b9b8585858585613d7d565b60008281526101fa6020526040812054613565908390615095565b10156135a45760405162461bcd60e51b815260206004820152600e60248201526d4578636565647320537570706c7960901b6044820152606401610abb565b60008281526101fa6020526040812080548392906135c3908490615095565b90915550505050565b6001600160a01b0384166135f25760405162461bcd60e51b8152600401610abb90615510565b81518351146136135760405162461bcd60e51b8152600401610abb90615377565b3360005b84518110156136b05783818151811061363257613632615025565b60200260200101516065600087848151811061365057613650615025565b602002602001015181526020019081526020016000206000886001600160a01b03166001600160a01b0316815260200190815260200160002060008282546136989190614fec565b909155508190506136a88161503b565b915050613617565b50846001600160a01b031660006001600160a01b0316826001600160a01b03167f4a39dc06d4c0dbc64b70af90fd698a233a518aa5d07e595d983b8c0526c8f7fb87876040516137019291906153bf565b60405180910390a4612b9b81600087878787613ea0565b803410156137595760405162461bcd60e51b815260206004820152600e60248201526d141c9a58d94e881a5b9d985b1a5960921b6044820152606401610abb565b60006137658234615095565b905080156114b957604051339082156108fc029083906000818181858888f1935050505015801561123b573d6000803e3d6000fd5b606060006137a783613ffb565b60010190506000816001600160401b038111156137c6576137c66148a3565b6040519080825280601f01601f1916602001820160405280156137f0576020820181803683370190505b5090508181016020015b600019016f181899199a1a9b1b9c1cb0b131b232b360811b600a86061a8153600a85049450846137fa57509392505050565b6001600160a01b0384166138525760405162461bcd60e51b8152600401610abb90615510565b33600061385e856140d3565b9050600061386b856140d3565b905060008681526065602090815260408083206001600160a01b038b1684529091528120805487929061389f908490614fec565b909155505060408051878152602081018790526001600160a01b03808a1692600092918716917fc3d58168c5ae7397731d063d5bbf3d657854427343f4c083240f7aacaa2d0f62910160405180910390a4610ce98360008989898961411e565b81518351146139205760405162461bcd60e51b8152600401610abb90615377565b6001600160a01b0384166139465760405162461bcd60e51b8152600401610abb90615551565b3360005b8451811015613a3057600085828151811061396757613967615025565b60200260200101519050600085838151811061398557613985615025565b60209081029190910181015160008481526065835260408082206001600160a01b038e1683529093529190912054909150818110156139d65760405162461bcd60e51b8152600401610abb90615596565b60008381526065602090815260408083206001600160a01b038e8116855292528083208585039055908b16825281208054849290613a15908490614fec565b9250508190555050505080613a299061503b565b905061394a565b50846001600160a01b0316866001600160a01b0316826001600160a01b03167f4a39dc06d4c0dbc64b70af90fd698a233a518aa5d07e595d983b8c0526c8f7fb8787604051613a809291906153bf565b60405180910390a4610b35818787878787613ea0565b6000613aa06141d9565b905090565b6000806000613ab4858561424d565b91509150610f308161428f565b816001600160a01b0316836001600160a01b031603613b345760405162461bcd60e51b815260206004820152602960248201527f455243313135353a2073657474696e6720617070726f76616c20737461747573604482015268103337b91039b2b63360b91b6064820152608401610abb565b6001600160a01b03838116600081815260666020908152604080832094871680845294825291829020805460ff191686151590811790915591519182527f17307eab39ab6107e8899845ad3d59bd9653f200f220920489ca2b5937696c31910160405180910390a3505050565b60676114b98282615451565b600054610100900460ff16613bd45760405162461bcd60e51b8152600401610abb90615406565b6daaeb6d7670e522a718067333cd4e3b156114b95760405163c3c5a54760e01b81523060048201526daaeb6d7670e522a718067333cd4e9063c3c5a547906024016020604051808303816000875af1158015613c34573d6000803e3d6000fd5b505050506040513d601f19601f82011682018060405250810190613c58919061530c565b6114b9578015613ccc57604051633e9f1edf60e11b81523060048201526001600160a01b03831660248201526daaeb6d7670e522a718067333cd4e90637d3e3dbe906044015b600060405180830381600087803b158015613cb857600080fd5b505af1158015610b35573d6000803e3d6000fd5b6001600160a01b03821615613d1b5760405163a0af290360e01b81523060048201526001600160a01b03831660248201526daaeb6d7670e522a718067333cd4e9063a0af290390604401613c9e565b604051632210724360e11b81523060048201526daaeb6d7670e522a718067333cd4e90634420e48690602401613c9e565b600054610100900460ff16613d735760405162461bcd60e51b8152600401610abb90615406565b6114b982826143d9565b6001600160a01b038416613da35760405162461bcd60e51b8152600401610abb90615551565b336000613daf856140d3565b90506000613dbc856140d3565b905060008681526065602090815260408083206001600160a01b038c16845290915290205485811015613e015760405162461bcd60e51b8152600401610abb90615596565b60008781526065602090815260408083206001600160a01b038d8116855292528083208985039055908a16825281208054889290613e40908490614fec565b909155505060408051888152602081018890526001600160a01b03808b16928c821692918816917fc3d58168c5ae7397731d063d5bbf3d657854427343f4c083240f7aacaa2d0f62910160405180910390a4610c03848a8a8a8a8a61411e565b6001600160a01b0384163b15610b355760405163bc197c8160e01b81526001600160a01b0385169063bc197c8190613ee490899089908890889088906004016155e0565b6020604051808303816000875af1925050508015613f1f575060408051601f3d908101601f19168201909252613f1c9181019061563e565b60015b613fcb57613f2b61565b565b806308c379a003613f645750613f3f615677565b80613f4a5750613f66565b8060405162461bcd60e51b8152600401610abb91906146e8565b505b60405162461bcd60e51b815260206004820152603460248201527f455243313135353a207472616e7366657220746f206e6f6e2d455243313135356044820152732932b1b2b4bb32b91034b6b83632b6b2b73a32b960611b6064820152608401610abb565b6001600160e01b0319811663bc197c8160e01b14610ce95760405162461bcd60e51b8152600401610abb90615700565b60008072184f03e93ff9f4daa797ed6e38ed64bf6a1f0160401b831061403a5772184f03e93ff9f4daa797ed6e38ed64bf6a1f0160401b830492506040015b6d04ee2d6d415b85acef81000000008310614066576d04ee2d6d415b85acef8100000000830492506020015b662386f26fc10000831061408457662386f26fc10000830492506010015b6305f5e100831061409c576305f5e100830492506008015b61271083106140b057612710830492506004015b606483106140c2576064830492506002015b600a8310610ae95760010192915050565b6040805160018082528183019092526060916000919060208083019080368337019050509050828160008151811061410d5761410d615025565b602090810291909101015292915050565b6001600160a01b0384163b15610b355760405163f23a6e6160e01b81526001600160a01b0385169063f23a6e61906141629089908990889088908890600401615748565b6020604051808303816000875af192505050801561419d575060408051601f3d908101601f1916820190925261419a9181019061563e565b60015b6141a957613f2b61565b565b6001600160e01b0319811663f23a6e6160e01b14610ce95760405162461bcd60e51b8152600401610abb90615700565b60007f8b73c3c69bb8fe3d512ecc4cf759cc79239f7b179b0ffacaa9a75d522b39400f614204614428565b61420c614481565b60408051602081019490945283019190915260608201524660808201523060a082015260c00160405160208183030381529060405280519060200120905090565b60008082516041036142835760208301516040840151606085015160001a614277878285856144b2565b9450945050505061271b565b5060009050600261271b565b60008160048111156142a3576142a3615782565b036142ab5750565b60018160048111156142bf576142bf615782565b0361430c5760405162461bcd60e51b815260206004820152601860248201527f45434453413a20696e76616c6964207369676e617475726500000000000000006044820152606401610abb565b600281600481111561432057614320615782565b0361436d5760405162461bcd60e51b815260206004820152601f60248201527f45434453413a20696e76616c6964207369676e6174757265206c656e677468006044820152606401610abb565b600381600481111561438157614381615782565b03610de55760405162461bcd60e51b815260206004820152602260248201527f45434453413a20696e76616c6964207369676e6174757265202773272076616c604482015261756560f01b6064820152608401610abb565b600054610100900460ff166144005760405162461bcd60e51b8152600401610abb90615406565b60cb61440c8382615451565b5060cc6144198282615451565b5050600060c981905560ca5550565b600080614433612cdb565b80519091501561444a578051602090910120919050565b60c95480156144595792915050565b7fc5d2460186f7233c927e7db2dcc703c0e500b653ca82273b7bfad8045d85a4709250505090565b60008061448c612cea565b8051909150156144a3578051602090910120919050565b60ca5480156144595792915050565b6000807f7fffffffffffffffffffffffffffffff5d576e7357a4501ddfe92f46681b20a08311156144e9575060009050600361456d565b6040805160008082526020820180845289905260ff881692820192909252606081018690526080810185905260019060a0016020604051602081039080840390855afa15801561453d573d6000803e3d6000fd5b5050604051601f1901519150506001600160a01b0381166145665760006001925092505061456d565b9150600090505b94509492505050565b6001600160a01b0381168114610de557600080fd5b803561459681614576565b919050565b600080604083850312156145ae57600080fd5b82356145b981614576565b946020939093013593505050565b60008083601f8401126145d957600080fd5b5081356001600160401b038111156145f057600080fd5b6020830191508360208260061b850101111561271b57600080fd5b6000806020838503121561461e57600080fd5b82356001600160401b0381111561463457600080fd5b614640858286016145c7565b90969095509350505050565b6001600160e01b031981168114610de557600080fd5b60006020828403121561467457600080fd5b81356111a78161464c565b60006020828403121561469157600080fd5b5035919050565b60005b838110156146b357818101518382015260200161469b565b50506000910152565b600081518084526146d4816020860160208601614698565b601f01601f19169290920160200192915050565b6020815260006111a760208301846146bc565b60008083601f84011261470d57600080fd5b5081356001600160401b0381111561472457600080fd5b6020830191508360208260051b850101111561271b57600080fd5b6000806000806040858703121561475557600080fd5b84356001600160401b038082111561476c57600080fd5b614778888389016146fb565b9096509450602087013591508082111561479157600080fd5b5061479e878288016146fb565b95989497509550505050565b6000806000806000606086880312156147c257600080fd5b85356001600160401b03808211156147d957600080fd5b6147e589838a016146fb565b909750955060208801359150808211156147fe57600080fd5b5061480b888289016146fb565b96999598509660400135949350505050565b60006020828403121561482f57600080fd5b81356111a781614576565b8015158114610de557600080fd5b6000806040838503121561485b57600080fd5b823561486681614576565b915060208301356148768161483a565b809150509250929050565b6000806040838503121561489457600080fd5b50508035926020909101359150565b634e487b7160e01b600052604160045260246000fd5b601f8201601f191681016001600160401b03811182821017156148de576148de6148a3565b6040525050565b60006001600160401b038211156148fe576148fe6148a3565b5060051b60200190565b600082601f83011261491957600080fd5b81356020614926826148e5565b60405161493382826148b9565b83815260059390931b850182019282810191508684111561495357600080fd5b8286015b8481101561496e5780358352918301918301614957565b509695505050505050565b600082601f83011261498a57600080fd5b81356001600160401b038111156149a3576149a36148a3565b6040516149ba601f8301601f1916602001826148b9565b8181528460208386010111156149cf57600080fd5b816020850160208301376000918101602001919091529392505050565b600080600080600060a08688031215614a0457600080fd5b8535614a0f81614576565b94506020860135614a1f81614576565b935060408601356001600160401b0380821115614a3b57600080fd5b614a4789838a01614908565b94506060880135915080821115614a5d57600080fd5b614a6989838a01614908565b93506080880135915080821115614a7f57600080fd5b50614a8c88828901614979565b9150509295509295909350565b60008060408385031215614aac57600080fd5b82356001600160401b0380821115614ac357600080fd5b818501915085601f830112614ad757600080fd5b81356020614ae4826148e5565b604051614af182826148b9565b83815260059390931b8501820192828101915089841115614b1157600080fd5b948201945b83861015614b38578535614b2981614576565b82529482019490820190614b16565b96505086013592505080821115614b4e57600080fd5b50610dac85828601614908565b600081518084526020808501945080840160005b83811015614b8b57815187529582019590820190600101614b6f565b509495945050505050565b6020815260006111a76020830184614b5b565b803560ff8116811461459657600080fd5b60008060408385031215614bcd57600080fd5b6145b983614ba9565b60008083601f840112614be857600080fd5b5081356001600160401b03811115614bff57600080fd5b60208301915083602082850101111561271b57600080fd5b60008060008060008587036080811215614c3057600080fd5b6040811215614c3e57600080fd5b5085945060408601356001600160401b0380821115614c5c57600080fd5b614c6889838a016145c7565b90965094506060880135915080821115614c8157600080fd5b50614c8e88828901614bd6565b969995985093965092949392505050565b60008060408385031215614cb257600080fd5b614cbb83614ba9565b9150602083013561487681614576565b60008060208385031215614cde57600080fd5b82356001600160401b03811115614cf457600080fd5b614640858286016146fb565b60008060208385031215614d1357600080fd5b82356001600160401b03811115614d2957600080fd5b61464085828601614bd6565b60ff60f81b8816815260e060208201526000614d5460e08301896146bc565b8281036040840152614d6681896146bc565b606084018890526001600160a01b038716608085015260a0840186905283810360c08501529050614d978185614b5b565b9a9950505050505050505050565b60008060408385031215614db857600080fd5b82356001600160401b0380821115614dcf57600080fd5b614ddb86838701614908565b93506020850135915080821115614b4e57600080fd5b600060208284031215614e0357600080fd5b6111a782614ba9565b600080600060608486031215614e2157600080fd5b8335614e2c81614576565b92506020840135614e3c81614576565b91506040840135614e4c81614576565b809150509250925092565b600080600080600080600060e0888a031215614e7257600080fd5b87356001600160401b0380821115614e8957600080fd5b614e958b838c01614979565b985060208a0135915080821115614eab57600080fd5b614eb78b838c01614979565b9750614ec560408b0161458b565b965060608a0135955060808a0135915080821115614ee257600080fd5b614eee8b838c01614979565b945060a08a0135915080821115614f0457600080fd5b50614f118a828b01614979565b925050614f2060c0890161458b565b905092959891949750929550565b60008060408385031215614f4157600080fd5b8235614cbb81614576565b600080600080600060a08688031215614f6457600080fd5b8535614f6f81614576565b94506020860135614f7f81614576565b9350604086013592506060860135915060808601356001600160401b03811115614fa857600080fd5b614a8c88828901614979565b6020808252600890820152674e6f74206c69766560c01b604082015260600190565b634e487b7160e01b600052601160045260246000fd5b80820180821115610ae957610ae9614fd6565b6020808252600c908201526b2737ba1030b71030b236b4b760a11b604082015260600190565b634e487b7160e01b600052603260045260246000fd5b60006001820161504d5761504d614fd6565b5060010190565b8082028115828204841417610ae957610ae9614fd6565b634e487b7160e01b600052601260045260246000fd5b6000826150905761509061506b565b500490565b81810381811115610ae957610ae9614fd6565b600181811c908216806150bc57607f821691505b6020821081036150dc57634e487b7160e01b600052602260045260246000fd5b50919050565b601f82111561123b57600081815260208120601f850160051c810160208610156151095750805b601f850160051c820191505b81811015610b3557828155600101615115565b6001600160401b0383111561513f5761513f6148a3565b6151538361514d83546150a8565b836150e2565b6000601f841160018114615187576000851561516f5750838201355b600019600387901b1c1916600186901b178355612b9b565b600083815260209020601f19861690835b828110156151b85786850135825560209485019460019092019101615198565b50868210156151d55760001960f88860031b161c19848701351681555b505060018560011b0183555050505050565b6000604082840312156151f957600080fd5b604051604081018181106001600160401b038211171561521b5761521b6148a3565b604052823581526020928301359281019290925250919050565b60008154615242816150a8565b6001828116801561525a576001811461526f5761529e565b60ff198416875282151583028701945061529e565b8560005260208060002060005b858110156152955781548a82015290840190820161527c565b50505082870194505b5050505092915050565b60006152b48286615235565b84516152c4818360208901614698565b6152d081830186615235565b979650505050505050565b6000602082840312156152ed57600080fd5b81516111a781614576565b6000826153075761530761506b565b500690565b60006020828403121561531e57600080fd5b81516111a78161483a565b6020808252602e908201527f455243313135353a2063616c6c6572206973206e6f7420746f6b656e206f776e60408201526d195c881bdc88185c1c1c9bdd995960921b606082015260800190565b60208082526028908201527f455243313135353a2069647320616e6420616d6f756e7473206c656e677468206040820152670dad2e6dac2e8c6d60c31b606082015260800190565b6040815260006153d26040830185614b5b565b82810360208401526153e48185614b5b565b95945050505050565b6000602082840312156153ff57600080fd5b5051919050565b6020808252602b908201527f496e697469616c697a61626c653a20636f6e7472616374206973206e6f74206960408201526a6e697469616c697a696e6760a81b606082015260800190565b81516001600160401b0381111561546a5761546a6148a3565b61547e8161547884546150a8565b846150e2565b602080601f8311600181146154b3576000841561549b5750858301515b600019600386901b1c1916600185901b178555610b35565b600085815260208120601f198616915b828110156154e2578886015182559484019460019091019084016154c3565b50858210156155005787850151600019600388901b60f8161c191681555b5050505050600190811b01905550565b60208082526021908201527f455243313135353a206d696e7420746f20746865207a65726f206164647265736040820152607360f81b606082015260800190565b60208082526025908201527f455243313135353a207472616e7366657220746f20746865207a65726f206164604082015264647265737360d81b606082015260800190565b6020808252602a908201527f455243313135353a20696e73756666696369656e742062616c616e636520666f60408201526939103a3930b739b332b960b11b606082015260800190565b6001600160a01b0386811682528516602082015260a06040820181905260009061560c90830186614b5b565b828103606084015261561e8186614b5b565b9050828103608084015261563281856146bc565b98975050505050505050565b60006020828403121561565057600080fd5b81516111a78161464c565b600060033d11156156745760046000803e5060005160e01c5b90565b600060443d10156156855790565b6040516003193d81016004833e81513d6001600160401b0381602484011181841117156156b457505050505090565b82850191508151818111156156cc5750505050505090565b843d87010160208285010111156156e65750505050505090565b6156f5602082860101876148b9565b509095945050505050565b60208082526028908201527f455243313135353a204552433131353552656365697665722072656a656374656040820152676420746f6b656e7360c01b606082015260800190565b6001600160a01b03868116825285166020820152604081018490526060810183905260a0608082018190526000906152d0908301846146bc565b634e487b7160e01b600052602160045260246000fdfea264697066735822122054fd5ba65cd5013f45013854edebe00a3bafcd9db24ccc82545130ab4318f25764736f6c63430008110033",
  "linkReferences": {},
  "deployedLinkReferences": {}
}